:020000040000FA
:10000000681000205D01000065010000670100002C
:10001000690100006B0100006D010000000000009C
:100020000000000000000000000000006F01000060
:100030007101000000000000730100007501000064
:1000400077010000770100007701000077010000D0
:1000500077010000770100007701000077010000C0
:1000600077010000770100007701000077010000B0
:1000700077010000770100007701000077010000A0
:100080007701000077010000770100007701000090
:100090000000000000000000000000000000000060
:1000A0000000000000000000000000000000000050
:1000B00077010000000000007701000077010000D8
:1000C00000F002F800F03AF80AA090E8000C824430
:1000D0008344AAF10107DA4501D100F02FF8AFF20D
:1000E000090EBAE80F0013F0010F18BFFB1A43F016
:1000F000010318475401000074010000103A24BFA6
:1001000078C878C1FAD8520724BF30C830C144BF7C
:1001100004680C60704700000023002400250026BE
:10012000103A28BF78C1FBD8520728BF30C148BF5A
:100130000B6070471FB51FBD10B510BD00F031F842
:100140001146FFF7F7FF00F077F800F04FF803B41F
:10015000FFF7F2FF03BC00F057F8000009488047A2
:1001600009480047FEE7FEE7FEE7FEE7FEE7FEE799
:10017000FEE7FEE7FEE7FEE704480549054A064BB1
:100180007047000019020000C10000006800002054
:1001900068100020680C0020680C00207047704731
:1001A0007047754600F02CF8AE4605006946534688
:1001B00020F00700854618B020B5FFF7DDFFBDE849
:1001C00020404FF000064FF000074FF000084FF0BE
:1001D000000B21F00701AC46ACE8C009ACE8C0094F
:1001E000ACE8C009ACE8C0098D46704710B50446BC
:1001F000AFF300802046BDE81040FFF7A8BF000025
:10020000004870470400002001491820ABBEFEE7FB
:1002100026000200704700000348044908600448B3
:1002200004490860704700000000000008ED00E08D
:1002300040787D010000002008B5FFF7EDFF02E0E7
:100240000720009000BFFBE76802000000000020CC
:1002500004000000FC0000006C020000040000200C
:0C026000641000001801000040787D01CF
:040000050000015D99
:00000001FF
