:020000040000fa
:080000000002040000000000f2
:020000040000fa
:10040000af1c21000e7f24000e01880000000000b8
:100410000c00070020392300010020001f00070006
:10042000000020000000e000020032000000020096
:10043000000000008a2b0200000000000040da00eb
:100440000000fe004440a900a07420000000e0006d
:100450000300320000002000a00188004440a800f2
:1004600000000600f03fb1000180b1000600350039
:10047000ee03090000000000403fb1000180b10020
:10048000fbff3d001000b000203fb000020035002f
:1004900000800900000000000000060091018800b3
:1004a000800078000000eb0015003700e28040007b
:1004b00032a0b4009101ba00e280400032a0b40042
:1004c0009102ba00e280400032a0b4000002eb00ca
:1004d000472bde00f507b200602ce10004003a0073
:1004e0000059eb008301e900fdff3e0004003700e6
:1004f0006128e100010032000082eb0004000700e7
:100500001101ba000200e000e8ff3a000000060016
:100510003159ba008301e9000c0032002159ba00b8
:100520008301e900080032000400e00003003a0003
:10053000e280400032a0b400f5ff370011d9ba00c4
:100540008301e900faff3a008100e800e180400001
:1005500032a0b400000006000040da000000fe00f7
:10056000020ab900001bb9000200b8008100420075
:1005700081004300000006000a00fa0080017800b4
:10058000e20f500028003e00407e8000e10f500046
:1005900008003200802320000000e0000500320047
:1005a000042320002523200046232000800178001a
:1005b00004003700042220002522200046222000cb
:1005c00083222000144090000004e0000400350065
:1005d0008009eb00144090000074a00010429800c5
:1005e000154090000028a30003003a001540900039
:1005f0000024a000904298008001eb000700370023
:10060000154090000008a300fdff320063c0780091
:100610000000fb00000b78008301e800828f51008e
:10062000f7ff3a000800370030002000b0bf9f00fd
:10063000c3bf9f00d1bf9f00e2bf9f006a805700e9
:1006400000c0da006fb99700020078000080fa005d
:10065000000006006022b800060220000000d00062
:100660008180d2000482d2008582d2000000a000e6
:100670000202520083825a0003003100020242004b
:1006800083824a000000a1000603e900f3ff3a005c
:1006900000000600889fbe008a9fbe008c1f780065
:1006a0000205be000004be000006eb00e00f500093
:1006b000e08f5800e00f5900e08f590007003d001f
:1006c0006000b8006011b800080450008984580028
:1006d0000a0559008b8559001c002000e00f5200cc
:1006e000e08f5a00e00f5b00e08f5b0002003d00ee
:1006f0000f0007000c00a2000800be000a01be00a7
:100700001c0207000203be000002be000c00e00055
:1007100001003200060007000400be000601be0012
:100720004f0678004f05be004f04be0000000600d3
:100730006000b8006011b8000402500085825800c3
:10074000060359008783590000000600881f7800bf
:10075000000478005001be004000be0004004000cc
:10076000858048000601490087814900009cbe0041
:100770000294be000400e1000588e1000690e1005b
:100780000798e10002003100680044001008e8000a
:100790004f04780000000600f4874700889fbe00e1
:1007a0008a9fbe008c9fbe008e1f78000205be008f
:1007b0000004be00d4b79f00e5b79f00f6b79f00c6
:1007c00087bf9f000000eb00c0b79f00b0b79f003d
:1007d000a0b79f0090b79f0080b79f000d04200036
:1007e000bfb097004fb09700000140000000e0004c
:1007f0000f003d004f08de0000007100c0b79f00f1
:100800009e00070001003d0012002000a10007002b
:1008100001003d0012002000a6000700b100070003
:10082000b60007000f004000c8ff07002200370095
:100830004f08de0000067100ccb79f008f00070054
:1008400001003d00120020009200070001003d0061
:100850001200200097000700a20007000fb29700c7
:100860009fb297002fb39700bfb39700a90007006e
:100870000000520081805a0002015b0083815b000e
:1008800080b79f0091b79f00a2b79f00b3b79f00aa
:100890000007eb009f0007000020e10001a8e10035
:1008a00002b0e10003b8e100010031001e002000a9
:1008b0000e005600c0b79f004fb297000400e00042
:1008c0000700350010002000010020006011b80072
:1008d00008047000898470000a0571008b8571001e
:1008e0008d06e900beff3a000400e00003003d0071
:1008f000820007000f00400094ff07004fa89700f8
:100900000000e00004003a000fb497009fb4970085
:100910002fb59700bfb59700940007004f077800e8
:100920004f06be004f05be004f04be004f01b10090
:1009300000000600881f780018002000881f78003b
:1009400095ff07008f87e9004f047800000006003c
:10095000801feb0090ff07008f87e9000000060072
:10096000889fbe008a9fbe008c1f78006e00070023
:1009700007003d0073000700e00f5b00e08f5b00a5
:1009800007003d00320007000006eb0004003700be
:100990003400070002003d002a0007001c00200070
:1009a00072000700e3ff07000203be000002be0062
:1009b0000c00e00001003200220007000400be002d
:1009c0000601be004f0678004f05be004f04be0072
:1009d00000000600889fbe008a9fbe008c1f780022
:1009e0005100070005003d0056000700e00f5b00c6
:1009f000e08f5b0006003d0004003700190007008f
:100a000003003d006000b8006011b800100007004e
:100a100056000700ceff07000203be000002be0022
:100a20000c00e00001003200060007000400be00d8
:100a30000601be004f0678004f05be004f04be0001
:100a4000000006006000b8006011b8000000370028
:100a5000040250008582580006035900878359001c
:100a6000000006000006eb00e00f5200e08f5a0085
:100a7000e00f5b00e08f5b0000000600018040009b
:100a800090b79f000001eb008fb097000100e000dd
:100a9000000006000200700090b79f000180400037
:100aa00080b79f000001eb00ffa897000100e00065
:100ab000000006000200700080b79f000180400027
:100ac0006faa9700cf20de0001007000f0af9f00fa
:100ad00004024200250007004f18de0000027200e9
:100ae00000000600e4af9f000804440089844c0025
:100af0000a054d008b854d00000006003fb29700af
:100b0000cfb297005fb39700efb3970000fe2f00be
:100b1000000006003fb09700cfb097005fb197008c
:100b2000efb19700000006000205be000004be0001
:100b3000e00f5000e08f5800e00f5900e08f59009f
:100b4000000006006000b8006011b8000804500002
:100b5000898458000a0559008b8559001c00200023
:100b6000e00f5200e08f5a00000006000800be00af
:100b70000a01be0000000600889fbe008a9fbe00da
:100b8000010578000100e0000400350008003c0089
:100b90000000e00020003200050037006000100077
:100ba000e080180002003b0001f02c001a00370022
:100bb0000004be006011b8006b0920000982cf005c
:100bc000020039000882cf000441b000694252009f
:100bd0000e00320008003b00828171006101640058
:100be0008904d1000884d3008b05e8000442e800a2
:100bf000f9ff3a00050037000804440089844c00de
:100c00008b05e9000442e900fbff3a00fb00070006
:100c10000af0a70001f0a0004f05be004f04be007f
:100c20000000060003f0a200889fbe008a9fbe005d
:100c30008c1f7800170107001e0133006450e1008b
:100c40004f0032006420e1005200320003826c0049
:100c500007003b000905d0000306d000820f5400b6
:100c60000c065d00020039000200320089017800a4
:100c7000030678008582550004003d000003fd0056
:100c80008103fd008502ea008b854200840f72001b
:100c900002003b0060001000e08018006011b80006
:100ca0000005eb007a28e1000a0039000600780010
:100cb000c75ddd00f707b200878075002d003700a3
:100cc000828171000a017800610560008180d10095
:100cd0000080d3008502e900f9ff3b0006044000d4
:100ce0008784480002003b0060041400e0841c007c
:100cf0000988a300070032008a8171008281710097
:100d0000610164008904d1000884d3008b05e800e8
:100d1000170037000978a30013003a000b00e00029
:100d2000130034008b05e9000804440089844c005a
:100d30000a4474000978a3000d003a000b00e0009b
:100d4000070034008b05e9000804440089844c0046
:100d500001003a000b0020000978a300f7ff3200e1
:100d60000001eb0002003700828171000a01780067
:100d7000a20007000cf0a70001f0a000d600370089
:100d80006420e10002003a00838f6c00d60033003b
:100d90000801be000200be00cf003700889fbe00e1
:100da0008a9fbe008c1f7800ba000700c100330084
:100db00003866c006450e100240032006420e100ee
:100dc000270032006150e100220032006120e10082
:100dd000210032008b854200eb07b1000134b800de
:100de000003ab8000804420089844a00013ab80079
:100df0000030b8008880400009014a000400330038
:100e00000000400081804800020149008b05e90094
:100e1000c909dd00830170000100320013002000c9
:100e2000c814de004814dd004709de001200b200dd
:100e3000c808de00088470007000070001f0a100ff
:100e40000cf0a70001f0a000a30037006120e10032
:100e5000a50032000801be000200be00f7ff370007
:100e60006150e100fcff3a009f003700889fbe0000
:100e70008a9fbe008c1f7800860007008d0033001b
:100e800003866c006450e1002e0032006420e10013
:100e9000330032006150e1002f0032006120e10098
:100ea0003100320085855500eb07b00009002000b5
:100eb00008042000050037000804440089844c0021
:100ec0000a0031000603430087834b0000015300f2
:100ed00081815b00f8ff33000203be000800a00020
:100ee0000804440089844c00f6ff3900c639dd004f
:100ef0008301730001003200130020008904d10037
:100f00000884d3000998a300050032000800a70058
:100f10000300a0008904d1000884d3008b05e800f9
:100f20008904d1000884d3000001eb000281d200c3
:100f30003200070001f0a1000cf0a70001f0a000b2
:100f4000650037006420e100670032000801be0040
:100f50000200be00f7ff37006120e10062003200ae
:100f60006000b800f3ff37000000200001f8270000
:100f7000f0ff3700889fbe008a9fbe008c9fbe0096
:100f80000404b8000506b8008904460060854e00d8
:100f90000606b8000a054600e0854e000706b800c0
:100fa0008b054600040eb800890446000a854e00f1
:100fb000e0854d00050eb8000a0546008b854e0001
:100fc000060eb8008b0546000416b8000a05460058
:100fd0008b854e000516b8008b054600041eb80030
:100fe0008b0546000800be000a01be004f06be0089
:100ff0004f05be004f04be00000006008100200027
:10100000618055000b003d000b00200061fe2f00a9
:101010000100e1001d003400828171006101640063
:101020008904d1000884d3000000e800faff3a00e8
:101030007100200061006400030070000200600085
:101040000900320061044400e0844c000988a500d6
:10105000050032008b05e8006808e10002003a0054
:101060008904d1000884d300f20f20000258e10067
:1010700005003d00c75ddd00f907b20089807500fd
:1010800008007800000006000bf827008b007800ad
:10109000000005000004be00160007000003be00ab
:1010a0000405be000200be0012000700844f750058
:1010b000000006000200be006450e100050036009a
:1010c0006420e100020036000968a30001003a0034
:1010d0000800be000160a0004f0678004f05be006a
:1010e0004f04be0000000600f0ff2f00f1ff2700b4
:1010f000f9ff3700c70ade00f107b200f50fb200b2
:1011000008003200e1cf4200020032000170a0006e
:1011100024000500810f7000010032000408050062
:1011200044000500810f700002003a001400050021
:101130008502e9000000400081c04800fcff3b0040
:101140000170a000240005002800fa00889fbe005e
:101150008a9fbe008c9fbe0003866b000c020700b6
:101160000028a30064003a000128a30067003a00a9
:101170000008a30062003a000108a30065003a00dd
:101180001e009000be08900081064000ed3fb100b7
:10119000f4805700ee019000111ab8008e099000fb
:1011a000311bb8009e099000311cb800511db800d9
:1011b000f485570046000700fe0190003a00070042
:1011c0008b85e8003e0007008e0990004000070074
:1011d000ee019000340007008b85e800380007001e
:1011e0008e099000400007009e0990001b18b8006f
:1011f000890440000a854800fe0190003400070081
:101200008b85e80038000700ee01900030000700f1
:101210008e0990001b18b800890440000a85480018
:101220000a98a30008003a000402420085824a009e
:1012300006034b0087834b0008044c0089844c0054
:101240000a054d008d06e900848272008502730054
:101250004c3add00850272000100320015002000ca
:10126000443ade001400b2004538de00cb45dd0014
:101270000b007000c540de00cb4ddd008b807000a0
:101280004549de00cb55dd000b017100c551de0084
:101290000d037800d701070003f0a1000cf0a700b0
:1012a00003f0a000ce0137001b18b80085024000f3
:1012b00006834800e0834b0060044c0007003700c1
:1012c0001b18b8000603400087834800faff370068
:1012d0001b18b8008703400008844800e0844c00d5
:1012e00060054d00000006001b18b800080440000f
:1012f00089844800faff37000108a300b5013a00cd
:101300005800be005801be00e3ff37000008a300ec
:10131000b0013a0009047800f9ff37008103780032
:1013200074ff07000001be006000b8000478a3004d
:1013300013003a006220e10015003e000d00390064
:101340008301d1000281d3008180d3008301d100c9
:101350000281d3008180d3008301d1000281d300b8
:101360008180d3000538b000c42add00f300b2004c
:101370008381720007f0a70003f0a00000000600c0
:10138000f3ff2700f2ff2f006110b900fbff3700c9
:1013900003ff2700f7ff37008f1fd100c1010700af
:1013a0008f87e9000000e00000000600801feb00ce
:1013b000bc0107008f87e9000000e0000000060084
:1013c0001400fa00889fbe008a9fbe008c9fbe005a
:1013d0000005be000206be00680047000c90be007b
:1013e0000a90be00d80107006400e1001a00320034
:1013f00016003e006100e1001a0032006e04900009
:10140000fe0490000e0b90009e0b90006011b8003f
:101410009e0590000b38b100d5012000828171003b
:10142000610164008703d1000683d3008984d3005f
:101430000884d3008502e900f8ff3a00effe0700b8
:101440000df0a70001f0a00065013700f1ff2700b3
:10145000f0ff2f006201370001f827000000200094
:10146000f7ff37006000b800f5ff3700dd01070027
:101470000509780000000600809feb008901070045
:101480008f87e9000000e000000006002800fa0055
:10149000889fbe008a9fbe008c9fbe000706780012
:1014a000878669000c003b000304780087047800fd
:1014b00008f0a10009f0a100840f5000858f5800aa
:1014c000860f5900890f5c00030033000cf0a20066
:1014d00001003a000cf0a1002d0107006400e100ba
:1014e0005f003200780147006408e10061003200cb
:1014f0006c014700748557003200be001201be0027
:101500003a04be001a05be001e039000be0a9000f9
:101510008503530006003d000004fd008104fd002a
:101520000205fd008305fd008703ea00050378003e
:101530000df8a3000400320060041400e0841c00d5
:1015400060051d00e0851d006022b8007d032000bd
:101550000d38e1008006eb000b0039004433dd005c
:10156000f300b200830173003900370084827200f7
:101570000d027800e10664008b85d1000a85d30056
:101580008984d3000884d3008703e900f7ff3b0078
:1015900008004000898048000a0149008b81490009
:1015a00004003b0060001000e0801800600119009a
:1015b000e08119000358a300090032008d827200f7
:1015c00084827200610260008301d1000281d30035
:1015d0008180d3000080d3000603e8001b003700a1
:1015e0000348a30017003a000600e000170034008b
:1015f0000603e9000d00a3000000480081804800b8
:1016000002014900838149000348a3000f003a000a
:101610000600e000090034000603e9000000400075
:1016200081804800020149008381490001003a009d
:101630000003eb000348a300f5ff32006022b8006e
:10164000020037008482720061826600e9000700b0
:1016500003f0a1000cf0a70003f0a000e0003700a9
:10166000640147006408e10002003a000df8a3009d
:10167000d8003a003200be001201be00d800370088
:101680001400fa00889fbe008a9fbe008c9fbe0097
:101690000004be000205be00680047000a90be00bc
:1016a0000890be00280107000070a7000bf0a10001
:1016b0000bf8a30020003a009e0990000e0990004c
:1016c000fe0090006e0090009e02900034432000c7
:1016d00084825200c20032000a003c00b4fc2f0099
:1016e0000428e100140034008301d1000281d300fa
:1016f0008180d3000080d3008502e800faff3a0021
:10170000b7003700b40020000428e10007003c00c7
:1017100000004000818048000201490083814900a7
:101720008502e900faff3a00ad0037000300280007
:1017300002002000010037006011b8006000b8000e
:10174000a70037002800fa00889fbe008a9fbe00cd
:101750008c9fbe0003866b008d0007006400e100d3
:10176000440032006408e1004a0032006100e100f8
:10177000460032006108e10049003200ec064700f3
:101780006000b8003d02be003d03be00f486570075
:101790006011b8003d04be003d05be007d03200081
:1017a0000b0037000000a0008d06e9001300320096
:1017b0000402420085824a0006034b0087834b00e7
:1017c00000004000818048000201490083814900f7
:1017d0000802520089825a000a035b008b835b0077
:1017e000f0ff3b000802420089824a000a034b00d6
:1017f0008b834b008d06e900edff3a008482720076
:1018000086827200f707b200878272000100320000
:10181000150020001e0490003e0b900006035400ab
:10182000e63fb0000368a300070032000000a700f5
:101830000500a0008301d1000281d3008180d30084
:101840000080d3000603e8008301d1000281d300a9
:101850008180d3000080d3000002eb000482d2001c
:101860006400070003f0a1000cf0a70003f0a00043
:101870005b003700640247006408e1005500320055
:101880003400be003401be00f6ff37006108e100fd
:10189000500032006011b8006000b800f1ff37005e
:1018a00003ff270002002000fbff3700889fbe00d7
:1018b000830478000300e0002c00350003003c00a6
:1018c00000827000040271002600320036432000be
:1018d000c50020008383cf000a0039000541b10014
:1018e0008283cf00070039000541b1008183cf001a
:1018f000040039000541b1008083cf0001003900a8
:101900000541b10085c353006022b80012003200c7
:101910000a003b0084827200610260008301d100f2
:101920000281d3008180d3000080d3000603e80049
:101930008743e800f7ff3a00070037000000400047
:101940008180480002014900838149000603e900c3
:101950008743e900f9ff3a002600070009f0a700d5
:1019600003f0a0004f04be0000000600600010005d
:10197000e080180060011900e0811900d3ff3b00ee
:10198000033e2c00f7ff370007f0a200bffe370030
:10199000680447000294be000094be00fc044700a7
:1019a0008694be008494be0009007800660007009b
:1019b000080078006400070099007800814f7000eb
:1019c0000b003b000800be00930007004f00b10071
:1019d00003003700f3ff2700f2ff2f006110b9006a
:1019e0004f06be004f05be004f04be000080fa0047
:1019f00000000600180020005700200008045300d3
:101a00000d003d000600200097fc2f000740e1007c
:101a10001e00340084827200610260008301d100e4
:101a20000281d3008180d3000080d3000804e80045
:101a3000f8ff3a00470020006104600005047400cc
:101a4000040464000d00320061004000e0804800a2
:101a500060014900e081490003b8a5000700320099
:101a60000603e8006538e10004003a008301d10074
:101a70000281d3008180d3000080d300f87f200052
:101a80000830e10003003500080378006000b8006a
:101a90006011b8004433dd00f300b200830173002d
:101aa00000000600889fbe008a9fbe008c9fbe007b
:101ab0000404be000605be00809fbe00829fbe00db
:101ac00063000700040678000800be000a01be009b
:101ad0005f000700840678004f03be004f02be007f
:101ae0008d4f76007fb0970013003300f0ff2f007a
:101af0008b8f6b0006003b000d0666000c00a700f4
:101b00000a00370007f0a600100020000a00370086
:101b1000880f5200898f5a008a0f5b008b8f5b0001
:101b2000030039001000200001003e0000002000ea
:101b300007f0a7000000ea004f06be004f05be00f8
:101b40004f04be0000000600800078005002be0076
:101b50005003be004439de00f700b200f37f2000de
:101b600003016100090032000218e10016003a008a
:101b700085017200830173008381730000082000d7
:101b800015003a0040002000130037008501720064
:101b9000830173008381730005003a0004a8be002e
:101ba00006a8be00100020000b0037000201e9006b
:101bb0000402420085824a0006034b0087834b00e3
:101bc0000748a300f9ff32000740a00004a8be00a8
:101bd00006a8be0020002000800098009200980017
:101be000000006000003be0042fd07006220e10085
:101bf000020032000600be0005000500e507b10046
:101c0000f107b20004f023008480700007f0a70001
:101c100001f0a00024000500e48240001078a30039
:101c200007003200640240001178a3003400be00b7
:101c30001401be00040032000330a70000000600bb
:101c40003500be001501be000330a00000000600f4
:101c500005ff270005826100070032000428e1002b
:101c600001003200240005000600070001003a00d0
:101c7000440005000408050002000700f9ff3a00cf
:101c8000140005006f8261008102700085027100fe
:101c9000850272000000060032c2bf0061006000d1
:101ca000000006008001eb000200370061f07900bf
:101cb0008301e800828f5100fcff3a00000006001b
:101cc000889fbe000004be00060037000804e8003c
:101cd0000000fb0089007800cf000700e10f400002
:101ce00004003200184078000004e000f7ff3a00da
:101cf0000000eb004f04be0000000600881f7800c3
:101d0000a1fa2000eeff070000047800a1fa2000ed
:101d1000a0002000c0000700080078004f047800f1
:101d2000000006000000fa00cfb897006881570055
:101d3000a0fa2000990107000080fa0000000600c8
:101d40008001eb0002003700817178008301e80018
:101d5000828f5100fcff3a0000000600a1fa20002b
:101d6000ad00370080017800000178003140780034
:101d7000005978000004e000fcff3a0003007800fe
:101d800000000600881f78000004780030009000f2
:101d90000008a30007003200800078000120b20094
:101da00004003a0011049800a8009000010c78008b
:101db000170037000018a300190032000098a30094
:101dc00017003200a80090000100e000140032006b
:101dd000180190000200e00011003200480090005d
:101de000e5f9070098009000810f500003003200d1
:101df000380090000003b300300498000000eb00ae
:101e00001004980028009000000c78003800900022
:101e10000058a300020032000080eb0001003700f0
:101e20000000eb004f04780000000600104178002d
:101e3000814f5100040032000000e8000204e0007d
:101e4000faff3a000000eb000000060000017800f5
:101e500000c2b300010037000201e80092407800a0
:101e600080cf5000fcff3200e9cf5000faff320073
:101e7000d0c2b30080cf500003003a000201e80056
:101e800014c0b300050037000042eb00b0c2b3003d
:101e900080cf500001003a000201e8008000eb0012
:101ea00005fd2f00040037006a08b90000804100da
:101eb000850040000201e8009201fb00058041001e
:101ec000e90f5000f8ff36000404e0000100320082
:101ed0008100ea000100780000000600889fbe0033
:101ee0008a9fbe008000780000c2b3000100370066
:101ef000890078008104780039447800804f5400cc
:101f0000fbff3200e94f5400f9ff3200d0c2b300aa
:101f1000804f540004003a00194478008184e8009e
:101f20001ac0b300060037000045eb00b0c2b30092
:101f3000804f540002003a00194478008184e80080
:101f40006022b8000a003700a20020000300200031
:101f50000400be0082f907000b4144000281fb002f
:101f600003002000000241008182490039447800ca
:101f70000880fb000bfd2f000b004000e90f500014
:101f8000f1ff36000a04e000020032006002120095
:101f9000e0821a000400be004f05be004f04be00e0
:101fa00000000600800078003004e000feff3a00e8
:101fb000010050000000e900000006000c00fa00db
:101fc000889fbe0000047800cfb09700f0ff270084
:101fd000d0bf9f008004eb0099bf9f0088bf9f0087
:101fe000a8bf9f00200c2000b0bf9f007881570041
:101ff00070805700e90007000fb897000948780083
:102000000fb8970008045000080078004f04be0085
:102010000080fa0000000600889fbe0000017800e2
:1020200001047800b10090000118a3003d003200c7
:102030000198a30003003a00180090000000e0009f
:1020400038003a000190a000310498008204780022
:10205000f90fb200180090000000e00002003a0002
:1020600028009000000c7800ea8f540006003a0027
:10207000380090000078a30003003a008800780040
:10208000d0002000e4ff0700980090005800900066
:10209000808f50000b0032000100e800100498000f
:1020a0001800780009587800000c780011c0b300bf
:1020b00060fc200001487800ea8f540006003200de
:1020c00019003700880078000940780019000700df
:1020d0008004780014003700380090000088a300c6
:1020e0001100320018019000a800900048009000f4
:1020f00021f9070098009000810f50000400320081
:10210000380090000003b300300498008084eb0096
:102110000000eb001004980028009000000c7800ec
:10212000010037008084eb00090078004f04be00f6
:10213000000006000200fa00889fbe00a0ff9f007a
:1021400001047800b1009000810478000904b20015
:10215000020032000000fb00360037000118a30027
:1021600005003a000103b3003104980019049800f7
:102170000080eb002f003700580090000000e000c6
:1021800006003a004800900012002000e680570048
:10219000f9f807001904980024003700280090007f
:1021a0000000e00008003a0020fc20002004980015
:1021b000000c7800200020005004980010049800c3
:1021c0000130a0003104980018019000a800900090
:1021d00048009000e8f8070028009000000c780004
:1021e0000080eb001004980018007800aff897000a
:1021f00001587800000c78002ff89700ea4f500043
:102200000a003a00380090000088a300070032005e
:1022100018019000a800900048009000d6f8070030
:1022200019049800a8009000010c7800aff89700fe
:102230000100fb004f04be000080fa000000060011
:10224000889fbe008a1f7800804078000004e0006c
:1022500021003d008040ea00d0c6b30080cf50008e
:10226000090034008104fb0042062000110009002f
:102270008204d80000017800010078004311dd00dd
:102280002ad720001f0037000100fb0023d72000c1
:1022900039003700a2002000110009000200d80018
:1022a00000017800010078004311dd0003014100c6
:1022b0004300dd00030040003002be002003be00ea
:1022c00042209000d2209000f221900062219000e4
:1022d0009dfb07002e003700d0c6b30080cf500012
:1022e000230034008104fb00420620001100090095
:1022f0008204d80000017800010078004311dd005d
:102300002ae220000a014100a80020001100090073
:102310000800d8004300dd000a0040004022900081
:10232000d022900060239000f0239000028890005b
:1023300092889000b28990002289900082fb070069
:10234000801f780001027800110009008804d8007d
:102350000102fd004f0078000402fb004322dd0073
:102360000a0242005403be004402be00d8ff3700f8
:102370000100fb0023e22000eacf5000c5ff3c0033
:102380004300dd00030040005001be004000be00dd
:102390004f0578004f04be00000006008f03b00018
:1023a000889fbe008a9fbe008c9fbe008e1f780053
:1023b000e0b79f00f1b79f0082bf9f000000eb00d5
:1023c000a0b79f00e60437008001eb0050c2b300c5
:1023d00080cf5000090032000100fb00efb09700f1
:1023e0000dff0700e10f4000dd043200afb09700a1
:1023f0008100e800a1b79f00d90437007fb19700a2
:1024000092407800d0c2b30080cf50000c00320060
:1024100007003c006d40500080cf50000d0032009e
:102420006b40400080cf500019003a000e0037008a
:1024300000c3b30080cf500015003a000f003700f2
:102440000330a0007fb297000402e800f4b79f00b9
:10245000eaff37000300a000ffb297008502e80002
:10246000f5b79f00e5ff37000310a0007fb6970087
:102470000c06e800fcb79f00e0ff37000320a00037
:102480007fb097000000e800f0b79f00dbff370047
:102490000318a300010032000300a1000338a300c9
:1024a000010032000320a1000100fb0002fd2f000b
:1024b00002004000e90f500010003e008000eb00d9
:1024c000c1b79f00020278004fb197006a10b900af
:1024d000ffb297001501fb0000014100040141001b
:1024e000c2b79f005500fb00f5b79f0004004000f5
:1024f000e90f50000d003e00f3ff37000006eb002f
:10250000ccb79f00a0c2b30080cf500007003a00b4
:102510000fb89700c000780080bf9f00c1b79f0030
:102520007fb197000201e800f2b79f00e0c2b3005c
:102530007fb29700944f100021003a008306780084
:102540000de0a0008400e80064405000914f1000ae
:1025500004003200f1b79f008002eb00b5b79f0086
:10256000100037000fbe97004c0078008cbf9f0012
:10257000b0b79f00ffb097008180e800f1b79f00df
:10258000130037003fb297006a20b90000004100f5
:1025900003004000b0b79f00ffb297008502e8003b
:1025a000f5b79f007fb697001c01fb0003fd2f00cd
:1025b00003004100e90f5000f2ff3600040037002d
:1025c000830678000dc0a0000000eb00b0b79f00ac
:1025d0007fb19700b2407800f2b79f00c17f9f00a3
:1025e000c0c6b30080cf50002700320014003c006a
:1025f0006840500080cf50009d00320009003c0030
:102600006c40500080cf5000290032006b404000e9
:1026100080cf5000720032000104e0005604320006
:102620008e00370060c6b30080cf50001c0032001f
:102630006340400080cf500088003a008c00370093
:1026400030c7b30080cf50001c00320007003c00b0
:102650006440500080cf5000130032000040e8007a
:1026600080cf50007d003a001100370050c7b30002
:1026700080cf50007d0032006340400080cf50008a
:1026800076003a000b003700000028000d48a30038
:1026900001003a000001200080867600ccff370060
:1026a0000da0a000720037000d60a0007000370080
:1026b0000d50a0000d70a0006d0037008fb997007d
:1026c0004300780083bf9f00000478000000e00012
:1026d00001003a0028f720008004eb0001003700d9
:1026e0008104e80089007800088044001004e000bc
:1026f000fbff3a003fb297000400e0000300320005
:10270000890f520001003100840478000007eb00bb
:10271000cfb29700898f520001003600098752001e
:102720004368de00e106600019003a000d067800fb
:1027300009003700efb097000002200036fe0700c6
:10274000e10f4000030032002fb097000000e800c6
:10275000a0b79f000c06e8008e0f5600f5ff3a0068
:102760000087eb000a003700880078003100fb008a
:1027700001047800efb0970027fe0700e10f40004a
:1027800003003200afb097008100e800a1b79f00be
:102790000900e90080047800e10f4000f2ff3a00f0
:1027a0000006eb000d00e0000a003a00ec033700e1
:1027b000efb097000002200017fe0700e10f400075
:1027c000030032002fb197000201e800a2b79f007a
:1027d0000c06e8008e0f5600f5ff3a00e0033700c4
:1027e0008fb997004300780083bf9f00cf80de0041
:1027f00001017800820178000205be000004be00dd
:102800000203be000002be004822de00482edd00aa
:1028100004027600c47f9f000d48a3000a00320026
:102820000404e00008003200e14f420006003200dc
:10283000d1fb2f0001804700044878001840980021
:102840002900200002003700d07f9f0019002000df
:10285000d2fb2f0002844700a6ff3700c3fb2f00e6
:102860000384470019002000a2ff37000d0cb300bd
:102870000070200000826600270232000dc8a3000d
:102880000200320064002000b4b79f000d48a3008e
:10289000050032000fba97004401be004400be009c
:1028a00084bf9f00040037008fba97004500be0028
:1028b00085bf9f0099fa0700e0af9f00f1af9f002e
:1028c00082b79f0093b79f006022b8006033b800c2
:1028d0006fa89700ffa897000fb197009fb19700ce
:1028e000adfa07000000e0000a003d006fa8970065
:1028f000ffa897000fb197009fb1970003f0a200c7
:10290000e0af9f00f1af9f0082b79f0093b79f0099
:102910003d00b3000000eb0080a79f006022b800dc
:102920006033b8006fa89700ffa897000fb1970019
:102930009fb197009dfa07000000e00034003200cc
:102940006fa89700ffa897000fb197009fb197005d
:102950009bfa070003fc2f0003814700c3fa07001e
:102960000fa097000000e9006300b900a20020005a
:10297000110009000200d8008000fd0081a79f001f
:102980000100e00002003d000100e90080a79f0077
:102990000fa497000840ea0029fe07006faa9700dd
:1029a000ffaa97000fb397009fb39700e6f90700bf
:1029b000a0af9f00b1af9f00c2af9f00d3af9f00f9
:1029c0006022b8000600200007ff230072fa07000b
:1029d0000000e00002003d000800e9000b003700a5
:1029e0006022b80006002000470224002fa89700ac
:1029f000bfa897004fa99700dfa997009efa07008c
:102a00000000e000020035000800e80080a79f00f9
:102a10003fb29700f80f520057003c00d0c6b300f9
:102a2000804f5200290036000485fb00420620003a
:102a3000110009000285d800000178000104780027
:102a40004311dd002bd720000b0141006022b800ac
:102a50000600200007fe2300028890009288900064
:102a6000b289900022899000b7f90700a9002000e0
:102a7000809fbe00110009000984d800000478007e
:102a80004f00be004344dd000b0444004822900088
:102a9000d822900068239000f8239000aaf907003c
:102aa000801f780001027800110009000985d80014
:102ab0000102fd004f0078004322dd000b024200be
:102ac0005403be004402be001f0037000480fb0018
:102ad00029d72000ea4f520014003600a20020003f
:102ae000110009000280d80000017800010478007c
:102af0004311dd00090141006022b80006002000fa
:102b000007fe230042209000d2209000f221900086
:102b1000622190008cf907004344dd000904440061
:102b20003802be002803be00070037004300dd0066
:102b3000090040006022b8000600200007fe2300c4
:102b40005001be004000be007ff907000002be0039
:102b50000203be006fa89700ffa897000fb197006f
:102b60009fb1970049fa0700e0af9f00f1af9f00c7
:102b700082b79f0093b79f000fa49700e90f5400fe
:102b800015003c006022b8006033b8006fa89700c1
:102b9000ffa897000fb197009fb1970003fa0700b5
:102ba0000000e000320032006fa89700ffa89700f5
:102bb0000fb197009fb19700b1fa0700e00f5000e6
:102bc000e08f5800e00f5900e08f590028003a00cc
:102bd000e10f5400260034000400200005002e0000
:102be000b6e02200170124002fa89700bfa8970085
:102bf0004fa99700dfa99700e7f907000000e00060
:102c000002003d00730054000100370072005400c0
:102c100080a79f000fc0970089fd0700a0af9f000d
:102c2000b1af9f00c2af9f00d3af9f000002be00b4
:102c30000203be006fa89700ffa897000fb197008e
:102c40009fb19700bffa07008dfa07000205be008a
:102c50000004be006000b8006011b800a0a79f008b
:102c6000b1a79f00c2a79f00d3a79f002e003700e7
:102c70006fa89700ffa897000fb197009fb197002a
:102c80007ffa07000205be000004be00e00f5000fe
:102c9000e08f5800e00f5900e08f59000200350026
:102ca00002fb070013003700100020000100200085
:102cb0006011b80008006000898060000a016100ae
:102cc0008b8161008b03d1000a83d3008982d300fa
:102cd0000882d3000000720081807200020173003c
:102ce00083817300f1fa07000002be000203be00f8
:102cf000e6f907000002be000203be006fa89700bd
:102d0000ffa897000fb197009fb197001efb070027
:102d1000a0a79f00b1a79f00c2a79f00d3a79f00b5
:102d20000000eb0080a79f0014c0b30025ed200039
:102d30000b0037000400fb004300dd0005004000ed
:102d40005001be004000be000040e10001c8e100ab
:102d500002d0e10003d8e100030039000442e8009a
:102d6000f44f5200f3ff3a00c47f9f000400fb00c1
:102d7000bfb09700008040008fa097000100400086
:102d80004fb1970000075100bfb197000300e0006a
:102d9000010032000e07e900638066000100320086
:102da0000e07e9000d28a30026003200e18066002e
:102db0000d18a3000c003200d00220000100e0003a
:102dc00001003a000080e900efb0970092fc070094
:102dd000e10f4000180032002fb297000402e80013
:102de000a4b79f00140037000100e0001200320079
:102df000efb097000002200087fc0700e10f4000c1
:102e00000d003200afb297008502e800a5b79f0021
:102e100009003700efb09700000320007efc070098
:102e2000e10f4000030032002fb697000c06e800c7
:102e3000acb79f000e07e9000e00e000f5ff3c0074
:102e40003d0037000d38a3000a0032000b003700a8
:102e5000efb09700000220006ffc0700e10f400078
:102e6000030032002fb097000000e800a0b79f00d9
:102e70000e07e9000e00e000f5ff3c00e18066006f
:102e80000d18a3000c003200d00220000100e00069
:102e900001003a000080e900efb097005efc0700f7
:102ea000e10f400024003200afb097008100e8003d
:102eb000a1b79f00200037000100e0001e00320093
:102ec000efb097000002200053fc0700e10f400024
:102ed000190032002fb197000201e800a2b79f004d
:102ee000150037000000fb004300dd0021ed20004d
:102ef000010040003002be002003be000800be00fa
:102f00000a01be008bf60700a40020000500200087
:102f10006033b8008ef607000003b000efb09700f2
:102f20003dfc0700e10f400003003200afb1970005
:102f30008301e800a3b79f004f7a97000440e9009f
:102f4000c07f9f00e14f4000e6ff3a000b003700d2
:102f5000efb09700000320002ffc0700e10f4000b6
:102f600003003200afb297008502e800a5b79f00ca
:102f70000fa097000000e90080a79f000fa0970016
:102f80000000e000f2ff3c003fb6970020c1b30014
:102f9000f20f560001003c006fe09700c07f9f00d9
:102fa000cf7897000100fb003fb19700000051006f
:102fb000e0a79f000104e00008003200efb0970096
:102fc000e002200014fc0700e10f40000300320083
:102fd000afb197008301e800a3b79f004f78970037
:102fe00097fc07000002be000203be002fa097005e
:102ff000bfa097004fa19700dfa1970052f80700ec
:103000009ff907001e0037000000fb004300dd00b1
:103010002ced20000c0040003002be002003be005a
:103020000800be000a01be0042f60700a40020000e
:10303000050020006033b80045f607000003b0002b
:10304000efb09700f4fb0700e10f400003003200ef
:103050002fb297000402e800a4b79f00cf7a970030
:103060000500fb004300dd000c0040003002be0004
:103070002003be000800be000a01be0034f60700af
:103080000205be000004be004f7e97000c40e90020
:10309000c07f9f00e14f4000dbff3a000006eb00dd
:1030a00009003700efb0970000032000dafb0700ab
:1030b000e10f4000030032002fb097000000e8004d
:1030c000a0b79f000c06e800efa09700810f560004
:1030d000f4ff3a000d38a300a10132000e00e00019
:1030e0009f0134000006eb00efb0970000022000c3
:1030f000c9fb0700e10f4000030032002fb1970029
:103100000201e800a2b79f000c06e8008e0f5600ef
:1031100093013200f4ff37000d007800000cb2007c
:1031200028003a000d00e00005003d008fb997002f
:103130004305be004304be0083bf9f001400370058
:103140000d48a3000b0032000fba97004400be00e8
:1031500084bf9f004f89de00cf91de000002be00d9
:1031600002037800820378000605be000404be0056
:10317000070037008fba97004500780085bf9f0091
:1031800000047800cfc4de00090578008a057800c5
:10319000e00f5400e08f5c00e00f5d00e08f5d0009
:1031a00020003d003d00b3006000b8006011b80091
:1031b00008045000898458000a0559008b8559007d
:1031c000180037000d00e00005003d000fbe97001d
:1031d0004c05be004c04be008cbf9f0011003700a0
:1031e0000d48a300080032008fba97004500be00ca
:1031f00085bf9f0004017800840178000205be00ad
:103200000004be00070037000fbe97004c00780096
:103210008cbf9f0000047800090020000a002000f5
:103220000b0020003fb097000000e00007003a00cc
:10323000e00f5400e08f5c00e00f5d00e08f5d0068
:1032400002003a0011002000b1b79f000d0778007e
:103250000e0cb20000042000800f57002f00320037
:1032600003003c000e00e000070032003f00370082
:1032700000082000800f570014003200000c2000ce
:10328000800f570039003a0014c0b30025ed20002c
:103290000b0037000400fb004300dd000500400088
:1032a0005001be004000be000040e10001c8e10046
:1032b00002d0e10003d8e1002b0039000442e8000d
:1032c000f44f5200f3ff3a002700370000012000be
:1032d000010020006011b80014c0b3000040e100fc
:1032e00001c8e10002d0e10003d8e1001e0039006e
:1032f000450020000000d0008180d2000281d20071
:103300008381d2008502e900faff3a000442e80016
:10331000f04f5200f1ff3a00130037008000200008
:10332000010020006011b80014c0b3000040e100ab
:1033300001c8e10002d0e10003d8e1000a00390031
:103340003c0020000000d0008180d2000281d20029
:103350008381d2000c06e900faff3a000442e8003b
:10336000f54f5200f1ff3a00c47f9f00cf789700dd
:103370000100fb003fb19700820f500002003d00aa
:10338000c27f9f0004003700bfb19700808f5100bb
:1033900001003d00b0b79f004fb297000400e0006d
:1033a0000400320063806600020032000402e9007b
:1033b000c4b79f000de8a3000b003200cfb2970006
:1033c0003fb697008c8f520003003c000000eb00da
:1033d000c0b79f0004003700cfb097003fb19700ff
:1033e00082805000c1b79f00cf7997000300fb0097
:1033f0000002eb0094a79f00cfb29700808f52008d
:10340000020034000080520090a79f000d28a30006
:1034100037003200e18066000d18a3000c00320076
:10342000d00220000100e00001003a000080e90025
:10343000efb09700f8fa0700e10f40000e003200ed
:103440002fb697000c06e800acb79f000a003700c3
:103450000100e00008003200efb0970000022000f9
:10346000edfa0700e10f4000030032002fb0970093
:103470000000e800a0b79f009fa097000100e000b7
:103480000f0032000006eb00efb0970000032000b1
:10349000e1fa0700e10f4000030032002fb197006e
:1034a0000201e800a2b79f000c06e8009fa1970068
:1034b000830f5600f4ff3a000002eb0094a79f0030
:1034c000bfb29700c328dd00a0ec20008080400040
:1034d00091af9f004228dd006400500080af9f0044
:1034e0006328b900f0a79f006306500082003700f0
:1034f0001fa697000c00e0001100320068806600f3
:103500000f003a0000067800efb09700000220009c
:10351000c1fa0700e10f4000030032002fb097000e
:103520000000e800a0b79f000c06e8009fa09700ed
:10353000810f5600f4ff3a000001eb0092a79f00b4
:10354000e18066000d18a3000c003200d0022000bc
:103550000100e00001003a000080e900efb09700b0
:10356000adfa0700e10f4000d5ff3200afb1970080
:103570008301e800a3b79f00d1ff37000100e000fe
:10358000cfff3200efb0970000022000a2fa070040
:10359000e10f4000caff32002fb297000402e8009a
:1035a000a4b79f00c6ff370000042000800f57001b
:1035b0003000320003003c000e00e0000700320043
:1035c0003d00370000082000800f57001100320036
:1035d000000c2000800f570037003a001fa897000a
:1035e0003002be002003be000800be000a01be007b
:1035f000d0f40700a4002000050020006033b800cc
:10360000d3f4070004c3b30004424000c47f9f000a
:103610002900370095f72000d5b79f000d58a3006b
:1036200002003a00a0f82000d0b79f00140020004c
:10363000050020006033b8008fa897008100e900e2
:10364000050033000402d0008582d2000683d20038
:103650008783d200f9ff37000800be000a01be00d0
:10366000b4f407006f0060005fb19700624078001b
:103670001000370014002000050020006033b8005f
:103680008c0178008301e900050033000402d000ba
:103690008582d2000683d2008783d200f9ff3700eb
:1036a0000800be000a01be00a2f4070067406000e7
:1036b0000043b000c07f9f004f7a97000400fb00da
:1036c000efb0970054fa0700e10f4000030032000a
:1036d000afb297008502e800a5b79f001fa897002a
:1036e0006800500090af9f008fa89700e4805000c2
:1036f00081af9f0063065600d0ff2f003fb19700b7
:103700000090b900ffa197000080410063005000c5
:10371000800f5600a4ff3a000d38a30010003200bd
:103720001fa297000400e0000d0034000006eb002b
:10373000efb097000002200037fa0700e10f4000c9
:1037400003003200afb297008502e800a5b79f00e2
:103750000c06e8001fa09700800f5600f4ff3a0007
:103760007fb19700b2407800f2b79f00c17f9f0001
:103770000104e00014fb3a002fb097004f077800d7
:103780004f06be004f05be004f04be008f03b100c0
:04379000000006002f
:020000040000fa
:10000800ac020000ac020000ac020000ac02000030
:10001800ac020000ac020000ac020000ac02000020
:10002800ac020000ac020000ac020000d0230000cb
:10003800ac020000ac020000ac020000ac02000000
:10004800ac020000ac020000ac020000ac020000f0
:10005800ac020000ac020000ac020000ac020000e0
:10006800ac020000ac020000ac020000ac020000d0
:10007800ac020000ac020000ac020000ac020000c0
:10008800ac020000ac020000ac020000ac020000b0
:10009800ac020000ac020000302b00007c290000fc
:1000a800ac020000ac020000ac020000ac02000090
:1000b800ac020000ac020000ac020000ac02000080
:1000c800ac020000ac020000ac020000ac02000070
:1000d800ac020000ac020000ac020000ac02000060
:1000e800ac020000ac020000ac020000ac02000050
:1000f800ac020000ac020000ac020000ac02000040
:10010800ac020000ac02000050290000ac02000064
:10011800ac020000ac020000ac020000ac0200001f
:10012800ac020000ac020000ac020000ac0200000f
:10013800ac020000ac020000ac020000ac020000ff
:10014800ac020000ac020000ac020000ac020000ef
:10015800ac020000ac020000ac020000ac020000df
:10016800ac020000ac020000ac020000ac020000cf
:10017800ac020000ac020000ac020000ac020000bf
:10018800ac020000ac020000ac020000ac020000af
:10019800ac020000ac020000ac020000ac0200009f
:1001a800ac020000ac020000ac020000ac0200008f
:1001b800ac020000ac020000ac020000ac0200007f
:1001c800ac020000ac020000ac020000ac0200006f
:1001d800ac020000ac020000ac020000ac0200005f
:1001e800ac020000ac020000ac020000ac0200004f
:0801f800ac020000ac020000a3
:020000040000fa
:10020800ac020000ac020000ac020000ac0200002e
:10021800ac020000ac020000ac020000ac0200001e
:10022800ac020000ac020000ac020000d0230000c9
:10023800ac020000ac020000ac020000ac020000fe
:10024800ac020000ac020000ac020000ac020000ee
:10025800ac020000ac020000ac020000ac020000de
:10026800ac020000ac020000ac020000ac020000ce
:10027800ac020000ac020000ac020000ac020000be
:10028800ac020000ac020000ac020000ac020000ae
:10029800ac020000ac020000302b00007c290000fa
:1002a800ac020000ac020000ac020000ac0200008e
:1002b800ac020000ac020000ac020000ac0200007e
:1002c800ac020000ac020000ac020000ac0200006e
:1002d800ac020000ac020000ac020000ac0200005e
:1002e800ac020000ac020000ac020000ac0200004e
:1002f800ac020000ac020000ac020000ac0200003e
:10030800ac020000ac02000050290000ac02000062
:10031800ac020000ac020000ac020000ac0200001d
:10032800ac020000ac020000ac020000ac0200000d
:10033800ac020000ac020000ac020000ac020000fd
:10034800ac020000ac020000ac020000ac020000ed
:10035800ac020000ac020000ac020000ac020000dd
:10036800ac020000ac020000ac020000ac020000cd
:10037800ac020000ac020000ac020000ac020000bd
:10038800ac020000ac020000ac020000ac020000ad
:10039800ac020000ac020000ac020000ac0200009d
:1003a800ac020000ac020000ac020000ac0200008d
:1003b800ac020000ac020000ac020000ac0200007d
:1003c800ac020000ac020000ac020000ac0200006d
:1003d800ac020000ac020000ac020000ac0200005d
:1003e800ac020000ac020000ac020000ac0200004d
:0803f800ac020000ac020000a1
:020000040000fa
:103794000a0a00000a2a00002a2a00002055000014
:1037a4005255000043480000414d000049410000cb
:1037b4004e490000452e00002e2e0000004500005a
:1037c4006e6b00006f6400006572000020760000dc
:1037d400312e00003620000032300000313000006d
:1037e4002d3200003031000033200000546f0000ff
:1037f4006d6500006b2000004a610000776f0000d7
:10380400727300006b69000000320000313a00005e
:10381400303700003a340000330000004e6f0000df
:1038240076200000203600002032000030310000f5
:10383400330000004b6f00006d700000696c0000e5
:10384400616300006a6100003a20000025730000f3
:103854002040000020250000730a00000a00000038
:10386400557300007461000077200000706100004f
:10387400726100006d650000747200003a2000005f
:103884002770000061720000616d00003d77000048
:1038940061720000746f0000736300002720000051
:1038a4006c750000622000007770000069730000ee
:1038b4007a20000027720000756e000027000000c7
:1038c4005a610000747200007a7900006d61000092
:1038d4006e6900006520000074720000616e0000d3
:1038e400736d0000697300006a69000020640000c1
:1038f400616e000079630000683a00002027000030
:103904002b2b00002b2700000a000000446f00004e
:1039140073740000657000006e6500002070000084
:103924006f6c000065630000656e00006961000053
:103934003a00000020200000696e00006974000055
:103944000a0900002d200000726500007374000055
:103954006172000074200000757200007a6100003a
:10396400647a0000656e00006961000000200000b8
:1039740020720000756e00000a0900002d2000006e
:103984007572000075630000686f00006d690000c7
:10399400656e000069650000207000006f6d000016
:1039a40069610000727500002070000072650000fb
:1039b400646b00006f7300006369000020690000fd
:1039c400207000006f7a0000796300006a690000cb
:1039d40000200000206400006163000074650000a2
:1039e400737400000a0900002d20000074720000a6
:1039f400796200002074000065730000746f000099
:103a0400776100006e6900006120000070720000a0
:103a14007a650000747700006f7200006e69000020
:103a24006b610000204400002f41000000200000d2
:103a340020660000707200000a0900002d200000ba
:103a440054720000796200002046000041530000d7
:103a540054200000504f0000534900005449000016
:103a64004f4e000020520000454100004400000079
:103a740020200000737900006e6300000a09000032
:103a84002d200000547200007962000020730000b1
:103a9400796e000063680000726f00006e690000b8
:103aa4007a610000636a0000692000006b61000015
:103ab4006d65000072790000002000002073000092
:103ac400796e0000632000007465000073740000c8
:103ad4000a0900002d2000005472000079620000e1
:103ae40020730000796e000063680000726f0000ac
:103af4006e6900007a610000636a000069200000ba
:103b04006b6100006d6500007279000020280000e0
:103b140054450000535400002900000020200000f8
:103b24007365000074200000776e00006473000069
:103b3400697a0000653d0000787800007820000074
:103b4400283100002d360000342900000a09000045
:103b54002d20000077690000656c00006b6f000089
:103b640073630000206f00006b6e00006120000092
:103b7400646f00002075000073720000656400002b
:103b84006e690000616e000069610000206f000032
:103b9400646300007a790000746f000077200000ed
:103ba40070720000656400006b6f000073630000b6
:103bb40069000000202000007365000074200000ec
:103bc400696d0000617800003d780000787800009d
:103bd40078200000283000002d3200005e33000001
:103be400302900000a0900002d200000696c000043
:103bf4006f73000063200000696d000070750000a1
:103c04006c7300006f770000202f00002035000047
:103c1400306d000073200000707200007a7900009b
:103c24002036000030300000525000004d000000eb
:103c3400202000007365000074200000646100000f
:103c4400633d0000787800007820000028300000f0
:103c54002d34000030390000352900000a09000025
:103c64002d20000075730000746100007769000066
:103c7400656e000069650000207700006172000035
:103c8400746f00007363000069200000707200000c
:103c94007a650000747200006f7700006e6900009e
:103ca4006b610000204400002f4100000020000050
:103cb400207300006574000020730000707700001a
:103cc40069640000746800003d78000078780000a2
:103cd40020280000302d0000363500006533000038
:103ce400290a0000092d0000206400006c75000002
:103cf400676f0000736300002073000079670000a1
:103d04006e6100006c75000020730000796e000085
:103d140063680000726f00006e7a00006163000047
:103d2400796a00006e650000676f0000205b000088
:103d34007831000030300000757300005d00000031
:103d440020200000736500007420000073640000ec
:103d5400656c0000746100003d7800007878000014
:103d640020280000302d00003139000039390000ce
:103d7400392900000a0900002d200000707200009b
:103d84007a65000072770000612000006d69000010
:103d9400656400007a7900006b6f00006c650000b8
:103da4006a6e0000796d00006920000073790000dc
:103db4006e630000687200006f6e0000697a000094
:103dc400616300006a6100006d6900002028000042
:103dd400696d0000702e0000206500006e6b00000d
:103de4006f6400006572000061290000002000007b
:103df400207300006574000020500000782000004b
:103e0400287800003d3100002d360000290a00000a
:103e1400092d0000205700006c610000637a000047
:103e2400656e00006965000020670000656e000093
:103e340065720000617400006f7200006120000070
:103e4400312d0000360000002020000072650000c3
:103e5400732000005078000020280000783d000006
:103e6400312d0000362900000a0900002d20000031
:103e740057790000616300007a6500006e690000f4
:103e840065200000676500006e6500007261000037
:103e9400746f000072610000203100002d360000b4
:103ea40000730000796e0000630000003e200000f3
:103eb400006900006e690000740000007275000063
:103ec4006e0000007265000073650000740000005d
:103ed40073650000747e0000776e00006473000058
:103ee400697a000065000000416b000074750000f1
:103ef400616c00006e6100002077000069650000bd
:103f04006c6b00006f730000632000006f6b000097
:103f14006e6100003a200000256400000a000000e1
:103f24004e6f000077610000207700006965000093
:103f34006c6b00006f730000632000006f6b000067
:103f44006e6100003a200000256400000a50000061
:103f54006f700000727a0000656400006e690000f2
:103f6400652000006f640000637a0000797400002b
:103f74007920000070720000656400006b6f00001f
:103f840073630000692000007a6f000073740000fe
:103f9400616e0000612000006e610000647000002a
:103fa40069730000616e0000652e00000a000000c5
:103fb40073650000747e0000696d00006178000084
:103fc400004100006b740000756100006c6e00001d
:103fd40061200000696c00006f7300006320000022
:103fe400696d0000707500006c7300006f7700004d
:103ff4002f350000306d0000733a000020250000ca
:104004006c6400000a0000004e6f0000776100003d
:10401400206900006c6f00007363000020690000d9
:104024006d700000756c0000736f0000772f000046
:10403400353000006d7300003a200000256c00004c
:10404400640a0000006400006163000074650000fd
:1040540073740000005400007279000062200000b4
:104064007465000073740000752000007072000015
:104074007a650000747700006f7200006e690000ba
:104084006b61000020440000414300002e0a000040
:104094004162000079200000707200007a6500001f
:1040a40072770000616300002c2000006e61000044
:1040b40063690000736e0000696a000020640000f8
:1040c4006f7700006f6c00006e790000206b0000b9
:1040d4006c61000077690000737a00002e2e0000e6
:1040e4002e0000006670000072000000526f000095
:1040f4007a7000006f6300007a6500006369000055
:1041040065200000747200007962000075200000d0
:104114004641000053540000205000004f5300005b
:1041240049540000494f00004e2000005245000051
:104134004144000020280000626900006e61000014
:1041440072790000292e00002e2e00000044000089
:104154004f4e00004520000028250000642900007f
:104164000a00000073650000747e00007000000007
:104174004e690000657000006f70000072610000fd
:10418400776e0000792000006e7500006d650000f8
:1041940072200000676500006e6500007261000017
:1041a400746f0000726100003a2000002564000072
:1041b4000a000000476500006e650000726100009f
:1041c400746f000072200000256400002077000056
:1041d4006c610000637a00006f6e0000792e0000ad
:1041e4000a00000072650000737e00007000000089
:1041f400476500006e65000072610000746f000086
:10420400722000002564000020770000796c000013
:10421400616300007a6f00006e7900002e0a0000ce
:1042240000730000657400007e6400006163000098
:10423400004100006b740000756100006c6e0000aa
:104244006120000077610000727400006f73000049
:104254006320000044410000433a00002025000090
:10426400640a0000004e00006f7700006120000027
:1042740077610000727400006f7300006320000017
:1042840044410000433a000020250000642000005f
:10429400286300006d6400003d30000078250000b4
:1042a40030340000582900000a0000007365000043
:1042b400747e00007370000077690000647400006d
:1042c40068000000416b000074750000616c000020
:1042d4006e610000206400006c750000676f0000d0
:1042e40073630000206900006d700000756c0000ad
:1042f400737500003a200000256400007830000047
:104304002e3100006d7300000a0000004e6f0000a3
:1043140077610000206400006c750000676f000086
:1043240073630000206900006d700000756c00006c
:10433400737500003a200000256400007830000006
:104344002e3100006d7300000a0000007365000048
:10435400747e000073640000656c000074610000ea
:10436400004100006b740000756100006c6e000079
:10437400612000006f6400006c650000676c000041
:104384006f730000632000006d6900006564000025
:104394007a790000206900006d700000756c0000df
:1043a400736100006d69000020730000796e0000e5
:1043b40063680000726f00006e6900007a6100009b
:1043c400637900006a6e0000796d0000693a0000ac
:1043d40020250000640a0000004e00006f770000f2
:1043e400612000006f6400006c650000676c0000d1
:1043f4006f730000632000006d69000065640000b5
:104404007a790000206900006d700000756c00006e
:10441400736100006d69000020730000796e000074
:1044240063680000726f00006e6900007a6100002a
:10443400637900006a6e0000796d0000693a00003b
:1044440020250000640a000000730000796e00005b
:10445400637e00007465000073740000004e000069
:1044640061630000697300006e6900006a20000047
:10447400646f0000776f00006c6e0000792000000c
:104484006b6c000061770000697300007a2c0000f7
:10449400206100006279000020700000727a000040
:1044a40065720000776100006320000074720000f0
:1044b400796200002074000065730000746f0000ce
:1044c400777900002e2e00002e000000526f0000ad
:1044d4007a7000006f6300007a6500006369000071
:1044e40065200000747200007962000075200000ed
:1044f400737900006e630000687200006f6e000044
:10450400697a0000616300006a690000206b0000a2
:10451400616d000065720000792000007a200000bf
:10452400656e00006b6f000064650000726500003a
:104534006d2e00002e2e0000004400004f4e00009f
:1045440045200000535900004e4300000045000080
:104554006e6b00006f64000065720000207a00003a
:1045640061740000727a0000796d0000616e0000d1
:10457400792000006e610000207000006f7a000056
:10458400796300006a6900003a2000002564000095
:104594000a0000004e690000657a00006e610000a8
:1045a4006e650000207000006f6c00006563000001
:1045b400656e0000696500003a20000027250000b0
:1045c400732700000a000000303000003a30000079
:1045d40030300000303a000030300000303000004d
:1045e40030300000303000000a000000252e0000aa
:1045f40031660000005000003d000000636d0000c3
:1046040020200000002500002e330000660000007a
:10461400563d000000720000706d00002020000074
:044624000000000092
:020000040000fa
:10462800881f780000027800f6c9b30005ceb300f1
:10463800e8c7b30007c2b30011417800944178007d
:1046480006404100f94f500001003e00054141007d
:1046580006c04100f94f500001003e0085c14100ed
:104668000204e0000f003200884f510006003a00b3
:1046780087cf510002003200e9cf510007003a000d
:104688000402e800ecff3700834f510002003200bb
:104698000000eb00040037000402e8008100e80095
:1046a800e5ff3700100020004f04780000000600e6
:1046b80080017800c04388007628ef00fa28ef00d0
:1046c800fc28ef000001eb00a187200067006000d4
:1046d80014003a00100037008018eb000100780041
:1046e8008018eb008008eb00e40040008008eb0035
:1046f800e60040008008eb00e80040008008eb007e
:10470800ea0040008008eb00ec0040008008eb0065
:1047180068014100ee004000830f5100eeff3900b0
:1047280000000600830f5100fdff31008018eb00e8
:104738000201e800e10f5000f7ff3200e20f5000dd
:1047480012003200e30f50000e003200e40f500058
:104758000a003200e50f500006003200e60f500054
:10476800020032008018eb000201e8008018eb001c
:104778000201e8008018eb000201e8008018eb0055
:104788000201e8008018eb000201e8008018eb0045
:104798000201e800e0ff37003600f800809fbe0005
:1047a800829fbe00849fbe00869fbe00889fbe0079
:1047b8008a1f78008460a900220f8000726988002f
:1047c800a20be2006d003200505d80000000e000a6
:1047d800040032000000e900505d880001003a0042
:1047e800e842a900605d80000000e000040032009b
:1047f8000000e900605d880001003a00e862a90055
:10480800415d8000810f510006003900205d800065
:10481800505d8800e842a800305d800000804000bc
:10482800405d88000828ef0002c9bf00f14f500022
:10483800ea003a00db003700a0598000800f5100e1
:104848000e00390005003700f2cf500013003a007f
:10485800a0598000800f510003003100b05980003a
:10486800800f5100050031001380fb00d622b700ed
:1048780010002000e05c88000f0037009c0be2006d
:104888000d0032001380fb000080ea00d622b6003b
:104898001000200040408800070037001380fb000c
:1048a800e1cf500002003a00d622b70002003700dc
:1048b8000080ea00d622b6000808e2000e003200a6
:1048c8007059800021b3200005000900b058780015
:1048d8006000b10094027800668042007059880038
:1048e8009c2bef0080598000940f100002003a00c2
:1048f80080b32000705988000e0ce2005e0232007e
:104908000e2cef006a09e200c0013200c401370032
:104918009a2bef0088b32000c25c80006611b900b2
:10492800e1ba200008007800dcf407007859880014
:10493800c05c80006600b90000004400805988000f
:10494800d0d620001080fb000080ea00d622b600f6
:1049580020b3200081b320000500090031587800f9
:10496800e1b320007159880000b32000908f5000f7
:1049780041023a00785988003f02370097e0a800c2
:1049880081698000810f51000400310000e2240099
:1049980001005000020340000100370001035100ec
:1049a80082698800dc6cec00b3438000038141001d
:1049b800640141006587200062827a00d047800048
:1049c800e147800004005000e080580006b17a00fa
:1049d80006004000e0804800d0478800e147880092
:1049e8008301e800b3438800c0438000808f5100f2
:1049f800010039007628ef003a6b80000a00e000d9
:104a080007003200f45c8000055d8000610242000e
:104a1800e0824a00f45c8800055d880016023700d1
:104a2800c243800003002000d0478000e147800097
:104a380006ef07006840800079408000880f50002a
:104a4800898f5800010036000800be00f2ff2000e0
:104a580003002000c0ee07000801be00fbee0700bf
:104a68000001be00f0ff20000001610080408000ce
:104a780001002f00010060000200700080408800e3
:104a8800a209070030698000f30f500003003600c8
:104a98003a69880010002000506988004069800049
:104aa800e90f50000e003600d1c2bf004600de00fc
:104ab800610060000004a2004600dd00112d200006
:104ac800914078000164a10080c070000100780066
:104ad800d1e2b7004a6988001000200060698800a8
:104ae800282dec00262dec00e30137000828ef0004
:104af80072c9bf00f14f500079003a006a003700d0
:104b080080902000f0478800f8ff3700f0478000c9
:104b18001002be001448880025488800a0029000b2
:104b28003548880066004000f04788006c29ef008f
:104b380001488000810f5000ecff3a00f0ff370079
:104b48000808e200f1ff3a00e8ff370068cdbf002f
:104b58000080fb00d622b700f9ff370068cdbf0000
:104b68000080fb000080ea00d622b600f4ff370080
:104b780068cdbf000080fb00d622b70010002000df
:104b8800604b8800eeff370068cdbf000080fb0057
:104b98000080ea00d622b6001000200040408800bd
:104ba800e7ff370020488000800f510003003100e4
:104bb8006c09e200f4ff3a00e1ff3700304880005a
:104bc800800f5100eaff3900f9ff370020488000c4
:104bd800800f5100e6ff3100f8ff3700f24f500018
:104be800faff3200e14f5000dcff3a00d7ff3700f0
:104bf8000828ef00e2c9bf00f14f500079003a00e1
:104c08006a00370080972000704b8800f8ff370053
:104c1800704b80001002be00944b8800a54b8800a2
:104c2800a0029000b54b880066004000704b8800d9
:104c3800dc29ef00814b8000810f5000ecff3a0027
:104c4800f0ff37000808e200f1ff3a00e8ff3700fc
:104c580069cdbf000080fb00d622b700f9ff3700fe
:104c680069cdbf000080fb000080ea00d622b600b4
:104c7800f4ff370069cdbf000080fb00d622b700e3
:104c880010002000e04e8800eeff370069cdbf001d
:104c98000080fb000080ea00d622b6001000200049
:104ca80040408800e7ff3700a04b8000800f51008c
:104cb80003003100dc09e200f4ff3a00e1ff3700ad
:104cc800b04b8000800f5100eaff3900f9ff370030
:104cd800a04b8000800f5100e6ff3100f8ff37003d
:104ce800f24f5000faff3200e14f5000dcff3a006b
:104cf800d7ff37000828ef0052cabf00f14f500015
:104d080079003a006a003700809e2000f04e880043
:104d1800f8ff3700f04e80001002be00144f8800e4
:104d2800254f8800a0029000354f8800660040009b
:104d3800f04e88004c2aef00014f8000810f500090
:104d4800ecff3a00f0ff37000808e200f1ff3a00f4
:104d5800e8ff37006acdbf000080fb00d622b7000d
:104d6800f9ff37006acdbf000080fb000080ea0031
:104d7800d622b600f4ff37006acdbf000080fb00e2
:104d8800d622b7001000200060528800eeff3700de
:104d98006acdbf000080fb000080ea00d622b60082
:104da8001000200040408800e7ff3700204f8000b7
:104db800800f5100030031004c0ae200f4ff3a0072
:104dc800e1ff3700304f8000800f5100eaff3900c3
:104dd800f9ff3700204f8000800f5100e6ff3100b7
:104de800f8ff3700f24f5000faff3200e14f500051
:104df800dcff3a00d7ff37000828ef00c2cabf001f
:104e0800f14f50007c003a006d00370080a520006b
:104e180070528800f8ff3700705280001002be0000
:104e280094528800a5528800a0029000b5528800cc
:104e38006600400070528800bc2aef008152800052
:104e4800810f5000ecff3a00f0ff37000808e2003d
:104e5800f1ff3a00e8ff37006bcdbf000080fb0090
:104e6800d622b700f9ff37006bcdbf000080fb00ea
:104e78000080ea00d622b600f4ff37006bcdbf00f1
:104e88000080fb00d622b70010002000e055880003
:104e9800eeff37006bcdbf000080fb000080ea000a
:104ea800d622b6001000200040408800e7ff3700f7
:104eb800a0528000800f510003003100bc0ae200bc
:104ec800f4ff3a00e1ff3700b0528000800f510034
:104ed800eaff3900f9ff3700a0528000800f510027
:104ee800e6ff3100f8ff3700f24f5000faff3200ba
:104ef800e14f5000dcff3a00d7ff3700e4b2200052
:104f0800d3d620000828ef0021b320009140780074
:104f1800f1cf50004cfe3a0047fe370080ac20002d
:104f2800f0558800f5ff3700f05580001002be00ec
:104f38001456880025568800a0029000355688002f
:104f480066004000f05588002c2bef0001568000c9
:104f5800810f5000e9ff3a00f0ff37000808e2002f
:104f6800f1ff3a00e5ff37006ccdbf000080fb0081
:104f7800d622b700f9ff37006ccdbf000080fb00d8
:104f88000080ea00d622b600f4ff37006ccdbf00df
:104f98000080fb00d622b70010002000605988006e
:104fa800eeff37006ccdbf000080fb000080ea00f8
:104fb800d622b6001000200040408800e7ff3700e6
:104fc80020568000800f5100030031002c0be200b6
:104fd800f4ff3a00e1ff370030568000800f51009f
:104fe800eaff3900f9ff370020568000800f510092
:104ff800e6ff3100f8ff3700f24f5000faff3200a9
:10500800e14f5000dcff3a00d7ff3700da09e20031
:105018001d00320021003700f8478800fbff3700e9
:105028006a29ef0088902000424b80006611b90081
:10503800e1ba20000800780018f30700424b80000e
:105048006611b900020144000248880068cdbf001b
:105058000080fb000080ea00d622b60040488000ad
:105068005148800010488800214888006148800025
:1050780031488800e0902000f0478800820f5000f7
:10508800e2ff3a00e4ff37004a0ae2001d0032005e
:1050980021003700784b8800fbff3700da29ef0042
:1050a80088972000c24e80006611b900e1ba20003e
:1050b80008007800f9f20700c24e80006611b900b6
:1050c80002014400824b880069cdbf000080fb00cc
:1050d8000080ea00d622b600c44b8000d54b800081
:1050e800944b8800a54b8800e54b8000b54b8800a1
:1050f800e0972000704b8800820f5000e2ff3a00d2
:10510800e4ff3700ba0ae2001d0032002100370030
:10511800f84e8800fbff37004a2aef00889e2000df
:10512800425280006611b900e1ba200008007800f8
:10513800daf20700425280006611b9000201440009
:10514800024f88006acdbf000080fb000080ea00a3
:10515800d622b600404f8000514f8000104f880083
:10516800214f8800614f8000314f8800e09e200069
:10517800f04e8800820f5000e2ff3a00e4ff37004b
:105188002a0be2001d003200210037007852880007
:10519800fbff3700ba2aef0088a52000c25580001f
:1051a8006611b900e1ba200008007800bbf20700d8
:1051b800c25580006611b90002014400825288007d
:1051c8006bcdbf000080fb000080ea00d622b6004d
:1051d800c4528000d552800094528800a55288009d
:1051e800e5528000b5528800e0a520007052880082
:1051f800820f5000e2ff3a00e4ff37009a0be2000a
:105208001d003200c2fd3700f8558800fbff37004b
:105218002a2bef0088ac2000425980006611b900a3
:10522800e1ba2000080078009cf20700425980008b
:105238006611b90002014400025688006ccdbf0017
:105248000080fb000080ea00d622b60040568000ad
:1052580051568000105688002156880061568000fb
:1052680031568800e0ac2000f0558800820f5000cd
:10527800e2ff3a00e4ff37004f0578004f04be0014
:105288004f03be004f02be004f01be004f00be00dc
:105298003600f90000400600809fbe008b40a90040
:1052a800d6c2bf000080fb000000d1000004a200ad
:1052b8006140600000404000612d2000914078006e
:1052c8000114a10080c0700001007800d6e2b70088
:1052d800a20be20004003200e862a800205d800012
:1052e800605d8800a82bef004f00be00004006005c
:1052f800809fbe00829fbe0087e0a900660de20085
:1053080016003200c1cd2000914078000180fb00da
:1053180030408800706980002040880001007800d3
:10532800e1ecb70004c8bf00e2ecb70005c8bf0055
:10533800e3ecb7000168800000ce20000080400048
:105348001000fb00a01188008100e80001688800b7
:10535800e48f5000bd003a00ba003700000de200ab
:10536800ae003a00dcccbf000080fb003040880073
:105378007169800021408800d2478000e34780009f
:105388000240880013408800c400de000180fb0052
:10539800e90f50000300340073c3b30003c040009a
:1053a8000200370002c3b30002c04000e0ecb700bf
:1053b80030408000ef4060000180fb00e90f5000a2
:1053c8000300340073c3b30003c040000200370079
:1053d80002c3b30002c04000e1ecb700a0c3b300b1
:1053e800e2ecb70020408000cc00de000180fb002a
:1053f800e90f50000300340073c3b30003c040003a
:105408000200370002c3b30002c04000e3ecb7005b
:10541800204080004800de00ef4060000180fb0073
:10542800e90f50000300340073c3b30003c0400009
:105438000200370002c3b30002c04000e4ecb7002a
:10544800204080004400de00ef4060000180fb0047
:10545800e90f50000300340073c3b30003c04000d9
:105468000200370002c3b30002c04000e5ecb700f9
:1054780020408000ef4060000180fb00e90f5000f1
:105488000300340073c3b30003c0400002003700b8
:1054980002c3b30002c04000e6ecb700a0c3b300eb
:1054a800e7ecb70010408000cc00de000180fb0074
:1054b800e90f50000300340073c3b30003c0400079
:1054c8000200370002c3b30002c04000e8ecb70096
:1054d800104080004800de00ef4060000180fb00c3
:1054e800e90f50000300340073c3b30003c0400049
:1054f8000200370002c3b30002c04000e9ecb70065
:10550800104080004400de00ef4060000180fb0096
:10551800e90f50000300340073c3b30003c0400018
:105528000200370002c3b30002c04000eaecb70033
:1055380010408000ef4060000180fb00e90f500040
:105548000300340073c3b30003c0400002003700f7
:1055580002c3b30002c04000ebecb700004080007b
:10556800cc00de000180fb00e90f5000030034008e
:1055780073c3b30003c040000200370002c3b30086
:1055880002c04000ececb700004080004800de009c
:10559800ef4060000180fb00e90f50000300340079
:1055a80073c3b30003c040000200370002c3b30056
:1055b80002c04000edecb700004080004400de006f
:1055c800ef4060000180fb00e90f50000300340049
:1055d80073c3b30003c040000200370002c3b30026
:1055e80002c04000eeecb70000408000ef406000d1
:1055f8000180fb00e90f50000300340073c3b300bf
:1056080003c040000200370002c3b30002c04000dc
:10561800efecb700a0c0b300f0ecb7000068800062
:1056280002ce2000020140009200fb00a111880078
:105638000000e80000688800a3c0b30092cf110002
:1056480002003a00002def0097e0a9004f01be00cc
:105658004f00be0000400600809fbe00829fbe0033
:1056680087c0a900b311800003417800a20be200b3
:105678001300320030c2b30080cf510002003a005c
:10568800d82cef00da2cef00c1668000600c2000f7
:10569800808f500004003e0000c120008370780015
:1056a8000100e800c066880050c2b300804f510076
:1056b80003003a0010002000d0668800030037007d
:1056c800b0c2b300804f510002003200242def0019
:1056d8000a003700242dec0020698000e30f5000f9
:1056e80006003a009460a900242def001000200065
:1056f800206b8800662def00a22bef004f01be0043
:105708004f00be000040060010083700e68747003b
:10571800889fbe008a9fbe008c9fbe008e1f7800a7
:10572800f9ff07000a28ef00a0bc290071f1070063
:1057380010be29006ff1070070c02900801f780093
:1057480001c12900811f7800c0c12900801f78008d
:1057580072f1070064060700a0002000c04388001b
:105768001028ef001188a80011a8a80001712200d4
:10577800614088000e28ef00409c2000305d8800c2
:10578800401f2000205d8800020620008000eb00fa
:10579800e0ba200068f10700022a20008000eb0030
:1057a800e08f200064f107000e2cef00d622a9003c
:1057b80000122a007100200028eb0700d622a8005a
:1057c80000122a007100200024eb0700d622a9004d
:1057d80000122a007100200020eb0700d622a80042
:1057e80000122a00710020001ceb0700d622a90035
:1057f80000122a007100200018eb0700d622a8002a
:1058080000122a007100200014eb0700d622a9001c
:1058180000122a007100200010eb0700d622a80011
:1058280000122a00710020000ceb0700d622a90004
:1058380000122a007100200008eb0700d622a800f9
:1058480000122a007100200004eb0700d622a900ec
:1058580000122a007100200000eb0700d622a800e1
:1058680000122a0071002000fcea0700d622a900d5
:1058780000122a0071002000f8ea0700d622a800ca
:1058880000122a0071002000f4ea0700d622a900bd
:1058980000122a0071002000f0ea0700d622a800b2
:1058a80000122a0071002000ecea0700d622a900a5
:1058b80000122a0071002000e8ea0700d622a8009a
:1058c80000122a0071002000e4ea0700d622a9008d
:1058d80000122a0071002000e0ea0700d622a80082
:1058e80000122a0071002000dcea070068cdbf0022
:1058f800694db7006a4db7006b4db7006c4db700e6
:105908006d4db7000080fb00d622b700e687570030
:1059180080408000fd0507009460a90097c0a90099
:10592800642def00662def00242def00a22bef0071
:1059380020c32900eff0070020c62900edf007007a
:1059480080c82900ebf00700c0c92900e9f007006a
:1059580090cb2900e7f00700b0ce2900e5f007005a
:1059680090d12900e3f00700a0d32900e1f0070057
:10597800f0d52900dff0070000d92900ddf0070085
:10598800c0dd2900dbf00700a0e12900d9f00700fd
:1059980090e52900d7f0070020ea2900d5f0070094
:1059a80090ef2900d3f0070060f22900d1f007003a
:1059b800a0002000e7f007000a08e2000500320016
:1059c8000a28ef0031f5290020812000e3f00700c4
:1059d8000c00370080f52900801f7800cff0070001
:1059e800a0fa2000e5f0070060fb2000e3f00700c4
:1059f800120020003106200020812000ab0707009c
:105a08008f87e900b1f529002081200004fb0700f9
:105a18000000e000beff3a0001f6290020812000c6
:105a2800fffa07000000e00001023a0041f62900f1
:105a380020812000fafa07000000e000010032008f
:105a48000000fe00a1f6290020812000f4fa0700da
:105a58000000e0001a0032007808f80061f7290019
:105a6800811f7800adf00700d103200020812000bd
:105a7800ecf007000000e800f2f0070000047800ee
:105a8800e487570000042000800f5400020036000d
:105a980000047800030037000800e00001003a0025
:105aa80018002000881f780020f92900801f78003e
