:020000040000fa
:080000000002040000000000f2
:020000040000fa
:100400006ffa2000ceff23000e01880000000000dc
:100410000c00070000992100010020001f000700c8
:10042000000020000000e000020032000000020096
:10043000000000009c060200000000000040da00fe
:100440000000fe004440a900a00520000000e000dc
:100450000300320000002000a00188004440a800f2
:1004600000000600f03fb1000180b1000600350039
:10047000ee03090000000000403fb1000180b10020
:10048000fbff3d001000b000203fb000020035002f
:1004900000800900000000000000060091018800b3
:1004a000800078000000eb0015003700e28040007b
:1004b00032a0b4009101ba00e280400032a0b40042
:1004c0009102ba00e280400032a0b4000002eb00ca
:1004d000472bde00f507b200602ce10004003a0073
:1004e0000059eb008301e900fdff3e0004003700e6
:1004f0006128e100010032000082eb0004000700e7
:100500001101ba000200e000e8ff3a000000060016
:100510003159ba008301e9000c0032002159ba00b8
:100520008301e900080032000400e00003003a0003
:10053000e280400032a0b400f5ff370011d9ba00c4
:100540008301e900faff3a008100e800e180400001
:1005500032a0b400000006000040da000000fe00f7
:10056000811f78000100e00002003d0060001000e3
:10057000e08018000300e00002003d00600111006f
:10058000e08119001f0107004f00e00002003b005e
:1005900060001000e080180000000600889fbe0088
:1005a0008a9fbe008c1f78001901070020013300cc
:1005b00003866c006450e100240032006420e100f6
:1005c000270032006150e100220032006120e1008a
:1005d000210032008b854200eb07b1000134b800e6
:1005e000003ab8000804420089844a00013ab80081
:1005f0000030b8008880400009014a000400330040
:100600000000400081804800020149008b05e9009c
:10061000c909dd00830170000100320013002000d1
:10062000c814de004814dd004709de001200b200e5
:10063000c808de00088470000d01070001f0a10069
:100640000cf0a70001f0a000020137006120e100da
:10065000040132000801be000200be00f7ff3700af
:100660006150e100fcff3a00fe003700889fbe00a9
:100670008a9fbe00010578000100e00004003500fb
:1006800008003c000000e0002000320005003700b8
:1006900060001000e080180002003b0001f02c0018
:1006a0001a0037000004be006011b8006b0920007a
:1006b0000982cf00020039000882cf000441b00057
:1006c000694252000e00320008003b008281710036
:1006d000610164008904d1000884d3008b05e8001f
:1006e0000442e800f9ff3a0005003700080444001e
:1006f00089844c008b05e9000442e900fbff3a00c5
:10070000db0007000af0a70001f0a0004f05be00c3
:100710004f04be000000060003f0a200889fbe0048
:100720008a9fbe008c1f7800b9000700c00033000c
:100730006450e1004f0032006420e10052003200ba
:1007400003826c0007003b000905d0000306d000bf
:10075000820f54000c065d000200390002003200d6
:1007600089017800030678008582550004003d0069
:100770000003fd008103fd008502ea008b85420035
:10078000840f720002003b0060001000e08018003f
:100790006011b8000005eb007a28e1000a0039007a
:1007a00006007800c75ddd00f707b200878075009e
:1007b0002d003700828171000a0178006105600018
:1007c0008180d1000080d3008502e900f9ff3b0061
:1007d000060440008784480002003b0060041400c7
:1007e000e0841c000988a300070032008a817100a0
:1007f00082817100610164008904d1000884d30002
:100800008b05e800170037000978a30013003a00b1
:100810000b00e000130034008b05e90008044400dd
:1008200089844c000a4474000978a3000d003a0042
:100830000b00e000070034008b05e90008044400c9
:1008400089844c0001003a000b0020000978a300c5
:10085000f7ff32000001eb000200370082817100d7
:100860000a017800820007000cf0a70001f0a00048
:10087000780037006420e10002003a00838f6c00aa
:10088000780033000801be000200be00710037008e
:10089000889fbe008a9fbe008c1f78005c00070006
:1008a0006300330003866c006450e1002e003200c8
:1008b0006420e100330032006150e1002f0032007b
:1008c0006120e1003100320085855500eb07b00062
:1008d0000900200008042000050037000804440037
:1008e00089844c000a0031000603430087834b00d3
:1008f0000001530081815b00f8ff33000203be005a
:100900000800a0000804440089844c00f6ff390068
:10091000c639dd008301730001003200130020009e
:100920008904d1000884d3000998a300050032008f
:100930000800a7000300a0008904d1000884d300a8
:100940008b05e8008904d1000884d3000001eb0086
:100950000281d2004600070001f0a1000cf0a700c0
:1009600001f0a0003b0037006420e1003d003200b0
:100970000801be000200be00f7ff37006120e10061
:10098000380032006000b800f3ff3700000020009c
:1009900001f82700f0ff37000001be005a000700f1
:1009a0000470a70003f0a10003f8a30013003a00ad
:1009b0006509b10010003200090035006928e10026
:1009c0000200350001002800000005000000400082
:1009d000818048008502e900fcff3a000000060023
:1009e000f88f4200050035008100d1000080d3005f
:1009f0008502e800fcff3a00000006008000eb00e2
:100a000000000500550007000400be0000000600bd
:100a10000004be003c0007000003be000405be0049
:100a20000200be0038000700844f75000000060079
:100a30000200be006450e100050036006420e100c1
:100a4000020036000968a30001003a000800be0059
:100a50000160a0004f0678004f05be004f04be00a5
:100a600000000600f0ff2f00f1ff2700f9ff37001c
:100a700081002000618055000b003d000b0020002c
:100a800061fe2f000100e1001d0034008281710031
:100a9000610164008904d1000884d3000000e800eb
:100aa000faff3a007100200061006400030070004a
:100ab000020060000900320061044400e0844c0040
:100ac0000988a500050032008b05e8006808e100f0
:100ad00002003a008904d1000884d300f20f2000fc
:100ae0000258e10005003d00c75ddd00f907b200d6
:100af0008980750008007800000006000bf82700c8
:100b00008b00780000000500c70ade00f107b20084
:100b1000f50fb20008003200e1cf420002003200bf
:100b20000170a00024000500810f70000100320058
:100b30000408050044000500810f700002003a001f
:100b4000140005008502e9000000400081c0480053
:100b5000fcff3b000170a000240005006022b800eb
:100b6000060220000000d0008180d2000482d20062
:100b70008582d2000000a0000202520083825a0047
:100b8000030031000202420083824a000000a100fb
:100b90000603e900f3ff3a00000006008001eb00c5
:100ba00002003700817178008301e800828f5100d4
:100bb000fcff3a0000000600800178000001780088
:100bc00031407800005978000004e000fcff3a0052
:100bd0000300780000000600800078003004e00088
:100be000feff3a00010050000000e900000006008e
:020000040000fa
:10000800ac020000ac020000ac020000ac02000030
:10001800ac020000ac020000ac020000ac02000020
:10002800ac020000ac020000ac020000ac02000010
:1000380066120000ac020000ac020000ac02000036
:10004800ac020000ac020000ac020000ac020000f0
:10005800ac020000ac02000088120000ac020000f4
:10006800ac020000ac020000ac020000ac020000d0
:10007800ac020000ac020000ac020000ac020000c0
:10008800ac020000ac020000ac020000ac020000b0
:10009800ac020000ac020000ac020000ac020000a0
:1000a800ac020000ac020000ac020000ac02000090
:1000b800ac020000ac020000ac020000ac02000080
:1000c800ac020000ac020000ac020000ac02000070
:1000d800ac020000ac020000ac020000ac02000060
:1000e800ac020000ac020000ac020000ac02000050
:1000f800ac020000ac020000ac020000ac02000040
:10010800ac020000ac020000ac020000ac0200002f
:10011800ac020000ac020000ac020000ac0200001f
:10012800ac020000ac020000ac020000ac0200000f
:10013800ac020000ac020000ac020000ac020000ff
:10014800ac020000ac020000ac020000ac020000ef
:10015800ac020000ac020000ac020000ac020000df
:10016800ac020000ac020000ac020000ac020000cf
:10017800ac020000ac020000ac020000ac020000bf
:10018800ac020000ac020000ac020000ac020000af
:10019800ac020000ac020000ac020000ac0200009f
:1001a800ac020000ac020000ac020000ac0200008f
:1001b800ac020000ac020000ac020000ac0200007f
:1001c800ac020000ac020000ac020000ac0200006f
:1001d800ac020000ac020000ac020000ac0200005f
:1001e800ac020000ac020000ac020000ac0200004f
:0801f800ac020000ac020000a3
:020000040000fa
:10020800ac020000ac020000ac020000ac0200002e
:10021800ac020000ac020000ac020000ac0200001e
:10022800ac020000ac020000ac020000ac0200000e
:1002380066120000ac020000ac020000ac02000034
:10024800ac020000ac020000ac020000ac020000ee
:10025800ac020000ac02000088120000ac020000f2
:10026800ac020000ac020000ac020000ac020000ce
:10027800ac020000ac020000ac020000ac020000be
:10028800ac020000ac020000ac020000ac020000ae
:10029800ac020000ac020000ac020000ac0200009e
:1002a800ac020000ac020000ac020000ac0200008e
:1002b800ac020000ac020000ac020000ac0200007e
:1002c800ac020000ac020000ac020000ac0200006e
:1002d800ac020000ac020000ac020000ac0200005e
:1002e800ac020000ac020000ac020000ac0200004e
:1002f800ac020000ac020000ac020000ac0200003e
:10030800ac020000ac020000ac020000ac0200002d
:10031800ac020000ac020000ac020000ac0200001d
:10032800ac020000ac020000ac020000ac0200000d
:10033800ac020000ac020000ac020000ac020000fd
:10034800ac020000ac020000ac020000ac020000ed
:10035800ac020000ac020000ac020000ac020000dd
:10036800ac020000ac020000ac020000ac020000cd
:10037800ac020000ac020000ac020000ac020000bd
:10038800ac020000ac020000ac020000ac020000ad
:10039800ac020000ac020000ac020000ac0200009d
:1003a800ac020000ac020000ac020000ac0200008d
:1003b800ac020000ac020000ac020000ac0200007d
:1003c800ac020000ac020000ac020000ac0200006d
:1003d800ac020000ac020000ac020000ac0200005d
:1003e800ac020000ac020000ac020000ac0200004d
:0803f800ac020000ac020000a1
:020000040000fa
:100bf00041700000722000003139000020320000f6
:100c00003031000032200000313700003a3100005e
:100c1000393a00003239000000760000312e000021
:100c20003000000000040000a3ca00009e80000005
:100c300032310000322e000031390000312e000028
:100c4000383900002e360000350000003235000033
:100c5000352e000032350000352e00003235000000
:100c6000352e00003132000038000000313900001c
:100c7000322e000031360000382e000032350000e0
:100c80002e30000000320000353500002e3200000a
:100c9000353500002e320000353500002e300000c2
:040ca0000000000050
:020000040000fa
:100ca4000200fa009000200001002000707b880000
:100cb400817b88000000eb00f0bf9f001700370025
:100cc400727b8000837b8000ffb89700e0ee2000f9
:100cd40000804000104078000080fb0001002000ec
:100ce4000200400083804800707b8800817b88007c
:100cf400727b8000837b80001000200001002800ac
:100d04000000690081806900707b8800817b880015
:100d14007fb897000000e800f0bf9f00ffb897007d
:100d2400f0072000808f5000e5ff36000080fa00b5
:100d3400000006004c00fa00881f78009002800032
:100d4400d0af9f00ff3ffc002104200091407800b9
:100d540000ceb30000c0700042e0b7005fa8970067
:100d640090028800d2100700340f0700e90507003d
:100d74008001eb000001eb008000eb00100020007c
:100d84000805070090028000c0af9f00ff3ffc00f1
:100d940042c0bf007f40600042e0b7004fa8970008
:100da40090028800427f2000d1bc2a00c0002400a9
:100db40079ff0700d622a9006000b800c0b79f00e1
:100dc400d1b79f001d0037004fb09700dfb09700e8
:100dd4000271220003002000e0fd0700e00f500034
:100de400e08f58000f003a00d6c2bf000080fb001d
:100df4000000d1000004a200614060006140600076
:100e0400614060006140600000414000612d2000ad
:100e140091407800d0cfb30000c060000240700061
:100e2400d6e2b7004fb09700dfb0970061004000f2
:100e3400e0804800c0b79f00d1b79f004fb1970032
:100e4400dfb19700f069280011002000800f5100e5
:100e5400818f5900dcff3400d622a80090002000c6
:100e6400907b88008eff0700748057002161280062
:100e740005000900315878006000b10001f020003d
:100e840091407800748057004140980011f0200090
:100e94009140780074805700514098007480570046
:100ea400c2eb200005000900305978006000b10051
:100eb400806128000e0c07002075880031758800b9
:100ec400606228000a0c070040758800517588008c
:100ed40060632800060c07002075880031758800bf
:100ee40030642800020c07004075880051758800a2
:100ef4002075800031758000f2ff2f00f30f200071
:100f040000027800810278000200780083007800f3
:100f140000016200018062006102b800d4bf9f003a
:100f2400e5bf9f005fb89700efb89700c000dd00f1
:100f340000002000d0bf9f00e1bf9f005fb8970072
:100f4400efb897006112b800d4bf9f00e5bf9f00bf
:100f54005fb99700efb997000200700083807000ba
:100f64000200200003d0260002007000838070007d
:100f740020758800317588004075800051758000a7
:100f84000080ea008180ea00c0758800d17588007d
:100f9400c2758000d3758000207580003175800093
:100fa4000000710081807100c0758800d1758800cf
:100fb400c0eb200005070700707b8000817b800068
:100fc4001076880000002000010c2400307c88008a
:100fd400417c8800e9100700071107000000370072
:100fe400d07b80000000e000490032000000eb00ec
:100ff400d07b88006000b800a0af9f00b1af9f0015
:101004002fa89700bfa8970062004000e080480026
:10101400a0af9f00b1af9f00e07b80004200dd00e5
:101024006101b8002fa89700bfa8970000004100f5
:1010340081804900a0af9f00b1af9f00e07b80009a
:101044004200dd006101b8002fa89700bfa89700f7
:101054000000410081804900a0af9f00b1af9f0014
:1010640011768000f00f200000816000d6cebf0012
:101074006040600002407000d6eeb7004809de0010
:10108400d7cebf006040600002407000d7eeb700ca
:101094000100e8001076880020ed2000c70f07004b
:1010a40020ed2000960f0700f07b80000000e00098
:1010b4000c003a00007c800030208a000000e80028
:1010c400007c88002fa897006240240044ec200094
:1010d40080017800a1022000040078009a0707002c
:1010e4000b003700007c800060008a000000e800ec
:1010f400007c88002fa89700c200240044ec200044
:1011040080017800a1022000040078008e07070007
:10111400e0c2bf000044b2000004e000b0ff3a00a7
:1011240000003700416a20000080200035080700d5
:10113400a0b79f002fb097000000e000a8ff320086
:10114400d6c2bf000080fb004300de000004a20002
:101154006140600061406000614060006140600087
:101164004301dd00612d20009140780070cfb30071
:1011740000c0600002407000d6e2b700008020008a
:1011840090b79f009fb09700414890000081fb00fa
:10119400514890000080fb004800dd000200700010
:1011a4008000780080602000808f50004e003a005c
:1011b400e080200090af9f001fa897009000780067
:1011c40000102000808f5000d6ff3a001fa897001f
:1011d40010009000e80f5000d2ff3a001fa89700bb
:1011e40040409000e64f5000ceff3a001fa8970001
:1011f40050409000e44f5000caff3a001fa89700e7
:10120400b000900000102000808f5000c5ff3a000d
:101214001fa8970040099000d00990002075800015
:1012240031758000800f5100818f5900bdff3a0055
:101234009fa8970000202000b00098001fa89700e6
:1012440080089000700090001fa997004009980042
:10125400510998001fa89700f20040001fa89700aa
:10126400680040001002be008488be00a002900006
:10127400a500980020758000317580001fa9970093
:1012840070019800010998001fa8970068004000a9
:10129400e2758000f37580000288be00037680004a
:1012a400230098001fb0970066004000c4eb2000a4
:1012b40005000900345878006000b1009fb0970021
:1012c4001fa897007200400005000900b05878007c
:1012d4006100b1006000b1001fb09700a1022000be
:1012e400840607008fff37009fb0970041489000a5
:1012f4000081fb00514890000080fb004800dd00a5
:1013040002007000e80f500086ff3a00e0802000e1
:1013140080b79f008fb09700015090000082fb00bf
:10132400115090000080fb004800dd0004007000b4
:1013340000017800215090000082fb0031509000a1
:101344000080fb004800dd0004007000800178008c
:101354002075800031758000800f5100818f590005
:10136400280032008fb09700015090000082fb00eb
:10137400115090000080fb004800dd000400700064
:1013840000017800215090000082fb003150900051
:101394000080fb004800dd0004007000800178003c
:1013a400c0758000d1758000800f5100818f590075
:1013b400140032008fb09700015090000082fb00af
:1013c400115090000080fb004800dd000400700014
:1013d40000017800215090000082fb003150900001
:1013e4000080fb004800dd000400700080017800ec
:1013f4000080eb008080eb00800f5100818f59004a
:1014040048ff3a000fb0970010489000e14f500099
:1014140077003a0020822000e0af9f006fa8970079
:1014240010407800e84f50003eff3a00efa89700c4
:101434000040eb0080487800afb0970060fd2f00bb
:10144400808040006fa89700cd0e07008fb09700f2
:10145400015090000082fb00115090000080fb00be
:101464004800dd0004007000000178002150900065
:101474000082fb00315090000080fb004800dd003a
:101484000400700080017800f2a79f0083af9f00e2
:101494008fb09700414890000082fb0051489000b3
:1014a4000080fb004800dd000400700000017800ab
:1014b400614890000082fb00714890000080fb00ae
:1014c4004800dd0004007000800178008fb09700b0
:1014d400f00f2000000261000150900060406000a5
:1014e40004407000805098004812de0011509000b3
:1014f400604060000440700090509800f00f20009d
:10150400008261002150900060406000044070003f
:10151400a05098004819de003150900060406000ef
:1015240002407000b05098008fb097007fa19700e0
:10153400f00f20000001610041489000604060000d
:1015440002407000c04898007fa097004801de0068
:10155400514890006040600002407000d0489800fc
:101564000fa99700f00f200000016100614890006e
:101574006040600002407000e04898000fa89700a7
:101584004801de0071489000604060000240700035
:10159400f0489800127680008fb09700f00f20007a
:1015a4008001610041409000604060000340700091
:1015b400c0409800c811de005140900060406000b7
:1015c40003407000d04098000200e80010768800c4
:1015d4000fb097004a0e07001fb097009c0e07003b
:1015e4001fb09700afb09700c2050700cdfe3700cb
:1015f4000fb0970010489000f14f5000c9fe3a0018
:1016040020822000f0af9f00ffa8970021409000a7
:101614000081fb00314090000080fb004800dd00a9
:1016240002007000c800de004800dd000080700089
:10163400e0a79f00efa0970080b52100808f5000a5
:10164400d0023a00a0822000c0a79f004fa09700bc
:1016540090027800b5a79f0080002000a0b79f00eb
:10166400ffa89700214090000081fb0031409000ca
:101674000080fb004800dd0002007000d0a79f003e
:101684007fa897009080fb00104090000080fb0032
:101694004800dd000100700080017800ffa8970079
:1016a400f00f200000816100214090006040600044
:1016b40002407000a04098004819de0031409000bc
:1016c4006040600002407000b0409800ffa897009e
:1016d4005fa19700f00f2000000061001141780025
:1016e400e0486100914870005fa097004801de0067
:1016f40011409000604060000240700090409800eb
:101704008fb09700414890000082fb005148900040
:101714000080fb004800dd00040070000001780038
:10172400614890000082fb00714890000080fb003b
:101734004800dd00040070008001780092a79f003b
:10174400a3a79f008fb09700414890000082fb0040
:10175400514890000080fb004800dd000400700048
:1017640000017800614890000082fb0071489000fd
:101774000080fb004800dd00040070008001780058
:101784008fb09700f00f200000026100015090001c
:101794006040600004407000805098004812de00f1
:1017a4001150900060406000044070009050980018
:1017b400f00f200000826100215090006040600022
:1017c40004407000a05098004819de003150900089
:1017d4006040600002407000b050980022758000a4
:1017e400337580008fb09700f00f20000002610075
:1017f400414890006040600004407000c048980078
:101804004812de00514890006040600004407000bf
:10181400d0489800f00f20000082610061489000d9
:101824006040600004407000e04898004819de0001
:10183400714890006040600002407000f0489800d9
:10184400127680008fb09700f00f200080016100b5
:10185400414090006040600003407000c040980028
:10186400c811de00514090006040600003407000e9
:10187400d04098000200e800107688001fb097005e
:10188400f30d0700bfa0970010022000808f5000c6
:1018940062003a004fa1970020e02f00a11c200015
:1018a4000089be004fa0970064004000c0a79f00bd
:1018b4004fa09700bfa19700030878004fa097009e
:1018c4000080e800c0a79f004fa19700707b8000b4
:1018d400817b80000089be004fa097006400400017
:1018e400c0a79f00cfa09700907b8000800878005d
:1018f4004fa097000080e800c0a79f004fa097006a
:101904001fa29700afa297000488be004fa09700c3
:1019140064004000c0a79f004fa19700207580007d
:10192400317580000089be004fa09700640040001c
:10193400c0a79f004fa1970060758000717580005b
:101944000089be004fa0970064004000c0a79f001c
:101954004fa1970040758000517580000089be003a
:101964004fa0970064004000c0a79f004fa09700bd
:10197400c5eb200005000900355878006000b1006f
:101984004fa0970066004000c0a79f00717c8000b4
:101994004fa0970087fc0700707c80008dfc070037
:1019a400800078004fa09700008040000000e8000d
:1019b400c0a79f00817c80004fa097007dfc07009a
:1019c400807c800083fc0700800078004fa0970093
:1019d400008040000000e800c0a79f00707c8000e9
:1019e4007cfc070000047800807c800079fc070000
:1019f400800044002fb09700008040004002b000f7
:101a0400a0b79f001fb0970066004000c1eb200004
:101a140005000900315878006000b100bfa09700ac
:101a240030042000808f50001e003a004fa1970020
:101a340020e02f00a11c20000089be004fa09700c9
:101a440064004000c0a79f004fa097003fa19700eb
:101a5400020878004fa097000080e800c0a79f000c
:101a6400cfa09700e0002000800878004fa09700e6
:101a74000080e800c0a79f004fa0970023f9200032
:101a84000d00090033587800e000b1004fa0970022
:101a94006e004000c0a79f002fb097007600400062
:101aa400a0b79f00bfa0970040042000808f500083
:101ab40027003a004fa097000080e800c0a79f00cd
:101ac4004fa097001002780084a79f004fa09700b2
:101ad4000080e800c0a79f000fa09700ee0f500001
:101ae40064013a004fa0970025f920000d00090079
:101af400b05a7800e000b1004fa097006e0040009b
:101b0400c0a79f003c0e0700a0822000c0a79f0032
:101b14004fa1970020e02f00a11c20000089be00e7
:101b24004fa0970064004000c0a79f004fa09700fb
:101b3400bfa09700010878004fa097000080e8003c
:101b4400c0a79f002fb0970066004000a0b79f0079
:101b5400bfa0970050042000808f50001b013a0062
:101b64004fa097000080e800c0a79f004fa09700f7
:101b74001000be00a07b8800b17b88004fa09700b6
:101b840064004000c0a79f004fa097001000780099
:101b9400c07b88004fa097000080e800c0a79f008a
:101ba4004fa0970010017800f29f9f004fa097006c
:101bb4000080e800c0a79f004fa097009001780024
:101bc400e39f9f004fa097000080e800c0a79f00fc
:101bd4004fa097001002be00c49f9f00d59f9f0096
:101be4004fa0970064004000c0a79f004fa097003b
:101bf40090027800b59f9f004fa097000080e800f6
:101c0400c0a79f007f98970063006000f09f9f002b
:101c14003f989700e07b88004f999700df999700e1
:101c2400127c8800237c8800307c8000417c80000a
:101c34004f999700df99970057fa0700b0bf9f00ac
:101c4400c1bf9f003f989700cf80de0086fa07004f
:101c540090bf9f00a1bf9f003f9897000000e00045
:101c640007003d0002002000037824001fb89700fd
:101c7400afb89700a8fa070090bf9f00a1bf9f00cc
:101c84001fb99700afb997003fb89700cfb8970036
:101c9400fefa07003ffb0700507c88000000eb00c1
:101ca400607c8800a20220008000eb0040ec200051
:101cb400b9fb07008000200001002000909f9f00d6
:101cc400a19f9f001f9a9700af9a9700620242005b
:101cd400e0824a00949f9f00a59f9f003f98970031
:101ce4004200dd00010020001f999700af99970082
:101cf4000201400083814800929f9f00a39f9f00a0
:101d04003f9897004200dd00010020001f9a9700d1
:101d1400af9a97000402400085824800949f9f0078
:101d2400a59f9f001f989700af989700c80add00f1
:101d34004800de0000807200c808de0080007800e1
:101d44001f9897004800dd0000817000f00f20000c
:101d540080006100eacebf00604060000140700076
:101d6400eaeeb700c810de00ebcebf0060406000b2
:101d740001407000ebeeb700eccebf0060406000a5
:101d8400eceeb700edcebf0060406000edeeb700b2
:101d94001f989700af98970074004000e0804800b7
:101da400909f9f00a19f9f001fb0970041ec2000cf
:101db40005000900b05878006000b100a2ec2000d2
:101dc400c3eb20000500090033597800d0cebf00d2
:101dd400604060000034a000d0eeb700d1cebf0058
:101de40060406000d1eeb700d20ea800d22ea90048
:101df400d24ea800d26ea900d28ea900d2aea900fc
:101e0400d2cea800d2eea9001f989700af989700f1
:101e1400480add004800de0000007200c808de0049
:101e2400800078001f9897004800dd000081700052
:101e3400f00f200080006100d4cebf00604060003d
:101e440001407000d4eeb700c810de00d5cebf004c
:101e54006040600001407000d5eeb700117680004c
:101e6400f00f200000816000d6cebf00604060000b
:101e740002407000d6eeb7004809de00d7cebf009e
:101e84006040600002407000d7eeb7000100e80037
:101e94001076880080c0b300daeeb70010c1b3003a
:101ea400dbeeb7002275800033758000f00f200050
:101eb40080006100decebf00604060000140700021
:101ec400deeeb700c810de00dfcebf006040600069
:101ed40001407000dfeeb700f00f20008080610049
:101ee400e0cebf006040600001407000e0eeb7004b
:101ef400c818de00e1cebf00604060000140700001
:101f0400e1eeb700a27b8000b37b8000f00f2000dd
:101f140080006100e2cebf006040600001407000bc
:101f2400e2eeb700c810de00e3cebf006040600000
:101f340001407000e3eeb700f00f200080806100e4
:101f4400e4cebf006040600001407000e4eeb700e2
:101f5400c818de00e5cebf0060406000014070009c
:101f6400e5eeb700e6cebf0060406000f041b3008c
:101f7400e6eeb700e7cebf006040600001c4b300e6
:101f840001407000e7eeb700c27b8000f00f200034
:101f940080006100e8cebf00604060000140700036
:101fa400e8eeb700c810de00e9cebf006040600074
:101fb40001407000e9eeb700bf9997006f99970050
:101fc400ff9897000000eb0076000700bfa0970081
:101fd40060042000808f500005003a008001eb006f
:101fe4000001eb008000eb00100020006d000700f2
:101ff400bfa0970070042000808f50001d003a009d
:102004000000eb00607c8800d6c2bf000080fb00ab
:102014004200de000004a2006140600061406000f4
:1020240061406000614060004201dd00612d2000dc
:1020340091407800b0cfb30000c06000024070004f
:10204400d6e2b700cfa0970013c1bf000080fb0009
:102054004700de000080fb00800878004fa0970056
:102064000080e800c0a79f002fb097000080e80020
:10207400a0b79f002fb09700c800de004801dd0024
:1020840001017100ffa89700f00f2000800161009a
:10209400414090006040600003407000c0409800e0
:1020a4004811de0051409000604060000240700022
:1020b400d0409800ffa89700614090006040600005
:1020c400e04098007140900060406000f04098004b
:1020d4002fb0970074004000a0b79f002fb0970066
:1020e400c800de004801dd00010171008fb09700d7
:1020f400f00f2000800161002140900060406000ea
:1021040003407000a04098004811de003140900068
:102114006040600002407000b04098001276800079
:102124008fb09700f00f20008001610041409000c3
:102134006040600003407000c0409800c811de0099
:10214400514090006040600003407000d04098000f
:102154000200e800107688000fb09700970b070084
:102164000fb09700660b07002fb097006e00400079
:10217400a0b79f001fb09700afb09700dd02070023
:10218400e8fb370000000000000000000000000031
:10219400000000000000000000000000000000003b
:1021a400e0fb37000800fa00c0bf9f00d1bf9f00ca
:1021b400e2bf9f00f3bf9f0013e1a90021e1a90042
:1021c40021e3a90061e3a90081e3a9008de3a9004b
:1021d4004fb897000000e000b9003a002143a8007e
:1021e4006143a8002343a900813220009140780074
:1021f40000ceb30000c060000004a00028e3b700d4
:1022040028e3a900913220009140780000ceb30069
:1022140000c060000014a00029e3b70029e3a9006e
:102224006343a900813620009140780000ceb300ba
:1022340000c060003040b30068e3b70068e3a90061
:10224400913620009140780000ceb30000c06000b9
:102254000024a00069e3b70069e3a900313220003b
:1022640091407800c0cfb30000c0600023e3b70002
:102274002043a8002203a8002132200091407800c6
:1022840030ccb30000c060000024a00022e3b700fb
:102294002183a80020c3bf007f40600001c4b300b5
:1022a4000140700020e3b7003136200091407800ef
:1022b400c0cfb30000c0600063e3b7006043a80070
:1022c4006203a800213620009140780030ccb3008e
:1022d40000c060000024a00062e3b7006183a8008e
:1022e40060c3bf007f40600001c4b30001407000c0
:1022f40060e3b70085a0a90086a0a90095a0a90065
:1023040096a0a9008480a90085c0a9009480a80093
:1023140095c0a80081c3a90001382000914078002d
:10232400f0ccb30000c0600080e3b70001382000a7
:1023340091407800c0cfb30000c060000014a0003a
:1023440080e3b70000302000401c88007fb897006d
:10235400000040000000e900501c8800d00020006c
:10236400101c8800e0002400800078000000240095
:1023740000805000201c88008040240080007800e9
:102384000000240000805000301c8800c138200068
:1023940091407800f0ccb30000c060008ce3b7003b
:1023a400c138200091407800c0cfb30000c0600065
:1023b4000014a0008ce3b70000342000a01c8800a7
:1023c4007fb89700000040000000e900b01c8800be
:1023d40050012000701c88007fb89700c200dd0007
:1023e4000000240080805000e000240000804000b1
:1023f400801c88007fb89700c200dd000000240024
:10240400808050008040240000804000901c8800a0
:102414000000eb00f07b880081e3a8008de3a800b6
:1024240021e3a80061e3a80012c1a9005fb89700e6
:1024340063406000634060004401dd00211120001e
:1024440091407800f0ccb30000c0600002407000fe
:1024540012e1b7001221a9000000eb005008880027
:102464006fb89700700888009500a9008500a9003e
:1024740020c1a9005fb8970063406000634060001a
:102484004401dd000112200091407800f0ccb3003b
:1024940000c060000240700020e1b7002021a900c4
:1024a4000000eb00c00888006fb89700e0088800bf
:1024b4009780a9008780a90013e1a80021e1a80062
:1024c4000080fa0000000600809fbe000200fa00af
:1024d400f07b80008000eb00f1bf9f000000e00073
:1024e40002003a0010002000f0bf9f00ffb89700e0
:1024f400f17b880010002000d07b88008480a90034
:102504000080fa004f00be000040060085c0a9000c
:10251400004006001400fa00ea00070020c7b300d8
:10252400a2000700c0ef9f004fe89700e64f50005d
:10253400fdff3a000000eb00107d88008040eb00b6
:1025440080c0b300cf0007008040eb0090c0b30010
:10255400cc00070080c0eb00a0c0b300c900070096
:10256400f1c0b300b0c0b300c60007008040eb0068
:10257400c0c0b300c30007008040eb00d0c0b3006c
:10258400c00007008040eb0040c0b300bd0007005e
:1025940001c1b30050c0b300ba00070080c0eb0013
:1025a40060c0b300b7000700f1c1b30070c0b3004e
:1025b400b4000700d1c0b30000ccb300b1000700e1
:1025c40031c3b30020ccb300ae00070001c4b30094
:1025d40030ccb300ab000700e1ceb300a0ccb30015
:1025e400a800070051c0b300b0ccb300a500070099
:1025f40051c1b30040ccb300a200070021c1b30015
:1026040060ccb3009f000700c1c0b30070ccb3001e
:102614009c000700011020000040eb00b7000700f9
:102624000110200000c1b300b400070001ccb300c6
:10263400b0c1b3009300070072805700e8000700a0
:1026440041c0b300f0c1b300160107000080fa00d6
:10265400000006000200fa00e0ff9f00e922a90042
:1026640040138000007d88008820a900eff89700bf
:102674000180fb004013880088c0bf0062406000f6
:102684000004e000fcff320040138000007d88005d
:102694008820a9000000eb004013880088c0bf0018
:1026a400624060000004e000fcff3200e922a80060
:1026b400401380000080fb000080fa000000060048
:1026c4000200fa00e0ff9f00f1ff9f00e922a90049
:1026d40040138000007d88008820a90000c4b30056
:1026e400eff8970000c070000080fb0040138800e2
:1026f40088c0bf00624060000004e000fcff3200bc
:1027040040138000007d88008820a9007ff897008e
:102714000080fb004013880088c0bf006240600056
:102724000004e000fcff3200e922a8000080fa0067
:10273400000006000400fa00e0ff9f006ff8970015
:102744008080fb0000062000008060004580de00e1
:10275400c0ff9f00a4cfbf00cff8970080cf5000e8
:1027640010003200f0c1b300baff0700d0ff9f0091
:102774004ff89700e34060005ff8970063c1600082
:10278400c1cfb3000140600002407000d0ff9f0041
:10279400dff89700f0c1b300c9ff07004ff89700b6
:1027a400a4efb7000080fa00000006000600fa005b
:1027b400c0ff9f004ff897007f406000a0ff9f007c
:1027c4002ff89700fa4f500002003e004ff8970090
:1027d400d8ff07004ff897000004e00022003d00f6
:1027e400e922a90040138000007d88008820a90008
:1027f400aff897000180fb004013880088c0bf0039
:10280400624060000004e000fcff320040138000de
:10281400007d88008820a9000000eb004013880098
:1028240088c0bf00624060000004e000fcff32008a
:1028340040138000007d88008820a9000000eb0080
:102844004013880088c0bf00624060000004e000bc
:10285400fcff3200e922a800007d80000080fb001c
:10286400f0bf9f00040037002ff8970079ff07009e
:102874000080fb00f0bf9f007fb897000080fa0043
:10288400000006000400fa00e0ff9f00f1ff9f0033
:102894006ff897007f406000c0ff9f004ff89700db
:1028a400fa4f500002003e006ff89700a1ff0700a6
:1028b400fff897004ff8970081ff07000080fa00a7
:1028c40000000600e922a90040138000007d880072
:1028d4008820a900f00f20004013880088c0bf00a2
:1028e400624060000004e000fcff3200e922a8001e
:1028f40090012000460b0700000006000400fa00c7
:10290400c0ff9f00f1bf9f00cff8970040cdb300f8
:10291400dcff07007fb897008040780060cdb300eb
:10292400d8ff07007fb897004800de008040780099
:1029340070cdb300d3ff0700020037001000200061
:102944001f0b0700a0ceb30098ff07000080fb0018
:10295400610060000004e000f8ff3a000080fa0023
:10296400000006000400fa00e0ff9f00eff8970063
:1029740040cdb300c3ff070011c0b30020cdb300a6
:10298400c0ff0700a00020000d0b07000200370065
:10299400a00020000a0b0700a0ceb30083ff0700ad
:1029a4000080fb00610060000004e000f8ff3a00d2
:1029b4008040eb0020cdb300b2ff070090cdb30000
:1029c4007aff0700d0ff9f0080cdb30077ff070098
:1029d400c0ff9f006fb897000080fa000000060057
:1029e4000200fa00f0bf9f000040eb00ddff07008b
:1029f400800078007fb897000108780010c0b30009
:102a0400d8ff0700800078007fb897001100980075
:102a140020c0b300d3ff0700800078007fb8970080
:102a24002100980030c0b300ceff0700800078007a
:102a34007fb897003100980000c1b300c9ff0700b8
:102a4400800078007fb897004100980010c1b3005f
:102a5400c4ff0700800078007fb8970051009800f9
:102a640020c1b300bfff0700800078007fb8970043
:102a74006100980030c1b300baff070080007800fd
:102a84007fb897007100980040c1b300b5ff0700fc
:102a9400800078007fb89700010898000080fa0051
:102aa400000006000400fa00e0ff9f00f1ff9f0011
:102ab4006ff897007f406000c0ff9f004ff89700b9
:102ac400fa4f500002003e006ff8970019ff07000c
:102ad400e922a90040138000007d88008820a90015
:102ae40000c8b300cff8970000c070000080fb005e
:102af4004013880088c0bf00624060000004e0000a
:102b0400fcff320040138000007d88008820a9006b
:102b14007ff897000080fb004013880088c0bf0046
:102b2400624060000004e000fcff3200e922a800db
:102b34000080fa00000006000400fa00e0ff9f0095
:102b4400f1ff9f006ff897007f406000c0ff9f0077
:102b54004ff89700fa4f500002003e006ff89700bc
:102b6400f4fe0700e922a90040138000007d8800dc
:102b74008820a90000cab300cff8970000c07000f5
:102b84000080fb004013880088c0bf0062406000e2
:102b94000004e000fcff320040138000007d880048
:102ba4008820a9007ff897000080fb00401388006c
:102bb40088c0bf00624060000004e000fcff3200f7
:102bc400e922a8000080fa00000006000400fa00d0
:102bd400f0bf9f007fb89700e0bf9f006fb89700d9
:102be4009040780040ceb30026ff0700efb897006e
:102bf4000100e8009040780050ceb30021ff0700a8
:102c0400efb897000180e8009040780020ceb30030
:102c14001cff0700efb897006380400090407800e5
:102c240030ceb30017ff0700efb897006480400070
:102c34009040780000ceb30012ff0700efb8970071
:102c4400658040009040780010ceb3000dff07006f
:102c54000080fa00000006000400fa00e0bf9f00b4
:102c6400f1bf9f00e922a90040138000007d880085
:102c74008820a900a00320004013880088c0bf005a
:102c8400624060000004e000fcff3200401380005a
:102c9400007d8800110037008820a9000000eb00a7
:102ca4004013880088c0bf00624060000004e00058
:102cb400fcff320040138000804078006fb897001a
:102cc400014878006fb897000000e800e0bf9f005b
:102cd4007fb897000000e900f0bf9f007fb897001d
:102ce4000000e000ecff3c00e922a8000080fa00ac
:102cf400000006000400fa00e0bf9f00f1bf9f003f
:102d0400d622a9000040eb008afe0700e922a900b0
:102d140040138000007d88008820a9002004200042
:102d24004013880088c0bf00624060000004e000d7
:102d3400fcff320040138000007d88008820a90039
:102d44000000eb004013880088c0bf0062406000b0
:102d54000004e000fcff3200e922a800e922a900f7
:102d640040138000007d88008820a90030042000e2
:102d74004013880088c0bf00624060000004e00087
:102d8400fcff320040138000007d88008820a900e9
:102d9400000120004013880088c0bf00624060002a
:102da4000004e000fcff3200e922a800e922a900a7
:102db40040138000007d88008820a9006004200062
:102dc4004013880088c0bf00624060000004e00037
:102dd400fcff320040138000007d88008820a90099
:102de400ffb897000000210080804000f00f200011
:102df400008060004013880088c0bf00624060000b
:102e04000004e000fcff3200e922a800e922a90046
:102e140040138000007d88008820a90070042000f1
:102e24004013880088c0bf00624060000004e000d6
:102e3400fcff320040138000007d88008820a90038
:102e4400ffb8970000002100008040004800de0029
:102e54004013880088c0bf00624060000004e000a6
:102e6400fcff3200e922a800e922a90060c2a900ff
:102e740040138000007d88008820a900a00720005e
:102e84004013880088c0bf00624060000004e00076
:102e9400fcff320060c2bf00624060000004e0003a
:102ea400fcff3a0040138000007d88000000eb0026
:102eb400401388001000370060c2bf006240600009
:102ec4000004e000fcff3a0040138000007d88000d
:102ed4006fb89700104078000080fb004013880012
:102ee4006fb897000000e800e0bf9f007fb897002c
:102ef4000000e900f0bf9f007fb897000000e000e9
:102f0400edff3a0060c2bf00624060000004e000d0
:102f1400fcff3a008820a90040138000007d88004f
:102f240060c2a900e922a80081c0b300f0c1b300c7
:102f3400dcfe0700d622a80090002000c20907008a
:102f44000080fa00000006000a00fa00c0bf9f00db
:102f5400d1bf9f00e2bf9f00f3bf9f00d622a9000c
:102f64000040eb00f3fd0700e922a90040138000b4
:102f7400007d88008820a9002004200040138800d8
:102f840088c0bf00624060000004e000fcff320023
:102f940040138000007d88008820a9000000eb0019
:102fa4004013880088c0bf00624060000004e00055
:102fb400fcff3200e922a800e922a90040138000a6
:102fc400007d88008820a900300420004013880078
:102fd40088c0bf00624060000004e000fcff3200d3
:102fe40040138000007d88008820a9000001200093
:102ff4004013880088c0bf00624060000004e00005
:10300400fcff3200e922a800dfb897007fb89700e0
:1030140080804000b1bf9f00e922a90040138000d6
:10302400007d88008820a9006004200040138800e7
:1030340088c0bf00624060000004e000fcff320072
:1030440040138000007d88008820a9000000210032
:103054003fb9970080004100f00f2000008060001d
:103064004013880088c0bf00624060000004e00094
:10307400fcff3200e922a800e922a90040138000e5
:10308400007d88008820a900700420004013880077
:1030940088c0bf00624060000004e000fcff320012
:1030a40040138000007d88008820a90000002100d2
:1030b400bfb89700008040004800de00401388003d
:1030c40088c0bf00624060000004e000fcff3200e2
:1030d400e922a800e922a90060c2a90040138000e7
:1030e400007d88008820a900a007200040138800e4
:1030f40088c0bf00624060000004e000fcff3200b2
:1031040060c2bf00624060000004e000fcff3a00bf
:1031140040138000007d88000000eb00401388000d
:103124001000370060c2bf00624060000004e0008d
:10313400fcff3a0040138000007d88004fb89700e0
:10314400104078000080fb00401388004fb89700bf
:103154000000e800c0bf9f005fb897000000e900ce
:10316400d0bf9f005fb897000000e000edff3a0079
:103174001000370060c2bf00624060000004e0003d
:10318400fcff3a0040138000007d88006fb8970070
:10319400104078000080fb00401388006fb897004f
:1031a4000000e800e0bf9f007fb897000000e9003e
:1031b400f0bf9f007fb897000000e000edff3a00e9
:1031c40060c2bf00624060000004e000fcff3a00ff
:1031d4008820a90040138000007d880060c2a900f7
:1031e400e922a80081c0b300f0c1b3002dfe07009e
:1031f4009000200014090700d622a8000080fa00dd
:10320400000006001200fa00b0bf9f00c1bf9f007b
:1032140090c3b30065fd07000004e00003003a001a
:103224000000eb00d0bf9f0039003700107d800004
:10323400804078000040eb0092fd0700107d800084
:103244004800de008040780010c0b3008dfd070008
:1032540070805700610020007ffe070070805700d7
:1032640010007800107d880070805700a000900046
:1032740000082000008060000000e00003003a0025
:103284008000eb00d1bf9f00210037007080570001
:103294001000900064005000f0b79f004fb89700f2
:1032a400f0bf9f00ffb09700e1bf9f006fb8970089
:1032b400ffb89700810f5000020036007fb89700d6
:1032c400e0bf9f00efb89700f1b79f00ffb09700f1
:1032d4003fb8970060fe0700107d800080407800b2
:1032e400c0c0b30067fd0700107d80004800de0009
:1032f40080407800d0c0b30062fd070001c4b30071
:10330400e0c1b300e7fd07007fb09700d0bf9f0086
:0c3314005fb897000080fa00000006007f
:020000040000fa
:103320000c400000f4070000020000000000000054
:10333000000000000000000000000000000000008d
:10334000000000000000000000000000000000007d
:10335000000000000000000000000000000000006d
:10336000000000000000000000000000000000005d
:103dc00000000000000000006e0f00002400000052
:103dd00002000000000000000000000000000000e1
:103de00000000000000000000000000000000000d3
:103df0000000000000000000000000000000f800cb
:103e0000850d860000080000ee060000000000009e
:103e1000a40f00000200000002000000ff000000ec
:103e2000a00f00000400000000000000920f00003e
:103e30000e00000000000000ee0e000080000000f8
:103e400002000000ee5c5b006698eb00a5116800c4
:103e5000aa0bcc00d7011a00b6dc03007a1aac001a
:103e6000dab2e000a60b0d0033d1fe0062eebf0017
:103e7000e1e4f20055161b00f8eebb001e318e0087
:103e800006871a007519db00b944e200a6d41f00aa
:103e9000aa993d0055826d00038c290001be6b007c
:103ea000bbc281002f7eec0053dfdd00528c52003c
:103eb000dad83c00aad86100c80b5b001b903b001d
:103ec000466b0100c8b15c00aa5dd9000a25c2009a
:103ed000a85c1100123a0300cf30d300b127f300e1
:103ee00063f6990033df200025949d006b460000a7
:043ef00000000000ce
:020000040000fa
:103ef4000a00fa00d0bf9f00ea8057005fb897001d
:103f04000e0007000000e00004003a006000b80062
:103f1400e0bf9f00f1bf9f00040037003fb8970047
:103f2400cfb89700e0bf9f00f1bf9f006fb8970024
:103f3400ffb897000080fa00000006002e00fa0087
:103f440090b79f00a1b79f0020fd2f000f004000f5
:103f5400b0b79f001fb097001040780080ef9f001b
:103f6400f0c2b3008fe8970080cf50000400360001
:103f740090c3b3000fe99700804f5100030036004f
:103f84008001eb00f3bf9f00810137006000b8009f
:103f940090bf9f00a1bf9f00a2002000030020004b
:103fa400f2b79f0083bf9f0000c3b3008fe997005f
:103fb40080cf51001e003a001fb097000000e800b7
:103fc40090b79f001fb097001040780080ef9f00cb
:103fd40080c7b3008fe8970080cf50000400320000
:103fe40080c5b3000fe99700804f51000b003a00e1
:103ff4000001200001002000f0b79f0081bf9f0056
:104004001fb097000000e80090b79f001fb0970012
:104014001040780080ef9f000500370082002000e8
:1040240003002000f2b79f0083bf9f000000370009
:104034000fe897000004e00025003500f0c2b3004b
:104044008fe9970080cf51002100360090c3b30060
:104054008fe8970080cf50001d003e007fb297008c
:104064008fba97009fb8970004007800000bb8003f
:104074001fb997000590b9000701780000014100bd
:10408400afb9970003a0b900000141008203780092
:104094000fe897008080fb0000fd2f0000804000a7
:1040a400cf80de00060340008783480096bf9f0050
:1040b400a7bf9f001fb097000000e80090b79f00c3
:1040c4001fb097001040780080ef9f00d8ff3700a2
:1040d40000012000010020007fb197008fb99700f4
:1040e400800f5100818f59003d003a000fe897007e
:1040f4000004e0003a003500f0c2b3008fe99700f5
:1041040080cf51000400360090c3b3008fe89700bd
:1041140080cf50000800360000c4b3000fe99700b8
:10412400804f51002e00360060c4b3008fe9970021
:1041340080cf51002a003e001fb99700afb9970005
:104144004418dd00cc10de00810070004410dd0056
:10415400d0bf9f00e1bf9f008fe997008381fb00e0
:10416400c3bf9f0000c6b3008fe8970080cf500004
:1041740007003600a0c7b3000fe99700804f510035
:1041840003003e00f3f92f00b3bf9f000200370085
:10419400f0fb2f00b0bf9f00cfb897003fb9970046
:1041a400028040006a004000cf80de005fb99700c3
:1041b400efb99700000071008180710090bf9f00eb
:1041c400a1bf9f001fb097000000e80090b79f00b8
:1041d4001fb097001040780080ef9f0094ff3700d5
:1041e400e0c2b3008fe9970080cf510017003a0076
:1041f40021fd2f008f8040006c8040003fb197006c
:10420400820f500003003e008001eb00f3bf9f00cb
:10421400df0037001fb89700afb897003fb1970091
:104224000089be00bfb19700e4814100b3b79f008d
:104234001fb097000000e80090b79f001fb09700e0
:104244001040780080ef9f0045ff37000fe897008b
:104254000004e000190032000fe897000004e000b9
:104264001300350000c2b3008fe8970080cf5000e0
:10427400120032000fe99700e94f51000f0032009d
:104284008fe99700eacf51000c0032000fe8970045
:10429400eb4f5000090032008fe89700eccf50003c
:1042a400060032000fe99700ed4f51000300320081
:1042b4008001eb00f3bf9f00b5003700bfb097004b
:1042c40020fd2f000f004000008050004280de00df
:1042d4000000e8006101b900d2b79f00e3b79f0076
:1042e40020002000010020005fb19700efb197008b
:1042f400800f5100818f59001f00320020002000e0
:10430400010020005fb19700efb19700800f5100ca
:10431400818f590006003c005fb09700efb0970012
:10432400e00f5000e08f5800100032008e0037007c
:1043340030002000010020005fb19700efb197002a
:10434400800f5100818f5900270032004000200067
:10435400010020005fb19700efb19700800f51007a
:10436400818f5900490032007f0037008001eb0043
:10437400f3bf9f0086003700f0ff2f00f10f2000ed
:104384001fb99700afb99700800f5100818f590072
:1043940007003e001fa99700afa99700f00f200067
:1043a40001002000800f5100818f59000300360066
:1043b4008001eb00f3bf9f00750037001fa8970032
:1043c400afa89700c800dd00000020001fb99700c7
:1043d400afb99700000171008181710092bf9f0005
:1043e400a3bf9f0060003700f0ff2f0001002000f2
:1043f4001fb99700afb99700800f5100818f590002
:104404000e003e001fa99700afa99700f00f2000ef
:1044140001002000800f5100818f590007003e00e9
:104424003fa99700cfa99700f00f200001002000ba
:10443400800f5100818f5900030036008001eb008a
:10444400f3bf9f00520037001fa89700afa8970042
:10445400c801dd00020020003fa89700cfa8970004
:10446400c000dd00000020000000710081807100a8
:104474001fb99700afb997000001710081817100e5
:1044840092bf9f00a3bf9f0037003700f00f2000aa
:10449400010020001fb99700afb99700800f5100a9
:1044a400818f590015003e001fa99700afa99700fe
:1044b400f00f200001002000800f5100818f59006f
:1044c4000e003e003fa99700cfa99700f00f2000ef
:1044d40001002000800f5100818f590007003e0029
:1044e4005fa99700efa99700f00f200001002000ba
:1044f400800f5100818f5900030036008001eb00ca
:10450400f3bf9f00220037001fa89700afa89700b1
:10451400c801dd00020020003fa89700cfa8970043
:10452400c000dd00000020000001710081817100e5
:104534005fa89700efa89700c808dd000080fd0081
:10454400804078000040eb00000071008180710021
:104554001fb99700afb99700000171008181710004
:1045640092bf9f00a3bf9f002fb097000000e00000
:10457400050032001fb89700afb897000700070086
:104584002fb197000089be0013002000f3bf9f00e5
:104594007fb897000080fa00000006000600fa00c9
:1045a400e0bf9f00f1bf9f00668057000080e800d5
:1045b400d0bf9f005fb89700104078000080fb00d8
:1045c40001002000c801dd0002002000dfb89700d0
:1045d4000100e800104078000080fb00010020008a
:1045e400c000dd0000002000000171008181710025
:1045f400dfb897000180e800104078000080fb00dd
:1046040001002000c808dd000080fd008040780023
:104614000040eb000001710081817100dfb8970058
:1046240063804000104078000080fb0001002000ff
:1046340000007100818071000080fa000000060013
:104644000c00fa00b0bf9f00c1bf9f00d2bf9f0003
:10465400e4bf9f00f5bf9f003fb89700c24e200003
:104664008000eb004cf10700bfb8970010c0b30006
:1046740080487800bfb8970010c0b30090409800fd
:10468400bfb8970060c0b300a0409800bfb89700bf
:104694000040eb00b0409800bfb89700000820002d
:1046a400d00098003fb897006fb99700ffb9970002
:1046b40022009800330098003fb89700fc004000a7
:1046c4005fb8970005000900b05878006100b10098
:1046d4006000b1003fb89700c30e20008301400082
:1046e400a3bf9f00afb8970030c6b30080487800de
:1046f4002fb897000000e800a0bf9f00afb8970054
:1047040020c8b30080487800afb897008100e80063
:10471400a1bf9f00afb8970030c5b30080487800b0
:104724002fb997000201e800a2bf9f00afb897001d
:1047340030c6b30080487800afb997008301e80021
:10474400a3bf9f00afb8970050c3b3008048780060
:104754002fb897000000e800a0bf9f00afb89700f3
:1047640010c0b30080487800afb897008100e8001b
:10477400a1bf9f004fb89700804078002fb89700e2
:10478400014878002fb997000201e800a2bf9f00fa
:104794002fb897000080fa00000006000a00fa0013
:1047a400c0bf9f00d1bf9f00e2bf9f00f3bf9f0027
:1047b4006fba9700ffba97005fb997001100200005
:1047c4004fb897009eff0700b0bf9f00bfb8970087
:1047d40070c3b300804878003fb897000000e80039
:1047e400b0bf9f00bfb8970040c0b30080487800b6
:1047f4003fb897000000e800b0bf9f00bfb8970023
:1048040010c0b300804878003fb897000000e8006b
:10481400b0bf9f00bfb8970030c0b3008048780095
:104824003fb897000000e800b0bf9f00bfb89700f2
:1048340060c0b300804878003fb897000000e800eb
:10484400b0bf9f00bfb89700c0c1b30080487800d4
:104854003fb897000000e800b0bf9f00bfb89700c2
:1048640000c0eb00804878003fb897000000e800e3
:10487400b0bf9f00bfb897004fb89700c00eb000fc
:1048840000805000c00eb0000080fa000000060056
:104894001200fa0080bf9f0091bf9f00a2bf9f003b
:1048a400b3bf9f00c4bf9f00d5bf9f00e6bf9f005a
:1048b400f7bf9f002fba9700bfba97001fb99700a0
:1048c400310020000fb897005dff0700f0b79f008c
:1048d400ffb0970070c3b300804878007fb09700a2
:1048e4000000e800f0b79f00ffb0970040c0b3009d
:1048f400804878007fb097000000e800f0b79f0080
:10490400ffb0970010c0b300804878007fb09700d4
:104914000000e800f0b79f00ffb0970030c0b3007c
:10492400804878007fb097000000e800f0b79f004f
:10493400ffb0970060c0b300804878007fb0970054
:104944000000e800f0b79f00ffb09700c0c1b300bb
:10495400804878007fb097000000e800f0b79f001f
:10496400ffb0970020c3b300804878007fb0970061
:104974000000e800f0b79f00ffb0970040c0b3000c
:10498400804878007fb097000000e800f0b79f00ef
:10499400ffb097006880570003000900b058780002
:1049a4004100b1004000b1007fb0970064004000b6
:1049b400f0b79f00ffb0970060c3b3008048780051
:1049c4007fb097000000e800f0b79f00ffb09700a9
:1049d40040c0b300804878007fb097000000e80032
:1049e400f0b79f00ffb097006480570003000900f0
:1049f400b05878004100b1004000b1007fb097008a
:104a040064004000f0b79f00ffb0970000c0eb00c7
:104a1400804878007fb097000000e800f0b79f005e
:104a2400ffb097000fb89700c00eb0000080500090
:104a3400c00eb0000080fa00000006000000eb0089
:104a4400101388006342a90062e2a90062a2a800d0
:104a540062c2bf003040b30062e2b70021262000ea
:104a64009140780030ceb30000c060008041b300b4
:104a740062e2b70065e2a90065a2a8009820a90037
:104a84008820a90060c2a90061e2a80060c2bf003a
:104a9400624060000004e000fcff3a00e922a80044
:104aa400dce2a800dcc2a800dca2a800dc42a90069
:104ab400dc62a900dc82a900000006000200fa0002
:104ac400e0ff9f00dce2a800dcc2a800dca2a80092
:104ad400dc42a900dc62a900dc82a900eff897009f
:104ae4000180fb00010f200001006000f00f500066
:104af40002003a00e902a900e8c2a9006ff8970091
:104b04008080fb00000f20008080600000022000f5
:104b1400808f500002003a00e902a800e8c2a80011
:104b240080b52100010020004dee07000080fa004e
:104b3400000006000800fa00c0ff9f00f1bf9f00bc
:104b44007fb89700d0bf9f004ff89700f14f5000f7
:104b540001003a00dce2a9004ff89700f24f500040
:104b640001003a00dcc2a9004ff89700f34f50004f
:104b740001003a00dca2a900cff8970010c2b300ec
:104b840080cf500001003a00dc42a800cff8970023
:104b940020c2b30080cf500001003a00dc62a800bc
:104ba400cff8970030c2b30080cf500001003a0024
:104bb400dc82a80080b521000100200028ee070057
:104bc4004ff897008080fb00000f200000806000f9
:104bd400f00f50001c003a000000eb00c0bf9f0023
:104be400160037005fb8970001002800010060003c
:104bf4000000e00002003200e902a80001003700d2
:104c0400e902a90080b521000100200014ee07008c
:104c1400e8c2a80080b521000100200010ee0700c2
:104c2400e8c2a9005fb8970000004000d0bf9f0011
:104c34004fb897000000e800c0bf9f004fb897002e
:104c4400ef0f5000e7ff34004ff897008080fb001f
:104c5400000f20008080600000022000808f500040
:104c64001c003a000000eb00c0bf9f001600370094
:104c74005fb8970001002800010060000000e00018
:104c840002003200e902a90001003700e902a8008d
:104c940080b5210001002000f1ed0700e8c2a90061
:104ca40080b5210001002000eded0700e8c2a80056
:104cb4005fb8970000004000d0bf9f004fb8970036
:104cc4000000e800c0bf9f004fb89700ef0f5000ee
:104cd400e7ff340080b5210001002000e0ed07006b
:104ce4004ff89700f14f500001003a00dce2a800b1
:104cf4004ff89700f24f500001003a00dcc2a800c0
:104d04004ff89700f34f500001003a00dca2a800ce
:104d1400cff8970010c2b30080cf500001003a00d2
:104d2400dc42a900cff8970020c2b30080cf500026
:104d340001003a00dc62a900cff8970030c2b3004a
:104d440080cf500001003a00dc82a9004ff89700a0
:104d54008080fb00000f200000806000f00f5000f6
:104d640001003a00e902a9004ff897008080fb0097
:104d7400000f20008080600000022000808f50001f
:104d840001003a00e902a80080b5210001002000da
:104d9400b3ed07000080fa00000006001000fa00de
:104da400c0bf9f00d1bf9f004fb8970090bf9f0026
:104db4006000b800a0bf9f00b1bf9f006c80570087
:104dc4000080e80080bf9f000f0037001fb89700e5
:104dd400100078006101b8002fb89700bfb89700a1
:104de4000200400083804800a0bf9f00b1bf9f0025
:104df4005fb897000080e900d0bf9f001fb89700fc
:104e04000080e80090bf9f005fb89700e10f50005a
:104e1400eeff3e005fb897000000e0002f00320074
:104e24001fb89700104078000080fb004800dd00a8
:104e34006101b9002fb89700bfb897000200400085
:104e440083804800a0bf9f00b1bf9f0023003700ac
:104e54002fb89700bfb89700f2ff2f00030020007f
:104e64000002780081027800020078008300780054
:104e740000026200018062006101b800e2bf9f008d
:104e8400f3bf9f006fb89700ffb89700c000dd0024
:104e940000002000e0bf9f00f1bf9f006fb99700a2
:104ea400ffb997006120b800e0bf9f00f1bf9f00e9
:104eb4006fb89700ffb897000001710081817100fd
:104ec4000fb8970010007800010020000200400095
:104ed40083804800a0bf9f00b1bf9f000fb8970018
:104ee400100078000000e000d9ff3a002fb89700c6
:104ef400bfb897000080ea000080fa0000000600b6
:104f04000200fa00f0bf9f00ffb89700214890000c
:104f140060406000a0489800314890006040600004
:104f2400b04898007fb89700904078006fc0600048
:104f34000080fb004200dd00800078007fb897000d
:104f440096ff070080017800ffb89700f00f20005b
:104f540000816100214890006040600002407000c0
:104f6400a04898004819de00314890006040600075
:104f740002407000b04898000080fa00000006006b
:104f84000400fa00e0bf9f00f1bf9f00efb8970054
:104f94000000eb00900098007fb89700e800400004
:104fa4006fb897007dff0700800078006fb8970006
:104fb400110098000080fa00000006000400fa00c6
:104fc400f0bf9f007fb8970074004000e0bf9f00cf
:104fd400efb897006140900060406000e0409800a6
:104fe4007140900060406000f04098000080fa003a
:104ff400000006000a00fa00e0bf9f00f1bf9f0016
:105004006fb89700ea80570005000900b05878008f
:105014006100b1006000b100efb897007fb897005d
:1050240005000900b05878006100b1006000b100cb
:105034007fb89700ea8057000500090031587800ce
:105044006000b1006100b1000080fa0000000600b9
:105054000800fa00f0bf9f007fb89700e88057006f
:1050640005000900b05878006100b1006000b1008b
:105074007fb89700e60040007fb89700050009005c
:10508400315878006000b1006100b1007fb897002a
:1050940066004000e8805700050009003158780098
:1050a4006000b1006100b1000080fa000000060059
:1050b400417420009140780000ceb30000c060002d
:1050c4003040b30044e7b700313a800000e02f00dd
:1050d400008060006102200001007000303a880006
:1050e40044c7bf00f043b20044e7b70032002000d9
:1050f40081072000a0092000337420008149780032
:105104008049780082497800120020006104200060
:1051140070052000237420008149780080497800bc
:105124008249780043c7bf0002c7b30082406000d1
:1051340000c3b30080cf5000faff3a0042c7bf005b
:105144000042b2000004e000fcff32000000eb006b
:10515400501688000000eb00801688000000eb0069
:10516400b01688000000eb00e01688000000eb0099
:10517400101788000000eb0040178800f0002000a2
:10518400301688000000eb00901688000000eb0049
:10519400c016880000042000f016880000082000d3
:1051a40020178800d662a800d642a800d622a800fc
:1051b4002143a80021c3bf000080fb004200de00a1
:1051c40061406000614060004201dd001136200052
:1051d40091407800b0cfb30000c06000024070007e
:1051e40061e3b70000fe2f006019880000fe2f0065
:1051f400601b88002043a80020c3bf000080fb0080
:105204004200de0061406000614060004201dd0058
:105214000136200091407800b0cfb30000c0600098
:105224000240700060e3b700013220009140780032
:1052340000ceb30000c0700020e3b70020c3bf005d
:105244000080fb004500de00c500dd0060c3bf0038
:105254007f4060000140700060e3b700113220001d
:1052640091407800c0cfb30000c0600021e3b700d4
:1052740021c3bf0063406000634160001136200019
:1052840091407800c0cfb30000c0600002407000bd
:1052940061e3b70023c3bf007f40600001c2b300d5
:1052a4000140700023e3b70023c3bf000080fb006c
:1052b4004500de00c500dd0023c3bf007f40600061
:1052c4000140700023e3b70050c0b30024e3b700eb
:1052d40024c3bf0064e3b70025e3a90025c3bf00ce
:1052e4000080fb004700de00c700dd0065c3bf008f
:1052f4000074a1000140700065e3b7005132200042
:105304009140780000ceb30000c060000024a000eb
:1053140025e3b70025c3bf007f4060007f416000e4
:10532400513620009140780000ceb30000c06000e8
:105334000240700065e3b7003132200091407800ec
:10534400c0cfb30000c0600023e3b70023c3bf0095
:105354006340600063416000313620009140780072
:10536400c0cfb30000c060000240700063e3b70028
:10537400e902a900e8c2a9000000060022f9200001
:105384006000b8000089be00640141006000b800fc
:105394000089be00640141006000b8000089be00bd
:1053a400640141000000eb0000097800917c80005a
:1053b40000002f00008060004155200001007000b3
:1053c400907c8800a17c800000002f000080600099
:1053d4004155200001007000a07c8800b17c800051
:1053e40000002f0000806000415520000100700083
:1053f400b07c88000000060061e2a90060c2bf0022
:10540400624060000004e000fcff3a00938fa800b3
:1054140093afa800958fa80095afa800978fa80018
:1054240097afa800990fa90099afa90099cfa80038
:1054340099efa9009b0fa9009bafa9009bcfa800df
:105444009befa9009d0fa9009dafa9009dcfa800c7
:105454009defa9009f0fa9009fafa9009fcfa800af
:105464009fefa90010c2b30094fd0700f17c8000f7
:1054740010c2b300affd07000000000000000000f0
:10548400000000000000000020c2b3008bfd0700f4
:10549400f17c800020c2b300a6fd070000000000dc
:1054a40000000000000000000000000030c2b30053
:1054b40082fd0700f17c800030c2b3009dfd07002f
:1054c40000000000000000000000000000000000d8
:1054d40010c1b30079fd0700917c800010c1b300b6
:1054e40094fd070000000000000000000000000020
:1054f4000000000020c1b30070fd0700a17c800003
:1055040020c1b3008bfd0700000000000000000074
:10551400000000000000000030c1b30067fd070078
:10552400b17c800030c1b30082fd070000000000a0
:1055340000000000000000000000000010c2b300e2
:105544005efd0700c17c800010c2b30079fd070036
:105554000000000000000000000000000000000047
:1055640020c2b30055fd0700d17c800020c2b300e7
:1055740070fd0700000000000000000000000000b3
:105584000000000030c2b3004cfd0700e17c800045
:1055940030c2b30067fd07000000000000000000f7
:1055a400000000000000000061e2a80060c2bf002b
:1055b400624060000004e000fcff3a0000000600c6
:1055c4000400fa00f0bf9f00090037000005200026
:1055d400e0bf9f006fb897000000e900e0bf9f00a4
:1055e4006fb897000000e00001003200f9ff3700b7
:1055f4007fb897000000e900f0bf9f007fb89700d4
:10560400e10f4000f1ff3a000080fa0000000600bc
:105614000200fa00f0bf9f000300370000c4290015
:10562400010020008eeb07007fb897000000e9001e
:10563400f0bf9f007fb89700e10f4000f7ff3a00ea
:105644000080fa00000006000200fa00f0bf9f008c
:105654000300370000fa20000100200080eb07005f
:105664007fb897000000e900f0bf9f007fb8970063
:10567400e10f4000f7ff3a000080fa000000060046
:00000001FF
