:100000000C946A000C9492000C9492000C94920050
:100010000C9492000C9492000C9492000C94920018
:100020000C9492000C9492000C9492000C94920008
:100030000C9492000C9492000C9492000C949200F8
:100040000C94A5090C9492000C94A5080C947F08BC
:100050000C9492000C9492000C9492000C949200D8
:100060000C9492000C9492000000000024002700E1
:100070002A0000000000250028002B0000000008D6
:10008000000201000003040700000000000000005F
:1000900000000000230026002900040404040404D6
:1000A0000404020202020202030303030303010227
:1000B00004081020408001020408102001020408F6
:1000C00010207C3C3E5E2B3D3F2F5B5D3B2C2A226B
:1000D0005C009D1311241FBECFEFD8E0DEBFCDBF63
:1000E00025E0AEE2B2E001C01D92AF32B207E1F707
:1000F00012E0A0E0B1E0E4E6FAE302C005900D9260
:10010000AE32B107D9F710E0CAE6D0E004C02197BB
:10011000FE010E940919C936D107C9F70E94E513EB
:100120000C94301D0C940000FC01DB0112968D91A3
:100130009C9113979383828382E491E091838083DF
:1001400014968C911497848315968C9115978583BA
:1001500016964D915D916D917C91199746835783C9
:10016000608771871A964D915D916D917C911D9775
:1001700042875387648775871E964D915D916D9177
:100180007C91519746875787608B718B52968C91E3
:100190005297828B53964D915D916D917C915697BC
:1001A000438B548B658B768B57964D915D916D91FA
:1001B0007C915A97478B508F618F728F5B968D9190
:1001C0009C915C97948F838F0895DC015996ED91F3
:1001D000FC915A973097B9F083899489A589B6899B
:1001E0004285538564857585841B950BA60BB70BDB
:1001F000811520E89207A105B10538F08FEF9FE740
:10020000A0E0B0E0089580E090E00895CF93DF9300
:100210001F92CDB7DEB76983DC01ED91FC910280BE
:10022000F381E02D41E050E0BE016F5F7F4F099503
:100230000F90DF91CF910895FC01818D928D0097F1
:1002400011F00C949C0C0895CF93DF93EC01898DF1
:100250009A8D009739F481E090E09B838A8380E057
:1002600090E00BC0FC01138212820E94300FE98DD6
:10027000FA8D22813381232B71F7DF91CF9108957D
:10028000EF92FF920F931F93CF93DF93EC017B01CB
:100290008A011B821A8288EE93E0A0E0B0E08C8392
:1002A0009D83AE83BF8382E191E0998388838DE152
:1002B00090E00E94A61B9A8F898F009779F02DE11C
:1002C000F701DC0101900D922A95E1F74CE050E036
:1002D000B801CE010C960E94E51C188EDF91CF91DB
:1002E0001F910F91FF90EF9008958EBD00000DB407
:1002F00007FEFDCF8EB508958CBD9DBD08952F924C
:100300003F924F925F926F927F928F929F92AF92A5
:10031000BF92CF92DF92EF92FF920F931F93CF93F2
:10032000DF9300D0CDB7DEB7FC018581882309F4C7
:10033000D9C0848180FFD6C021E02A8343895489B3
:100340006589768982859385A485B585481759077F
:100350006A077B0709F41A826F013A81832F90E0C4
:10036000DE0111964D013F01B6E06B0E711C892B29
:1003700009F47DC0D6011A964D915D916D917C91E5
:100380001D975A01B1E0BB22F60125811A012B010C
:1003900089E056944794379427948A95D1F7838DB2
:1003A000948D223061F4FC01828D938DA48DB58DE6
:1003B000BC01CD01620D731D841D951D45C0DC017E
:1003C00014961C9111501221A114B104D1F41111F1
:1003D00018C0452B462B472B51F4F6018789908D89
:1003E000A18DB28D86839783A087B1870AC046818D
:1003F00057816085718593010E94150B882309F44C
:1004000071C0F601238D348D86819781A085B185D9
:100410000297A109B109AC01BD01F901058404C02D
:10042000440F551F661F771F0A94D2F7868597855C
:10043000A089B189840F951FA61FB71FBC01CD01EC
:10044000610F711D811D911DD60114962C9126FFFF
:1004500014C000910001109101012091020130911E
:100460000301601771078207930751F506C0FA81EF
:10047000FF23C1F1898190E037C040E00E942C0A3F
:10048000882381F1F501EE5CFD4FD401CF01019687
:10049000E817F90719F021912D93FACFEFEF8E1A93
:1004A0009E0AF60182859385A485B5850196A11DD6
:1004B000B11D82879387A487B58780E090E057CFEE
:1004C000740101E010E09501AB01BC0180913204A0
:1004D000909133040E94310E882321F0BFEF8B1AD4
:1004E0009B0ADFCF8FEF9FEF0F900F90DF91CF919F
:1004F0001F910F91FF90EF90DF90CF90BF90AF9042
:100500009F908F907F906F905F904F903F902F9033
:100510000895FC01818D928D009711F00C947F015C
:100520008FEF9FEF08950F931F93CF93DF93FC01FD
:10053000818D928D0097B9F0EF010E947F018C01AF
:100540000F3F8FEF180791F0898D9A8DFC0142853E
:1005500053856485758541505109610971090E946F
:10056000DA0CC80105C080E090E002C08FEF9FEF79
:10057000DF91CF911F910F910895CF93DF93CDB766
:10058000DEB7CE52D4400FB6F894DEBF0FBECDBF5B
:100590008E010F5D1C4F80E1D801E82F1D92EA9576
:1005A000E9F7FE01EF5CFC4FDF01982F1D929A9551
:1005B000E9F77096DF01982F1D929A95E9F77096EA
:1005C000DF01982F1D929A95E9F740E050E86BE320
:1005D00076E4CF57DC4F488359836A837B83C158C5
:1005E000D340CB57DC4F188219821A821B82C55820
:1005F000D340C757DC4F188219821A821B82C95810
:10060000D340C357DC4F188219821A821B82CD58FF
:10061000D340CF56DC4F188219821A821B82C159EF
:10062000D340E85AFF4FDF011D928A95E9F74AE06F
:100630006CEB73E080E090E00E94670768EE73E087
:1006400080E090E00E945F0980912F02909130023B
:10065000892B09F0D8C080E591E00E94590784E316
:1006600094E00E94F40660E177E280E090E00E946E
:100670005F098EEC91E00E94711186E691E00E9484
:10068000711188E691E00E9471118AE691E00E9462
:1006900071118CE691E00E9471118EE691E00E944A
:1006A000711180E791E00E947111CE0101960E94C4
:1006B000771182E791E00E947111F80180819181A8
:1006C000A281B381CF59DC4F88839983AA83BB83EE
:1006D000C156D340CB5DDC4F88819981AA81BB8113
:1006E000C552D340CB59DC4F88839983AA83BB83FF
:1006F000C556D340C75DDC4F88819981AA81BB81F3
:10070000C952D340C759DC4F88839983AA83BB83DE
:10071000C956D340C35DDC4F88819981AA81BB81D2
:10072000CD52D340C359DC4F88839983AA83BB83BE
:10073000CD56D34084E791E00E94711186E791E0A5
:100740000E94711160EA7FE080E090E00E945F0902
:100750008BE192E00E947111CE0101960E94771107
:10076000F80180819181A281B381CF58DC4F8883C9
:100770009983AA83BB83C157D340CB5DDC4F88816B
:100780009981AA81BB81C552D340CB58DC4F888365
:100790009983AA83BB83C557D340C75DDC4F88814B
:1007A0009981AA81BB81C952D340C758DC4F888345
:1007B0009983AA83BB83C957D340C35DDC4F88812B
:1007C0009981AA81BB81CD52D340C358DC4F888325
:1007D0009983AA83BB83CD57D34060EA7FE080E052
:1007E00090E00E945F0981E090E090933002809356
:1007F0002F0288E791E00E94711168EE73E080E0BB
:1008000090E00E945F0980912F0290913002892B25
:1008100009F403C28AE791E00E94590768EC70E08E
:1008200080E090E00E945F091092DE041092DC04E8
:100830001092D9041092D8048AE08093D7040E94C1
:1008400099098B0161E08091D7040E94230961E03E
:100850008091D7040E94D708FFB6F89480912E02A9
:10086000811127C0E4EAF0E08491E8EBF0E0949194
:10087000E82FF0E0EE0FFF1FE859FF4FA591B4916C
:10088000EC91E92321F461E08AE00E94D70861E05D
:100890008AE00E9423098CB580618CBD8CB5806490
:1008A0008CBD61E08DE00E94230961E08BE00E9435
:1008B000230980912E028F5F80932E02FFBE82E576
:1008C0008093D1041092D2048091D1049091D204EB
:1008D0000E947C015AE0F52E8FEF0E947501FA9478
:1008E000F110FACF83ED94E00E94760D20E030E025
:1008F000A90160E083ED94E00E94CF0DF82E809373
:10090000DD0481E0F81649F00E949909601B710B23
:10091000613D774058F381E056C02AEA31E040E07B
:1009200050E068E083ED94E00E94CF0D82FF03C0A9
:10093000F092DE0410C044E0F42E0E94970D8093E4
:10094000DD04FA94F110F9CF8A3A11F082E03BC04D
:1009500082E08093DE048091DE04823021F0C12C9D
:10096000D12C760105C0C12CD12CE12C30E4F32E22
:1009700020E030E0A90167E383ED94E00E94CF0D11
:10098000A701960169E283ED94E00E94CF0D809368
:10099000DD04882349F00E949909601B710B613DB9
:1009A000774030F388E00FC08091DE04823001F59B
:1009B00020E030E0A9016AE383ED94E00E94CF0DCE
:1009C000882341F086E08093D80483ED94E00E9470
:1009D0008C0D91C00E94970D807C803C19F483E0BF
:1009E0008093DE040E94970D0E94970D0E94970D40
:1009F00083ED94E00E948C0D80E58093D1041092E9
:100A0000D20481E00E94A614882329F08091020577
:100A1000882341F070C080E00E94A614882309F466
:100A20006AC0F4CF8091F604803109F582E08093AA
:100A300002051092140510921505109216051092D9
:100A400017058091F7049091F804A0E0B0E025E04C
:100A5000880F991FAA1FBB1F2A95D1F780931005F5
:100A600090931105A0931205B09313051EC0803218
:100A700009F041C083E0809302054091F904509150
:100A8000FA046091FB047091FC04409314055093A8
:100A90001505609316057093170520E135E08FED7D
:100AA00094E00E94D515882331F18FED94E0909366
:100AB00019058093180581E08093010510920305C4
:100AC0001092040510920505109206051092070574
:100AD000109208051092090510920A0510920B0554
:100AE00010920C0510920D0510920E0510920F0534
:100AF00081E891E002C085E991E00E9459076DEF1D
:100B000074E0CE0183549C4F0E949400BE01635454
:100B10007C4FCE0189509C4F0E949400C452DC4F00
:100B200019821882CC5DD34082E491E0C652DC4F3A
:100B300099838883CA5DD340C152DC4F1882CF5D50
:100B4000D340C450DC4F8881CC5FD340811107C0B3
:100B5000C35DDB4F19821882CD52D4403EC0825013
:100B600023E14DEA51E0823050F46DEF74E0CE01A4
:100B700086529C4F0E944617811110C0E9CFBE01DA
:100B800069507C4FCE0186529C4F0E9446178823A5
:100B9000F9F2CE0189509C4F0E94FD18C351DC4FE1
:100BA000488159816A817B81CD5ED340CE018652D6
:100BB0009C4F0E94DA0CBE0166527C4FCE018354DA
:100BC0009C4F0E9494004DEA51E0BE0163547C4F5B
:100BD000CE018C5E9B4F0E944001C35DDB4F0881BC
:100BE0001981CD52D4400115110551F0D801159647
:100BF0008C91882329F08AEB91E00E94470707C077
:100C000080ED91E00E9447070115110531F0C80100
:100C10000E94FD18C8010E943B1C83EF91E00E94D6
:100C2000470760E070E0CB010E94A80789EF91E0E0
:100C30000E94470760E070E0CB010E94A80786E0B1
:100C400092E00E94470760E070E0CB010E94A80795
:100C5000E4CFCF92DF92EF92FF920F931F93CF9347
:100C6000DF936C017A018B01C0E0D0E0CE15DF0587
:100C700089F0D8016D918D01D601ED91FC91019023
:100C8000F081E02DC6010995892B11F47E0102C087
:100C90002196ECCFC701DF91CF911F910F91FF906B
:100CA000EF90DF90CF900895FC01918D828D981781
:100CB00061F0828DDF01A80FB11D5D968C91928D40
:100CC0009F5F9F73928F90E008958FEF9FEF08953D
:100CD000FC01918D828D981731F0828DE80FF11D06
:100CE000858D90E008958FEF9FEF0895FC01918D21
:100CF000228D892F90E0805C9F4F821B91098F731A
:100D00009927089584E394E00E94760621E0892BD8
:100D100009F420E0822F0895FC01848DDF01A80FE3
:100D2000B11DA35ABF4F2C91848D90E001968F7313
:100D30009927848FA689B7892C93A089B1898C9132
:100D400080648C93938D848D981306C00288F389F8
:100D5000E02D80818F7D80830895EF92FF920F9325
:100D60001F93CF93DF93EC0181E0888F9B8D8C8D57
:100D7000981305C0E889F989808185FD24C0F62E85
:100D80000B8D10E00F5F1F4F0F731127E02E8C8D1E
:100D9000E8120CC00FB607FCFACFE889F989808108
:100DA00085FFF5CFCE010E948C06F1CF8B8DFE0121
:100DB000E80FF11DE35AFF4FF0820B8FEA89FB89A0
:100DC0008081806207C0EE89FF896083E889F989A4
:100DD00080818064808381E090E0DF91CF911F91DA
:100DE0000F91FF90EF900895CF93DF93EC01888DE2
:100DF0008823C9F0EA89FB89808185FD05C0A8891F
:100E0000B9898C9186FD0FC00FB607FCF5CF8081A4
:100E100085FFF2CFA889B9898C9185FFEDCFCE01EE
:100E20000E948C06E7CFDF91CF91089580E090E09B
:100E3000892B29F00E94820681110C9400000895EC
:100E40003FB7F8948091250590912605A09127053C
:100E5000B091280526B5A89B05C02F3F19F0019633
:100E6000A11DB11D3FBFBA2FA92F982F8827820F30
:100E7000911DA11DB11DBC01CD0142E0660F771F80
:100E8000881F991F4A95D1F708950E94D31C009797
:100E900069F0FC0101900020E9F73197AF01481B90
:100EA000590BBC0184E394E00C94290680E090E0A7
:100EB0000895CF93DF930E944707EC0182E192E00F
:100EC0000E9447078C0F9D1FDF91CF9108958F924D
:100ED0009F92AF92BF920F931F93CF93DF93CDB7A3
:100EE000DEB7A1970FB6F894DEBF0FBECDBF19A233
:100EF000423008F44AE08E010F5D1F4F842E912C82
:100F0000A12CB12CA50194010E94FF1CE62FB90170
:100F1000CA0101501109EA3014F4E05D01C0E95C36
:100F2000D801EC93232B242B252B61F7C8010E94B9
:100F30004707A1960FB6F894DEBF0FBECDBFDF9175
:100F4000CF911F910F91BF90AF909F908F90089578
:100F50004F925F926F927F928F929F92AF92BF92C9
:100F6000CF92DF92EF92FF926B017C019B01AC016B
:100F70000E948C1B882319F085E192E01AC046017B
:100F80005701E894B7F82FEF3FEF4FE75FE7C50150
:100F9000B4010E948C1B811110C02FEF3FEF4FE76F
:100FA0005FE7C501B4010E947C19181634F489E189
:100FB00092E00E9447077C018FC02FEF3FEF4FE781
:100FC0005FE4C701B6010E94D41A18161CF48DE123
:100FD00092E0EFCF2FEF3FEF4FE75FECC701B60195
:100FE0000E947C1987FDF3CF20E030E0A901C70102
:100FF000B6010E947C1987FF11C0E0913404F09182
:1010000035040190F081E02D6DE284E394E00995D0
:101010005C01F7FAF094F7F8F09402C0A12CB12C1F
:101020002AE037ED43EA5BE3C701B6010E941019DD
:101030002B013C010E94F3196B017C010E94221AD2
:101040009B01AC01C301B2010E940F192B013C01AD
:101050004AE0C701B6010E9467077C01EA0CFB1C4D
:10106000E0913404F09135040190F081E02D6EE2BE
:1010700084E394E00995E80EF91E20E030E040E2B8
:1010800051E4C301B2010E94D91A2B013C010E9414
:10109000F3194B01A12CB12C4AE0C501B4010E9407
:1010A0006707E80EF91EC501B4010E94221A9B01D0
:1010B000AC01C301B2010E940F1920E030E040E210
:1010C00051E40E94D91A0E94F31980E090E04AE0AE
:1010D0000E946707E80EF91E82E192E00E9447072E
:1010E0008E0D9F1DFF90EF90DF90CF90BF90AF903F
:1010F0009F908F907F906F905F904F9008951F9278
:101100000F920FB60F9211242F933F934F935F933B
:101110006F937F938F939F93AF93BF93EF93FF93BF
:1011200084E394E00E948C06FF91EF91BF91AF9110
:101130009F918F917F916F915F914F913F912F91EF
:101140000F900FBE0F901F9018951F920F920FB621
:101150000F9211242F938F939F93EF93FF93E0911E
:101160004404F09145048081E0914A04F0914B04DD
:1011700082FD12C0908180914D048F5F8F7320910A
:101180004E04821751F0E0914D04F0E0EC5CFB4F0F
:10119000958F80934D0401C08081FF91EF919F91C5
:1011A0008F912F910F900FBE0F901F90189590E088
:1011B000FC01E458FF4F3491FC01E255FF4F2491AC
:1011C000FC01E656FF4FE491EE2309F43BC03323C4
:1011D00039F1333091F038F43130A9F0323001F583
:1011E00084B58F7D12C0373091F03830A1F03430A3
:1011F000B9F4809180008F7D03C0809180008F774B
:10120000809380000DC084B58F7784BD09C0809124
:10121000B0008F7703C08091B0008F7D8093B000C5
:10122000F0E0EE0FFF1FEE58FF4FA591B4918FB77E
:10123000F894EC91611103C020952E2301C02E2B50
:101240002C938FBF0895CF93DF9390E0FC01E2557C
:10125000FF4F2491FC01E656FF4F8491882361F1F2
:1012600090E0880F991FFC01E859FF4FC591D49178
:10127000FC01EE58FF4FA591B491611109C09FB7D1
:10128000F8948881209582238883EC912E230BC0CB
:10129000623061F49FB7F8943881822F8095832360
:1012A0008883EC912E2B2C939FBF06C08FB7F894A8
:1012B000E8812E2B28838FBFDF91CF9108958F92E5
:1012C0009F92AF92BF92CF92DF92EF92FF926B010B
:1012D0007C010E9420074B015C01C114D104E10490
:1012E000F104F1F00E942007DC01CB018819990973
:1012F000AA09BB09883E9340A105B10570F321E01E
:10130000C21AD108E108F10888EE880E83E0981E21
:10131000A11CB11CC114D104E104F10419F7DDCF03
:10132000FF90EF90DF90CF90BF90AF909F908F9005
:1013300008952FB7F894609121057091220580914E
:101340002305909124052FBF08951F920F920FB689
:101350000F9211242F933F938F939F93AF93BF933B
:101360008091210590912205A0912305B09124053B
:101370003091200523E0230F2D3720F40196A11D85
:10138000B11D05C026E8230F0296A11DB11D2093B3
:1013900020058093210590932205A0932305B09307
:1013A00024058091250590912605A0912705B091EF
:1013B00028050196A11DB11D809325059093260552
:1013C000A0932705B0932805BF91AF919F918F916E
:1013D0003F912F910F900FBE0F901F901895CF93B4
:1013E000DF9380913102882399F1C0913204D0912A
:1013F000330440910001509101016091020170910C
:10140000030122E332E0CE010E94C50E811102C029
:1014100080E01FC040911C0550911D0560911E0584
:1014200070911F05411551056105710579F022E3A1
:1014300032E0CE010E94C50E882351F310921C05A4
:1014400010921D0510921E0510921F051092310278
:1014500081E0DF91CF9108958F929F92AF92BF92DA
:10146000EF92FF920F931F93CF934B015C01C42F18
:101470008091000190910101A0910201B0910301BE
:1014800088159905AA05BB0501F10E94EF09811194
:1014900002C080E020C082E3E82E82E0F82E00E067
:1014A00012E020E030E0B501A40180913204909177
:1014B00033040E94310E882361F3809200019092E0
:1014C0000101A0920201B092030180913102C82B68
:1014D000C093310281E0CF911F910F91FF90EF9067
:1014E000BF90AF909F908F9008954F925F926F92B0
:1014F0007F928F929F92AF92BF92CF92DF92EF92A4
:10150000FF920F931F93CF93DF93EC016A017B014E
:1015100028013901423051056105710510F480E060
:1015200073C089859A85AB85BC850196A11DB11DC7
:1015300084179507A607B70790F38B889C88AD881A
:10154000BE888F89803129F4BB27AF2D9E2D8D2D2C
:1015500009C0DB01CA0147E0B695A7959795879525
:101560004A95D1F7880E991EAA1EBB1E80910001D4
:1015700090910101A0910201B09103018816990692
:10158000AA06BB0679F48F898031A1F4DD24EE240C
:10159000FF24C601880F991FFC01EE5CFD4F5182AC
:1015A000408219C040E0C501B4010E942C0A81119B
:1015B000EACFB5CFE894C7F8DD24EE24FF24C601B6
:1015C000880F991F880F991FFC01EE5CFD4F408228
:1015D00051826282738280913102816080933102F4
:1015E0008A89823080F08D819E81AF81B885880E96
:1015F000991EAA1EBB1E80921C0590921D05A092EA
:101600001E05B0921F0581E0DF91CF911F910F91D0
:10161000FF90EF90DF90CF90BF90AF909F908F9012
:101620007F906F905F904F9008958F929F92AF92AE
:10163000BF92CF92DF92EF92FF920F931F93CF93BF
:10164000DF93FC0181859285A385B4850196A11D58
:10165000B11D84179507A607B70710F480E05CC09A
:1016600083899489A589B689C789C03129F4852ED3
:10167000962EA72EBB2409C04A015B01C7E0B69491
:10168000A79497948794CA95D1F7E9016A017B01E1
:101690008F01BC01CD01680D791D8A1D9B1D8090B5
:1016A000000190900101A0900201B0900301681523
:1016B00079058A059B0599F4F80187898031A9F499
:1016C000B701A601552766277727440F551FFA0152
:1016D000EE5CFD4F80819181A0E0B0E018C040E059
:1016E0000E942C0A8111E8CFB9CFB701A6014F772C
:1016F000552766277727440F551F440F551FFA01BA
:10170000EE5CFD4F80819181A281B381BF7088839F
:101710009983AA83BB8381E0DF91CF911F910F91C1
:10172000FF90EF90DF90CF90BF90AF909F908F9001
:1017300008953F924F925F926F927F928F929F9205
:10174000AF92BF92CF92DF92EF92FF920F931F93CF
:10175000CF93DF93CDB7DEB72C970FB6F894DEBFEB
:101760000FBECDBF5C01DC015B968D909C905C97B9
:101770001696CD90DD90ED90FC901997C114D10490
:10178000E104F10439F0BFEFCB1ADB0AEB0AFB0AE4
:10179000312C07C0F401C080D180E280F380332473
:1017A0003394F40181859285A385B4859C01AD01B4
:1017B0002F5F3F4F4F4F5F4F29873A874B875C879B
:1017C000260137011D821E821F821886F401818541
:1017D0009285A385B4852D813E814F815885281738
:1017E00039074A075B0708F063C089859A85AB858E
:1017F000BC858C159D05AE05BF0550F482E0C82E52
:10180000D12CE12CF12C92E0492E512C612C712C21
:101810009E012F5F3F4FB701A601C4010E94150B27
:10182000882309F445C089819A81AB81BC81892BC9
:101830008A2B8B2B41F0260137019FEF491A590A59
:10184000690A790A05C0C414D504E604F70491F0C6
:101850002D813E814F8158852F5F3F4F4F4F5F4F06
:101860002D833E834F8358873FEFC31AD30AE30A81
:10187000F30AACCF0FEF1FEF2FEF3FE0B301A20150
:10188000C4010E94750A882399F0D50116964D91DE
:101890005D916D917C911997411551056105710517
:1018A00049F093018201C4010E94750A811102C0AE
:1018B00080E02AC0D50116964D925D926D927C9281
:1018C0001997332051F0D301C2010196A11DB11D1A
:1018D000F40180839183A283B383F5018789908D7E
:1018E000A18DB28D892B8A2B8B2B69F4D50157964C
:1018F0004D925D926D927C925A9714968C911497AA
:10190000806814968C9381E02C960FB6F894DEBF15
:101910000FBECDBFDF91CF911F910F91FF90EF9040
:10192000DF90CF90BF90AF909F908F907F906F90FF
:101930005F904F903F900895CF93DF93EC018D819E
:101940008823A1F18C8187FF2DC06E857F858889D2
:10195000998941E00E942C0A882341F1EA8980E2BA
:10196000E89FF0011124DF01AE5CBD4F1097F1F04C
:101970008D81823050F44B895C896D897E895C96BB
:101980004D935D936D937C935F978F89988DA98D0F
:10199000BA8DEE5CFD4F938F828FB58BA48B8C81BB
:1019A0008F778C83DF91CF910C94EF0980E0DF91EA
:1019B000CF9108958F929F92AF92BF92CF92DF9274
:1019C000EF92FF920F931F93CF93DF93EC018D81E2
:1019D000811102C080E077C00B891C892D893E8966
:1019E0000417150726073707A8F36A017B01823021
:1019F00029F4CA86DB86EC86FD860DC0C114D104AD
:101A0000E104F10451F41E821F82188619861A8699
:101A10001B861C861D8681E056C08A849B84AC840C
:101A2000BD84EB8DFC8D258530E0275F3F4FB501F0
:101A3000A4014150510961097109022E04C0769533
:101A40006795579547950A94D2F7D701C601019734
:101A5000A109B10904C0B695A795979587952A95D0
:101A6000D2F784179507A607B70720F089288A2898
:101A70008B2849F44F89588D698D7A8D4E835F8309
:101A80006887798704C0841B950BA60BB70B4C01A4
:101A90005D018E010A5F1F4F81149104A104B104FE
:101AA00009F4A7CF4E815F816885798598018B8D78
:101AB0009C8D0E94150B91E0891A9108A108B1082C
:101AC0008111EACF87CFDF91CF911F910F91FF90C6
:101AD000EF90DF90CF90BF90AF909F908F90089540
:101AE0008FB7F894809129058FBF0895CF93DF9326
:101AF000EC0180912A05811109C081E080932A05BB
:101B00008091D1049091D2040E947C0160E08C818C
:101B1000DF91CF910C94D70861E0FC0184810E9491
:101B2000D70880912A05811110922A0508958FEF18
:101B30000C9475010F931F93CF93DF93EB010E94D9
:101B400099098B010E94970D8F3F49F00E949909D6
:101B5000601B710B6C177D07A8F380E001C081E06A
:101B6000DF91CF911F910F910895CF93DF93EC01F7
:101B70008E81882389F08F8198859C012F5F3F4F4C
:101B800038872F838230924018F40E94970DF3CF4C
:101B9000CE010E948C0D1E82DF91CF910895CF92CD
:101BA000DF92FF920F931F93CF93DF9300D000D06B
:101BB000CDB7DEB76C01F62E29833A834B835C8365
:101BC0000E94B50DC6010E94760D6CE271E0C6015F
:101BD0000E949A0D8F2D80640E94750108E110E02B
:101BE0005C814B813A812981DA01C901002E04C050
:101BF000B695A795979587950A94D2F729833A8346
:101C00004B835C830E9475010850110929813A8138
:101C10004B815C81083F8FEF180731F7FF2029F0D7
:101C2000E8E0FE1204C087E803C085E901C08FEF39
:101C30000E94750110E00E94970DF601828787FFD0
:101C400004C01F3F11F01F5FF6CF0F900F900F9051
:101C50000F90DF91CF911F910F91FF90DF90CF9068
:101C60000895AF92BF92CF92DF92EF92FF920F93BF
:101C70001F93CF93DF93EC016901C801820F931F7B
:101C80008130924008F070C08E81882371F0888185
:101C90009981AA81BB81481759076A077B0729F4F4
:101CA0008F819885C816D906B0F5488359836A8311
:101CB0007B838B85833039F089E0440F551F661F85
:101CC000771F8A95D1F79A01AB0161E1CE010E949D
:101CD000CF0D882319F083E08D8346C00E949909B7
:101CE0005B010E94970D8A878F3F49F40E949909F2
:101CF0006A197B096D327140A0F38FE003C08E3FFB
:101D000031F08DE08D83CE010E948C0D2DC01886A0
:101D10001F8281E08E838F8198858C159D0540F40C
:101D20000E94970D8F819885019698878F83F3CFB6
:101D30006701E00EF11ECE14DF0431F00E94970D12
:101D4000F60181936F01F7CF8F819885080F191FD6
:101D500018870F838985882319F00115124048F0F0
:101D6000CE010E94B50D05C0CE010E948C0D80E011
:101D700001C081E0DF91CF911F910F91FF90EF9013
:101D8000DF90CF90BF90AF900895EF92FF920F93A6
:101D90001F93CF93DF93EC01790141155105610544
:101DA000710511F482E13CC08B85833039F089E004
:101DB000440F551F661F771F8A95D1F79A01AB0113
:101DC00068E1CE010E94CF0D882311F084E028C085
:101DD0008EEF0E94750187018EEFF81AF80181914C
:101DE0008F010E9475010E151F05C1F78FEF0E942C
:101DF00075018FEF0E9475010E94970D8A878F7180
:101E0000853031F081E18D83CE010E948C0D09C0B7
:101E100068E572E0CE010E949A0D811107C085E14C
:101E20008D83CE010E948C0D80E013C020E030E055
:101E3000A9016DE0CE010E94CF0D811104C00E9466
:101E4000970D882311F084E1EBCFCE010E948C0D19
:101E500081E0DF91CF911F910F91FF90EF90089556
:101E60002F923F924F925F926F927F928F929F92AA
:101E7000AF92BF92CF92DF92EF92FF920F931F9398
:101E8000CF93DF9300D000D0CDB7DEB78C015B01DC
:101E90001A01DC0115968C9115978130C9F41496BE
:101EA0008C9181FF15C082FF1BC0F80143895489C2
:101EB0006589768982859385A485B585841795077C
:101EC000A607B70769F0C8010E94DA0C811108C0A3
:101ED00081E090E0F8019383828380E090E039C153
:101EE000610183C0D8015B968D919C915C97FC0148
:101EF000248121502A013B0139E07694679457945C
:101F000047943A95D1F7722E74207A01F1E0FF22BE
:101F1000772009F476C080E092E08E199F0946018F
:101F20008C159D0508F44C01D8015B962D913C91D0
:101F30005C9716968D919D910D90BC91A02D029766
:101F4000A109B109F901058404C0880F991FAA1FCE
:101F5000BB1F0A94D2F74685578560897189840F23
:101F6000951FA61FB71F9C01AD01270D311D411DF7
:101F7000511D29013A01811432E0930609F088C00D
:101F80008091000190910101A0910201B0910301A3
:101F900084159505A605B70559F48FEF9FEFDC0171
:101FA0008093000190930101A0930201B09303017B
:101FB0009501B301A20180913204909133040E94F3
:101FC000C50E882309F484CF9EEFB91AC818D90822
:101FD000F80182859385A485B585880D991DA11D7D
:101FE000B11D82879387A487B587D8011A964D9132
:101FF0005D916D917C911D97C114D10409F072CF50
:1020000087C0E114F10409F086CF16964D915D91D9
:102010006D917C911997411551056105710559F430
:1020200057968D919D910D90BC91A02D0097A10583
:10203000B10541F521C09E012F5F3F4F0E94150B56
:10204000882309F44BCF89819A81AB81BC81F80147
:10205000238D348DF9012789203129F048EF5FEF76
:102060006FEF7FE004C048EF5FEF60E070E084173F
:102070009507A607B70730F0C8010E94990B811198
:102080004ACF26CFF80186839783A087B18743CFB5
:10209000E114F10429F5D8011A964D915D916D91E5
:1020A0007C911D9753968D919D910D90BC91A02D83
:1020B000481759076A077B0798F00E94EF098823A1
:1020C00009F406CF40920001509201016092020192
:1020D000709203018091310281608093310208C0C7
:1020E00041E0C301B2010E942C0A882309F4F0CE1A
:1020F000D501F701EE5CFD4FCF01880D991DE81762
:10210000F90719F02D912193FACFA80CB91C5ECFD5
:1021100053968D919D910D90BC91A02D841795079C
:10212000A607B70740F4F801438B548B658B768B79
:10213000848180688483D80114968C9183FD02C0C9
:10214000C10107C0C8010E949C0C882309F4C0CEBD
:10215000F7CF0F900F900F900F90DF91CF911F91BD
:102160000F91FF90EF90DF90CF90BF90AF909F9036
:102170008F907F906F905F904F903F902F90089539
:10218000CF93DF931F92CDB7DEB7698341E050E074
:10219000BE016F5F7F4F0E94300F0F90DF91CF9194
:1021A0000895CF92DF92EF92FF920F931F93E82F43
:1021B000F92F05C0015011092109310961F1908100
:1021C00096239417B9F305C001501109210931096B
:1021D00011F1908196239413F7CFC12CD12CE12CCF
:1021E000F12C0AC08FEFC81AD80AE80AF80A0C15B1
:1021F0001D052E053F0579F080818623841791F314
:102200006C2D7D2D8E2D9F2D1F910F91FF90EF90A6
:10221000DF90CF90089560E070E080E090E01F9143
:102220000F91FF90EF90DF90CF9008958F929F9243
:10223000AF92BF92CF92DF92EF92FF920F931F93D4
:10224000CF93DF93EC01C05EDC4F7C0120EDE21AFE
:102250002CEFF20A00E010E06E0120E2C21A23E047
:10226000D20AF601E00FF11F80809180A280B38036
:1022700020E030E0A901C501B4010E947C19882347
:1022800061F0A5019401688179818A819B810E9416
:102290001019688379838A839B83005F1F4F003204
:1022A00083E01807F1F620E030E048E452E468816A
:1022B00079818A819B810E9481196993799389939D
:1022C0009993CE15DF0531F6DF91CF911F910F91D4
:1022D000FF90EF90DF90CF90BF90AF909F908F9046
:1022E00008950E94470784E394E00C94F4062F922B
:1022F0003F924F925F926F927F928F929F92AF9296
:10230000BF92CF92DF92EF92FF920F931F93CF93E2
:10231000DF93CDB7DEB72E970FB6F894DEBF0FBEB2
:10232000CDBF2C0187E192E00E94711112013201B0
:1023300080EE681A8CEF780A520198E5A91A9CEF92
:10234000B90A4201A0E88A1AACEF9A0A6201B4E520
:10235000CB1ABCEFDB0A7201E0E5EE1AECEFFE0AE5
:1023600082010C541C4F60E087E00E94D70860E0B7
:1023700086E00E94D7080E947C140E94221AD50190
:102380006D937D938D939C9313972D913D914D91DA
:102390005C91F40160817181828193810E94811935
:1023A000D5016D937D938D939C93139761E087E0A6
:1023B0000E94D70861E086E00E94D7080E947C1442
:1023C0000E94221AF60160837183828393832081A5
:1023D000318142815381D4016D917D918D919C9188
:1023E0000E948119F601608371838283938360E088
:1023F00087E00E94D70861E086E00E94D7080E942B
:102400007C140E94221AD7016D937D938D939C9327
:1024100013972D913D914D915C91F40160817181F3
:10242000828193810E948119D7016D937D938D9351
:102430009C93139761E087E00E94D70860E086E0F4
:102440000E94D7080E947C140E94221AF80160831F
:102450007183828393832081318142815381D401AE
:102460006D917D918D919C910E948119F8016083FD
:1024700071838283938364E170E080E090E00E9446
:102480005F09F50180819181A281B381F10180838F
:102490009183A283B383F60180819181A281B3816C
:1024A000F10184839583A683B783F70180819181AD
:1024B000A281B381F10180879187A287B387F80158
:1024C00080819181A281B381F10184879587A6875C
:1024D000B787F0E12F0E311C2614370409F043CFE3
:1024E0008EE491E00E947111C2010E941611C20196
:1024F000805C9C4F9C838B83620190EBC91A9CEF9C
:10250000D90A2B803C8000E010E0EB80FC80B0E436
:10251000EB1AB3E0FB0AEB81FC81B097FA83E98305
:10252000F701E00FF11F80809180A280B38020E04E
:1025300030E0A901C501B4010E947C19882329F16A
:10254000A981BA812D913D914D915C91C501B40154
:102550000E940F199B01AC010E94D91A20E030E0C3
:1025600048E452E40E9481199B01AC01EB81FC819B
:1025700060817181828193810E941019AB81BC813D
:102580006D937D938D939C931397005F1F4F003243
:10259000B3E01B0729F6EB81FC8161917191819178
:1025A0009191FC83EB830E944C1BAB81BC811C96F8
:1025B0006D937D938D939C931F97AC15BD0509F08A
:1025C000A2CFD1011D921D921D921C921397F20170
:1025D000EC5BFC4F108211821282138234961082BF
:1025E0001182128213823496108211821282138217
:1025F0001E861D86F30181909190A190B190FA837F
:10260000E98364A575A586A597A59B01AC010E94E9
:1026100010196B017C019B01AC01C501B4010E9442
:102620000F196F83788789879A8700E010E0212C43
:10263000312CF0E26F1AF3E07F0A9301200F311F73
:10264000D9018D919D910D90BC91A02D8B839C8380
:10265000AD83BE839C01AD016F81788589859A85A4
:102660000E94D41A181674F5220C331C220C331C49
:10267000ED85FE852E0E3F1E220C331C220C331CD2
:10268000F101E40DF51D1082118212821382C20144
:102690002E960FB6F894DEBF0FBECDBFDF91CF915F
:1026A0001F910F91FF90EF90DF90CF90BF90AF9070
:1026B0009F908F907F906F905F904F903F902F9062
:1026C0000C941611A7019601C501B4010E941019BE
:1026D0002B813C814D815E810E947C1987FDC4CF96
:1026E000FFEF2F1A3F0A005F1F4F82E328163104C5
:1026F00009F0A3CFAD85BE851196BE87AD876980F1
:102700007A80149709F076CF2E960FB6F894DEBF34
:102710000FBECDBFDF91CF911F910F91FF90EF9032
:10272000DF90CF90BF90AF909F908F907F906F90F1
:102730005F904F903F902F900895E4E3F4E0138270
:10274000128288EE93E0A0E0B0E084839583A683B4
:10275000B78382E291E09183808385EC90E0958756
:10276000848784EC90E09787868780EC90E0918B5B
:10277000808B81EC90E0938B828B82EC90E0958B48
:10278000848B86EC90E0978B868B118E128E138E45
:10279000148EE1EDF4E080E580831182E3EDF4E056
:1027A000158216821186138682E090E0A0E0B0E0E8
:1027B00084879587A687B78713A215A614A682E4F7
:1027C00091E093A782A717A60895789484B58260B4
:1027D00084BD84B5816084BD85B5826085BD85B5C5
:1027E000816085BDEEE6F0E0808181608083E1E874
:1027F000F0E01082808182608083808181608083AC
:10280000E0E8F0E0808181608083E1EBF0E08081AE
:1028100084608083E0EBF0E0808181608083EAE780
:10282000F0E0808184608083808182608083808109
:10283000816080838081806880831092C10061E024
:1028400089E00E94230961E088E00E94230961E099
:1028500087E00E94230961E086E00E94230960E08E
:1028600085E00E94230961E08AE00E942309E4E3F5
:10287000F4E0A089B18982E08C93A485B5851C928F
:10288000A685B7858FEC8C93108EA489B58986E0D8
:102890008C93A289B3898C9180618C93A289B3892E
:1028A0008C9188608C93A289B3898C9180688C9379
:1028B0000288F389E02D80818F7D808381E292E020
:1028C0000E94590761E089E00E94D70861E088E032
:1028D0000E94D70868EE73E080E090E00E945F09F4
:1028E00087E292E00E94590768EE73E080E090E092
:1028F0000E945F090E94BD020F931F93E3EBF0E07B
:102900006491EFE9F0E0E491F0E0EE0FFF1FE05793
:10291000FF4F8591949100E412E42FE030E040E015
:102920000E94D110611571058105910549F0DC0106
:10293000CB010196A11DB11DBC01CD019F7003C04B
:1029400060E070E0CB011F910F9108958F929F92EC
:10295000AF92BF92CF92DF92EF92FF92CF93DF932D
:10296000C82F83ED94E09093330480933204CC23FA
:1029700069F1C53010F080E00DC140E060E070E02A
:10298000CB010E942C0A8823B1F320E1C29FC00131
:1029900011248E5D9D4FFC01E254FE4F20812F7764
:1029A00051F73C96408151816281738144365105D3
:1029B0006105710500F33497C080D180E280F38017
:1029C000C114D104E104F10421F4D5CFC12CD12CE0
:1029D000760140E0C701B6010E942C0A882359F213
:1029E00080913D0290913E028115924021F6A09186
:1029F0004202AA2309F4BFCF6091400270914102C4
:102A00006115710509F4B7CF20913F02222309F423
:102A1000B2CFA093F1042093E30480E030E0E1E042
:102A2000F0E0C82FAF01082E02C0440F551F0A94D2
:102A3000E2F72417350741F0982F8F5F983089F718
:102A400089E08093EC0497CF8093EC0420914802B6
:102A5000309149022115310519F040E050E008C0DD
:102A600020915602309157024091580250915902DC
:102A70002093E4043093E5044093E6045093E70484
:102A800046015701860E971EA11CB11C8092F204CC
:102A90009092F304A092F404B092F504E091430202
:102AA000F0914402F093F804E093F704B0E00E9440
:102AB000F41C860E971EA81EB91E8092F9049092EF
:102AC000FA04A092FB04B092FC0485E0EE0FFF1F15
:102AD0008A95E1F7E150FE4FEF2FFF27E6958E0E26
:102AE0009F1EA11CB11C8092ED049092EE04A09256
:102AF000EF04B092F0042091450230914602211576
:102B0000310521F0A90160E070E008C04091520257
:102B1000509153026091540270915502D701C60141
:102B200088199909AA09BB09840F951FA61FB71F09
:102B300004C0B695A79597958795CA95D2F78093C7
:102B4000E8049093E904A093EA04B093EB04853F72
:102B50002FE09207A105B10510F48CE018C0853F65
:102B60009F4FA105B10510F480E111C080915E0274
:102B700090915F02A0916002B09161028093F9048C
:102B80009093FA04A093FB04B093FC0480E280933A
:102B9000F60481E0DF91CF91FF90EF90DF90CF902E
:102BA000BF90AF909F908F9008954F925F926F92D9
:102BB0007F92AF92BF92CF92DF92EF92FF920F93EC
:102BC0001F93CF93DF9300D000D0CDB7DEB78C0139
:102BD00049835A836B837C835901C12CD12C7601A4
:102BE000412C82E0582E612C712C49815A816B81D5
:102BF0007C819E012F5F3F4FC8010E94150B8823E7
:102C000051F1D301C201F801058404C0880F991F56
:102C1000AA1FBB1F0A94D2F7C80ED91EEA1EFB1EBC
:102C200049815A816B817C818789803129F088EFC5
:102C30009FEFAFEFBFE004C088EF9FEFA0E0B0E0F0
:102C4000481759076A077B0780F2F501C082D182D5
:102C5000E282F38281E00F900F900F900F90DF914E
:102C6000CF911F910F91FF90EF90DF90CF90BF9089
:102C7000AF907F906F905F904F9008958F929F924A
:102C8000AF92BF92CF92DF92EF92FF920F931F937A
:102C9000CF93DF9300D000D0CDB7DEB77C0180E2C8
:102CA000689F6001112496012E5C3D4FD9011B964F
:102CB0009C91917121F0842F827409F097C0142F98
:102CC000F701628B8091000190910101A0910201B6
:102CD000B091030186879787A08BB18BF601EE5CDC
:102CE000FD4F4489558960E070E0BA0155274427BB
:102CF000D70157964D935D936D937C935A97828D30
:102D0000938DA0E0B0E0482B592B6A2B7B2BD70189
:102D100057964D935D936D937C935A97D9011B966B
:102D20008C91887159F4848D958DA68DB78DF7019E
:102D3000838B948BA58BB68B81E012C0803109F018
:102D400055C097012D5E3F4FD7015B968D919C91A9
:102D50005C970E94D515882309F448C084E0F701E8
:102D60008583812F8F70D70114968C931497F70168
:102D700016821782108611861A961D921D921D9238
:102D80001C921D9716FF34C015968C91813071F5F9
:102D900011FF2CC0F7014389548965897689452B39
:102DA000462B472B09F461C040E050E0BA01C7014F
:102DB0000E94DA0C8823D1F0F7018788908CA18CCF
:102DC000B28CC38CD48C82E090E0A0E0B0E0F6013D
:102DD00080839183A283B3839E012F5F3F4FB50110
:102DE000A401C6010E94150B811104C080E03DC002
:102DF00081E03BC000E010E09801B501A401C601EC
:102E00000E94750A882391F389809A80AB80BC80E8
:102E1000D60157968C91803129F088EF9FEFAFEF64
:102E2000BFE004C088EF9FEFA0E0B0E088169906ED
:102E3000AA06BB0688F2D70157961D921D921D92D5
:102E40001C925A97F701138A148A158A168A84816C
:102E500080688483C7010E949C0C882339F240E07B
:102E600050E0BA01C7010E94DA0C0F900F900F904A
:102E70000F90DF91CF911F910F91FF90EF90DF9016
:102E8000CF90BF90AF909F908F9008954F925F9298
:102E90006F927F92AF92BF92CF92DF92EF92FF92AA
:102EA0000F931F93CF93DF93CDB7DEB72B970FB65A
:102EB000F894DEBF0FBECDBF7C01CE0101966C0140
:102EC000FC0190E28BE08C0D91938E13FDCFDA0123
:102ED00030E047E09D91992339F19E3219F0E2EC00
:102EE000F0E00AC04A3009F472C138E04AE0F2CF9B
:102EF0003196891709F46BC184918111F9CF431779
:102F000008F465C18FED890F8E3508F060C181E04E
:102F1000830FF601E30FF11D3FE9390F3A3108F451
:102F200090529083382FD6CF8981803209F44FC1D7
:102F3000B22E8B01DB015B968D919C915C97F70122
:102F4000948F838F16961D921D921D921C92199735
:102F5000FB011286138614861586712CF801828572
:102F60009385A485B58543895489658976898417B5
:102F70009507A607B70708F061C025E0B695A795A5
:102F8000979587952A95D1F7F82FFF706F2ED80166
:102F900015968C91823008F41AC1C8010E947F01F5
:102FA00097FD15C1F80182859385A485B5854F9657
:102FB000A11DB11D82879387A487B587F0E26F9E1C
:102FC000C0011124BC016E5C7D4F6115710509F4CF
:102FD000FEC0DB012C91222319F0253EC1F427C04D
:102FE00071100EC0F701628A4091000150910101F9
:102FF000609102017091030146875787608B718B46
:10300000FC01EE5CFD4F8081811113C015C04BE0C7
:1030100050E0C6010E94D81C892B09F09FCF8B2D50
:103020008073803309F4D3C04B2D662DCCC077203C
:10303000C9F27724739492CF772473948B2D827185
:10304000823109F0C4C07720D1F0D7011E966D916E
:103050007D918D919C91519741E00E942C0A88238B
:1030600009F4B5C0F7016289F0E26F9FB001112445
:103070006E5C7D4F6115710509F079C0A8C0D8015B
:1030800015968C91823009F4A2C0C8010E94990B58
:10309000882309F49CC0D8015B96ED91FC915C9764
:1030A00016964D905D906D907C901997B2E04B1AFA
:1030B000510861087108058404C0440C551C661C45
:1030C000771C0A94D2F786859785A089B189480E26
:1030D000591E6A1E7B1EA480E1E04E1A5108610849
:1030E0007108AA2009F10E94EF09882309F46FC032
:1030F000E2E3F2E0119224E0E233F207D9F7D301E0
:10310000C2018A0D911DA11DB11D809300019093F4
:103110000101A0930201B09303018091310281600B
:1031200080933102AA94DDCFD8015B96ED91FC919A
:103130005C9780E092E0A0E0B0E0058404C0880FD6
:10314000991FAA1FBB1F0A94D2F7F801438954891B
:1031500065897689840F951FA61FB71F838B948B73
:10316000A58BB68BD70152961C9262E372E080E287
:10317000FB0111928A95E9F78BE0F601DB010190E2
:103180000D928A95E1F781E298E2DB0151969C93DA
:103190008E93509720E038E01F963C932E931E9715
:1031A00053969C938E93529759969C938E935897CF
:1031B00057963C932E9356970E94EF09882339F037
:1031C0004B2DF7016289C7010E943E1601C080E0C5
:1031D0002B960FB6F894DEBF0FBECDBFDF91CF9117
:1031E0001F910F91FF90EF90DF90CF90BF90AF9025
:1031F0007F906F905F904F900895CF93DF93EC0195
:103200000E949C0C882311F01D8281E0DF91CF91F8
:103210000895EE0FFF1F0590F491E02D099450588A
:10322000BB27AA270E9427190C949A1A0E948C1A6D
:1032300038F00E94931A20F039F49F3F19F426F4D5
:103240000C94891A0EF4E095E7FB0C94831AE92F8D
:103250000E94AB1A58F3BA176207730784079507E1
:1032600020F079F4A6F50C94CD1A0EF4E0950B2E0F
:10327000BA2FA02D0B01B90190010C01CA01A001C8
:103280001124FF27591B99F0593F50F4503E68F123
:103290001A16F040A22F232F342F4427585FF3CF64
:1032A000469537952795A795F0405395C9F77EF435
:1032B0001F16BA0B620B730B840BBAF09150A1F07E
:1032C000FF0FBB1F661F771F881FC2F70EC0BA0F04
:1032D000621F731F841F48F4879577956795B7958C
:1032E000F7959E3F08F0B0CF9395880F08F0992787
:1032F000EE0F9795879508950E945F1A08F481E074
:1033000008950E9495190C949A1A0E94931A58F0E5
:103310000E948C1A40F029F45F3F29F00C94831A24
:1033200051110C94CE1A0C94891A0E94AB1A68F3AE
:103330009923B1F3552391F3951B550BBB27AA276E
:1033400062177307840738F09F5F5F4F220F331FA8
:10335000441FAA1FA9F335D00E2E3AF0E0E832D070
:1033600091505040E695001CCAF72BD0FE2F29D073
:10337000660F771F881FBB1F261737074807AB0745
:10338000B0E809F0BB0B802DBF01FF2793585F4FBA
:103390003AF09E3F510578F00C94831A0C94CE1AA3
:1033A0005F3FE4F3983ED4F3869577956795B7959C
:1033B000F7959F5FC9F7880F911D9695879597F9A7
:1033C0000895E1E0660F771F881FBB1F6217730720
:1033D0008407BA0720F0621B730B840BBA0BEE1F35
:1033E00088F7E09508950E94B31A88F09F5798F0E7
:1033F000B92F9927B751B0F0E1F0660F771F881FFA
:10340000991F1AF0BA95C9F714C0B13091F00E9413
:10341000CD1AB1E008950C94CD1A672F782F882724
:10342000B85F39F0B93FCCF3869577956795B3953A
:10343000D9F73EF490958095709561957F4F8F4FA9
:103440009F4F0895E89409C097FB3EF490958095AE
:10345000709561957F4F8F4F9F4F9923A9F0F92F5A
:1034600096E9BB279395F695879577956795B795D8
:10347000F111F8CFFAF4BB0F11F460FF1BC06F5FBE
:103480007F4F8F4F9F4F16C0882311F096E911C0D0
:10349000772321F09EE8872F762F05C0662371F0F1
:1034A00096E8862F70E060E02AF09A95660F771F05
:1034B000881FDAF7880F9695879597F90895990FE1
:1034C0000008550FAA0BE0E8FEEF16161706E807EE
:1034D000F907C0F012161306E407F50798F0621B0F
:1034E000730B840B950B39F40A2661F0232B242BE4
:1034F000252B21F408950A2609F4A140A6958FEF03
:10350000811D811D089597F99F6780E870E060E054
:1035100008959FEF80EC089500240A94161617066C
:1035200018060906089500240A94121613061406B4
:1035300005060895092E0394000C11F4882352F017
:10354000BB0F40F4BF2B11F460FF04C06F5F7F4FCF
:103550008F4F9F4F089557FD9058440F551F59F0B6
:103560005F3F71F04795880F97FB991F61F09F3F70
:1035700079F087950895121613061406551FF2CF99
:103580004695F1DF08C0161617061806991FF1CFE9
:1035900086957105610508940895E894BB27662710
:1035A0007727CB0197F908950E945F1A08F48FEFEF
:1035B00008950E94EC1A0C949A1A0E948C1A38F002
:1035C0000E94931A20F0952311F00C94831A0C9406
:1035D000891A11240C94CE1A0E94AB1A70F3959F8D
:1035E000C1F3950F50E0551F629FF001729FBB27FA
:1035F000F00DB11D639FAA27F00DB11DAA1F649F96
:103600006627B00DA11D661F829F2227B00DA11D48
:10361000621F739FB00DA11D621F839FA00D611DCE
:10362000221F749F3327A00D611D231F849F600DEF
:10363000211D822F762F6A2F11249F5750409AF018
:10364000F1F088234AF0EE0FFF1FBB1F661F771FA4
:10365000881F91505040A9F79E3F510580F00C946F
:10366000831A0C94CE1A5F3FE4F3983ED4F3869508
:1036700077956795B795F795E7959F5FC1F7FE2B0F
:10368000880F911D9695879597F9089519F416F46A
:103690000C94891A0C94911B0E94B31AB8F39923C5
:1036A000C9F3B6F39F57550B87FF0E949F1B002459
:1036B000A0E640EA900180585695979528F4805CE2
:1036C000660F771F881F20F026173707480730F44A
:1036D000621B730B840B202931294A2BA695179462
:1036E0000794202531254A2758F7660F771F881F32
:1036F00020F026173707480730F4620B730B840B52
:10370000200D311D411DA09581F7B901842F9158DD
:10371000880F9695879508950E945F1A880B990BDC
:1037200008959F3F31F0915020F4879577956795E4
:10373000B795880F911D9695879597F908959150A3
:103740005040660F771F881FD2F70895CF93DF93FD
:103750008230910510F482E090E0E0912D05F09127
:103760002E0520E030E0C0E0D0E0309711F140813C
:10377000518148175907C0F04817590761F48281F1
:103780009381209719F09B838A832BC090932E05F9
:1037900080932D0526C02115310519F042175307D6
:1037A00018F49A01BE01DF01EF010280F381E02DE0
:1037B000DCCF2115310509F1281B390B24303105E7
:1037C00090F412968D919C9113976115710521F0DB
:1037D000FB019383828304C090932E0580932D0573
:1037E000FD01329644C0FD01E20FF31F81939193D6
:1037F000225031092D933C933AC020912B053091F2
:103800002C05232B41F420910601309107013093C0
:103810002C0520932B0520910401309105012115E1
:10382000310541F42DB73EB740910801509109018F
:10383000241B350BE0912B05F0912C05E217F307C3
:10384000A0F42E1B3F0B2817390778F0AC014E5F10
:103850005F4F2417350748F04E0F5F1F50932C051C
:1038600040932B058193919302C0E0E0F0E0CF01FB
:10387000DF91CF9108950F931F93CF93DF9300971C
:1038800009F48CC0FC0132971382128200912D053D
:1038900010912E050115110581F420813181820FCF
:1038A000931F20912B0530912C052817390779F5A6
:1038B000F0932C05E0932B0571C0D80140E050E057
:1038C000AE17BF0750F412962D913C911397AD019E
:1038D0002115310509F1D901F3CF9D01DA013383B7
:1038E000228360817181860F971F8217930769F485
:1038F000EC0128813981260F371F2E5F3F4F31831E
:1039000020838A819B8193838283452B29F4F093C2
:103910002E05E0932D0542C01396FC93EE9312976B
:10392000ED01499159919E01240F351FE217F307CC
:1039300071F480819181840F951F029611969C935A
:103940008E938281938113969C938E931297E0E0DD
:10395000F0E0D80112968D919C911397009719F081
:10396000F8018C01F6CF8D919C9198012E5F3F4F0D
:10397000820F931F20912B0530912C0528173907B2
:1039800069F4309729F410922E0510922D0502C08B
:103990001382128210932C0500932B05DF91CF9197
:1039A0001F910F91089581E090E0F8940C94301DE0
:1039B000FB01DC0104C08D910190801921F441507C
:1039C0005040C8F7881B990B0895FB01DC0141505A
:1039D000504048F001900D920020C9F701C01D929F
:1039E00041505040E0F708950E94211DA59F900D81
:1039F000B49F900DA49F800D911D11240895A1E204
:103A00001A2EAA1BBB1BFD010DC0AA1FBB1FEE1F58
:103A1000FF1FA217B307E407F50720F0A21BB30BA3
:103A2000E40BF50B661F771F881F991F1A9469F71F
:103A300060957095809590959B01AC01BD01CF017B
:103A40000895A29FB001B39FC001A39F700D811D77
:103A50001124911DB29F700D811D1124911D089597
:043A6000F894FFCF08
:103A6400FFFFFFFF00002F058000010000000000A1
:103A7400000006012401E500890293021C010000F4
:103A84000000AD062906760654066806F406000012
:103A94000000450729064507450745074507000077
:103AA4000000C010290600000000450729066F0029
:103AB400216E6965207265647920616C61206D6195
:103AC400206B6F7461006300680069006A00640021
:103AD4006B006C006D0065006200202072656479E3
:103AE400005A6E616C657A696F6E6F206B617274D7
:103AF40065205344004E6965207A6E616C657A696D
:103B04006F6E6F206B61727479205344006461742A
:103B140061626173652E74787400476F746F77798E
:103B240020646F20647A6961EFBFBD616E696100D2
:103B34004E6965207A6E616C657A696F6E6F20627A
:103B4400617A792064616E79636820777A6F726331
:103B54006F77004875653A2000536174757261741B
:103B6400696F6E3A20004C756D696E616E63653ADB
:103B740020000D0A006E616E00696E66006F766645
:0E3B8400005354415254007365747570000074
:00000001FF
